{
  "_format": "hh-sol-artifact-1",
  "contractName": "FarQuest",
  "sourceName": "contracts/FarQuest.sol",
  "abi": [
    {
      "inputs": [
        {
          "internalType": "bytes32",
          "name": "_secretHash",
          "type": "bytes32"
        }
      ],
      "stateMutability": "nonpayable",
      "type": "constructor"
    },
    {
      "anonymous": false,
      "inputs": [
        {
          "indexed": true,
          "internalType": "address",
          "name": "user",
          "type": "address"
        },
        {
          "indexed": false,
          "internalType": "uint256",
          "name": "level",
          "type": "uint256"
        },
        {
          "indexed": false,
          "internalType": "uint256",
          "name": "amount",
          "type": "uint256"
        }
      ],
      "name": "RewardClaimed",
      "type": "event"
    },
    {
      "anonymous": false,
      "inputs": [
        {
          "indexed": true,
          "internalType": "address",
          "name": "user",
          "type": "address"
        }
      ],
      "name": "UserRegistered",
      "type": "event"
    },
    {
      "inputs": [
        {
          "internalType": "uint256",
          "name": "level",
          "type": "uint256"
        },
        {
          "internalType": "string",
          "name": "secret",
          "type": "string"
        }
      ],
      "name": "claimReward",
      "outputs": [],
      "stateMutability": "nonpayable",
      "type": "function"
    },
    {
      "inputs": [
        {
          "internalType": "uint256",
          "name": "count",
          "type": "uint256"
        }
      ],
      "name": "getLeaderboard",
      "outputs": [
        {
          "internalType": "address[]",
          "name": "",
          "type": "address[]"
        },
        {
          "internalType": "uint256[]",
          "name": "",
          "type": "uint256[]"
        }
      ],
      "stateMutability": "view",
      "type": "function"
    },
    {
      "inputs": [],
      "name": "getTotalUsers",
      "outputs": [
        {
          "internalType": "uint256",
          "name": "",
          "type": "uint256"
        }
      ],
      "stateMutability": "view",
      "type": "function"
    },
    {
      "inputs": [],
      "name": "owner",
      "outputs": [
        {
          "internalType": "address",
          "name": "",
          "type": "address"
        }
      ],
      "stateMutability": "view",
      "type": "function"
    },
    {
      "inputs": [],
      "name": "register",
      "outputs": [],
      "stateMutability": "payable",
      "type": "function"
    },
    {
      "inputs": [
        {
          "internalType": "uint256",
          "name": "",
          "type": "uint256"
        }
      ],
      "name": "registeredUsers",
      "outputs": [
        {
          "internalType": "address",
          "name": "",
          "type": "address"
        }
      ],
      "stateMutability": "view",
      "type": "function"
    },
    {
      "inputs": [],
      "name": "registrationFee",
      "outputs": [
        {
          "internalType": "uint256",
          "name": "",
          "type": "uint256"
        }
      ],
      "stateMutability": "view",
      "type": "function"
    },
    {
      "inputs": [],
      "name": "rewardAmount",
      "outputs": [
        {
          "internalType": "uint256",
          "name": "",
          "type": "uint256"
        }
      ],
      "stateMutability": "view",
      "type": "function"
    },
    {
      "inputs": [],
      "name": "secretHash",
      "outputs": [
        {
          "internalType": "bytes32",
          "name": "",
          "type": "bytes32"
        }
      ],
      "stateMutability": "view",
      "type": "function"
    },
    {
      "inputs": [
        {
          "internalType": "bytes32",
          "name": "_secretHash",
          "type": "bytes32"
        }
      ],
      "name": "setSecretHash",
      "outputs": [],
      "stateMutability": "nonpayable",
      "type": "function"
    },
    {
      "inputs": [
        {
          "internalType": "address",
          "name": "",
          "type": "address"
        }
      ],
      "name": "users",
      "outputs": [
        {
          "internalType": "bool",
          "name": "registered",
          "type": "bool"
        },
        {
          "internalType": "uint256",
          "name": "totalRewards",
          "type": "uint256"
        },
        {
          "internalType": "uint256",
          "name": "lastClaimedLevel",
          "type": "uint256"
        }
      ],
      "stateMutability": "view",
      "type": "function"
    },
    {
      "inputs": [],
      "name": "withdrawFunds",
      "outputs": [],
      "stateMutability": "nonpayable",
      "type": "function"
    },
    {
      "stateMutability": "payable",
      "type": "receive"
    }
  ],
  "bytecode": "0x608060405267016345785d8a0000600155670de0b6b3a76400006002553480156200002957600080fd5b50604051620016863803806200168683398181016040528101906200004f9190620000dd565b336000806101000a81548173ffffffffffffffffffffffffffffffffffffffff021916908373ffffffffffffffffffffffffffffffffffffffff16021790555080600381905550506200010f565b600080fd5b6000819050919050565b620000b781620000a2565b8114620000c357600080fd5b50565b600081519050620000d781620000ac565b92915050565b600060208284031215620000f657620000f56200009d565b5b60006200010684828501620000c6565b91505092915050565b611567806200011f6000396000f3fe6080604052600436106100ab5760003560e01c80639be572f6116100645780639be572f6146101945780639e7fd3d2146101bf578063a34b46fe146101e8578063a87430ba14610226578063d29e680314610265578063f7b2a7be14610290576100b2565b806314c44e09146100b75780631aa3a008146100e257806324600fc3146100ec5780637259e0f814610103578063733b0fb4146101405780638da5cb5b14610169576100b2565b366100b257005b600080fd5b3480156100c357600080fd5b506100cc6102bb565b6040516100d99190610bbe565b60405180910390f35b6100ea6102c1565b005b3480156100f857600080fd5b50610101610498565b005b34801561010f57600080fd5b5061012a60048036038101906101259190610c19565b61058f565b6040516101379190610c87565b60405180910390f35b34801561014c57600080fd5b5061016760048036038101906101629190610cd8565b6105ce565b005b34801561017557600080fd5b5061017e610666565b60405161018b9190610c87565b60405180910390f35b3480156101a057600080fd5b506101a961068a565b6040516101b69190610bbe565b60405180910390f35b3480156101cb57600080fd5b506101e660048036038101906101e19190610e4b565b610697565b005b3480156101f457600080fd5b5061020f600480360381019061020a9190610c19565b610955565b60405161021d929190611023565b60405180910390f35b34801561023257600080fd5b5061024d60048036038101906102489190611086565b610b62565b60405161025c939291906110ce565b60405180910390f35b34801561027157600080fd5b5061027a610b99565b6040516102879190611114565b60405180910390f35b34801561029c57600080fd5b506102a5610b9f565b6040516102b29190610bbe565b60405180910390f35b60015481565b600460003373ffffffffffffffffffffffffffffffffffffffff1673ffffffffffffffffffffffffffffffffffffffff16815260200190815260200160002060000160009054906101000a900460ff1615610351576040517f08c379a00000000000000000000000000000000000000000000000000000000081526004016103489061118c565b60405180910390fd5b6001543414610395576040517f08c379a000000000000000000000000000000000000000000000000000000000815260040161038c906111f8565b60405180910390fd5b6001600460003373ffffffffffffffffffffffffffffffffffffffff1673ffffffffffffffffffffffffffffffffffffffff16815260200190815260200160002060000160006101000a81548160ff0219169083151502179055506005339080600181540180825580915050600190039060005260206000200160009091909190916101000a81548173ffffffffffffffffffffffffffffffffffffffff021916908373ffffffffffffffffffffffffffffffffffffffff1602179055503373ffffffffffffffffffffffffffffffffffffffff167f54db7a5cb4735e1aac1f53db512d3390390bb6637bd30ad4bf9fc98667d9b9b960405160405180910390a2565b60008054906101000a900473ffffffffffffffffffffffffffffffffffffffff1673ffffffffffffffffffffffffffffffffffffffff163373ffffffffffffffffffffffffffffffffffffffff1614610526576040517f08c379a000000000000000000000000000000000000000000000000000000000815260040161051d9061128a565b60405180910390fd5b60008054906101000a900473ffffffffffffffffffffffffffffffffffffffff1673ffffffffffffffffffffffffffffffffffffffff166108fc479081150290604051600060405180830381858888f1935050505015801561058c573d6000803e3d6000fd5b50565b6005818154811061059f57600080fd5b906000526020600020016000915054906101000a900473ffffffffffffffffffffffffffffffffffffffff1681565b60008054906101000a900473ffffffffffffffffffffffffffffffffffffffff1673ffffffffffffffffffffffffffffffffffffffff163373ffffffffffffffffffffffffffffffffffffffff161461065c576040517f08c379a00000000000000000000000000000000000000000000000000000000081526004016106539061128a565b60405180910390fd5b8060038190555050565b60008054906101000a900473ffffffffffffffffffffffffffffffffffffffff1681565b6000600580549050905090565b600460003373ffffffffffffffffffffffffffffffffffffffff1673ffffffffffffffffffffffffffffffffffffffff16815260200190815260200160002060000160009054906101000a900460ff16610726576040517f08c379a000000000000000000000000000000000000000000000000000000000815260040161071d906112f6565b60405180910390fd5b600460003373ffffffffffffffffffffffffffffffffffffffff1673ffffffffffffffffffffffffffffffffffffffff1681526020019081526020016000206002015482116107aa576040517f08c379a00000000000000000000000000000000000000000000000000000000081526004016107a190611362565b60405180910390fd5b600354816040516020016107be91906113f3565b6040516020818303038152906040528051906020012014610814576040517f08c379a000000000000000000000000000000000000000000000000000000000815260040161080b90611456565b60405180910390fd5b600254600460003373ffffffffffffffffffffffffffffffffffffffff1673ffffffffffffffffffffffffffffffffffffffff168152602001908152602001600020600101600082825461086891906114a5565b9250508190555081600460003373ffffffffffffffffffffffffffffffffffffffff1673ffffffffffffffffffffffffffffffffffffffff168152602001908152602001600020600201819055503373ffffffffffffffffffffffffffffffffffffffff166108fc6002549081150290604051600060405180830381858888f193505050501580156108fe573d6000803e3d6000fd5b503373ffffffffffffffffffffffffffffffffffffffff167ff01da32686223933d8a18a391060918c7f11a3648639edd87ae013e2e2731743836002546040516109499291906114d9565b60405180910390a25050565b6060806000600580549050841061097157600580549050610973565b835b905060008167ffffffffffffffff81111561099157610990610d20565b5b6040519080825280602002602001820160405280156109bf5781602001602082028036833780820191505090505b50905060008267ffffffffffffffff8111156109de576109dd610d20565b5b604051908082528060200260200182016040528015610a0c5781602001602082028036833780820191505090505b50905060005b83811015610b535760058181548110610a2e57610a2d611502565b5b9060005260206000200160009054906101000a900473ffffffffffffffffffffffffffffffffffffffff16838281518110610a6c57610a6b611502565b5b602002602001019073ffffffffffffffffffffffffffffffffffffffff16908173ffffffffffffffffffffffffffffffffffffffff16815250506004600060058381548110610abe57610abd611502565b5b9060005260206000200160009054906101000a900473ffffffffffffffffffffffffffffffffffffffff1673ffffffffffffffffffffffffffffffffffffffff1673ffffffffffffffffffffffffffffffffffffffff16815260200190815260200160002060010154828281518110610b3a57610b39611502565b5b6020026020010181815250508080600101915050610a12565b50818194509450505050915091565b60046020528060005260406000206000915090508060000160009054906101000a900460ff16908060010154908060020154905083565b60035481565b60025481565b6000819050919050565b610bb881610ba5565b82525050565b6000602082019050610bd36000830184610baf565b92915050565b6000604051905090565b600080fd5b600080fd5b610bf681610ba5565b8114610c0157600080fd5b50565b600081359050610c1381610bed565b92915050565b600060208284031215610c2f57610c2e610be3565b5b6000610c3d84828501610c04565b91505092915050565b600073ffffffffffffffffffffffffffffffffffffffff82169050919050565b6000610c7182610c46565b9050919050565b610c8181610c66565b82525050565b6000602082019050610c9c6000830184610c78565b92915050565b6000819050919050565b610cb581610ca2565b8114610cc057600080fd5b50565b600081359050610cd281610cac565b92915050565b600060208284031215610cee57610ced610be3565b5b6000610cfc84828501610cc3565b91505092915050565b600080fd5b600080fd5b6000601f19601f8301169050919050565b7f4e487b7100000000000000000000000000000000000000000000000000000000600052604160045260246000fd5b610d5882610d0f565b810181811067ffffffffffffffff82111715610d7757610d76610d20565b5b80604052505050565b6000610d8a610bd9565b9050610d968282610d4f565b919050565b600067ffffffffffffffff821115610db657610db5610d20565b5b610dbf82610d0f565b9050602081019050919050565b82818337600083830152505050565b6000610dee610de984610d9b565b610d80565b905082815260208101848484011115610e0a57610e09610d0a565b5b610e15848285610dcc565b509392505050565b600082601f830112610e3257610e31610d05565b5b8135610e42848260208601610ddb565b91505092915050565b60008060408385031215610e6257610e61610be3565b5b6000610e7085828601610c04565b925050602083013567ffffffffffffffff811115610e9157610e90610be8565b5b610e9d85828601610e1d565b9150509250929050565b600081519050919050565b600082825260208201905092915050565b6000819050602082019050919050565b610edc81610c66565b82525050565b6000610eee8383610ed3565b60208301905092915050565b6000602082019050919050565b6000610f1282610ea7565b610f1c8185610eb2565b9350610f2783610ec3565b8060005b83811015610f58578151610f3f8882610ee2565b9750610f4a83610efa565b925050600181019050610f2b565b5085935050505092915050565b600081519050919050565b600082825260208201905092915050565b6000819050602082019050919050565b610f9a81610ba5565b82525050565b6000610fac8383610f91565b60208301905092915050565b6000602082019050919050565b6000610fd082610f65565b610fda8185610f70565b9350610fe583610f81565b8060005b83811015611016578151610ffd8882610fa0565b975061100883610fb8565b925050600181019050610fe9565b5085935050505092915050565b6000604082019050818103600083015261103d8185610f07565b905081810360208301526110518184610fc5565b90509392505050565b61106381610c66565b811461106e57600080fd5b50565b6000813590506110808161105a565b92915050565b60006020828403121561109c5761109b610be3565b5b60006110aa84828501611071565b91505092915050565b60008115159050919050565b6110c8816110b3565b82525050565b60006060820190506110e360008301866110bf565b6110f06020830185610baf565b6110fd6040830184610baf565b949350505050565b61110e81610ca2565b82525050565b60006020820190506111296000830184611105565b92915050565b600082825260208201905092915050565b7f416c726561647920726567697374657265640000000000000000000000000000600082015250565b600061117660128361112f565b915061118182611140565b602082019050919050565b600060208201905081810360008301526111a581611169565b9050919050565b7f496e636f727265637420726567697374726174696f6e20666565000000000000600082015250565b60006111e2601a8361112f565b91506111ed826111ac565b602082019050919050565b60006020820190508181036000830152611211816111d5565b9050919050565b7f4f6e6c79206f776e65722063616e2063616c6c20746869732066756e6374696f60008201527f6e00000000000000000000000000000000000000000000000000000000000000602082015250565b600061127460218361112f565b915061127f82611218565b604082019050919050565b600060208201905081810360008301526112a381611267565b9050919050565b7f4e6f742072656769737465726564000000000000000000000000000000000000600082015250565b60006112e0600e8361112f565b91506112eb826112aa565b602082019050919050565b6000602082019050818103600083015261130f816112d3565b9050919050565b7f416c726561647920636c61696d65642074686973206c6576656c000000000000600082015250565b600061134c601a8361112f565b915061135782611316565b602082019050919050565b6000602082019050818103600083015261137b8161133f565b9050919050565b600081519050919050565b600081905092915050565b60005b838110156113b657808201518184015260208101905061139b565b60008484015250505050565b60006113cd82611382565b6113d7818561138d565b93506113e7818560208601611398565b80840191505092915050565b60006113ff82846113c2565b915081905092915050565b7f496e76616c696420736563726574000000000000000000000000000000000000600082015250565b6000611440600e8361112f565b915061144b8261140a565b602082019050919050565b6000602082019050818103600083015261146f81611433565b9050919050565b7f4e487b7100000000000000000000000000000000000000000000000000000000600052601160045260246000fd5b60006114b082610ba5565b91506114bb83610ba5565b92508282019050808211156114d3576114d2611476565b5b92915050565b60006040820190506114ee6000830185610baf565b6114fb6020830184610baf565b9392505050565b7f4e487b7100000000000000000000000000000000000000000000000000000000600052603260045260246000fdfea2646970667358221220dab683290c9ce9f670dc4461cd5d5a6b841b08dabb16893163b890dcd3d254e064736f6c63430008180033",
  "linkReferences": {},
  "deployedLinkReferences": {}
}