{
  "_format": "hh-sol-artifact-1",
  "contractName": "BankOfCelo",
  "sourceName": "contracts/BankOfCelo.sol",
  "abi": [
    {
      "inputs": [
        {
          "internalType": "uint256",
          "name": "_minVaultBalance",
          "type": "uint256"
        },
        {
          "internalType": "address",
          "name": "_devWallet",
          "type": "address"
        },
        {
          "internalType": "address",
          "name": "_gaslessOperator",
          "type": "address"
        }
      ],
      "stateMutability": "nonpayable",
      "type": "constructor"
    },
    {
      "inputs": [],
      "name": "ECDSAInvalidSignature",
      "type": "error"
    },
    {
      "inputs": [
        {
          "internalType": "uint256",
          "name": "length",
          "type": "uint256"
        }
      ],
      "name": "ECDSAInvalidSignatureLength",
      "type": "error"
    },
    {
      "inputs": [
        {
          "internalType": "bytes32",
          "name": "s",
          "type": "bytes32"
        }
      ],
      "name": "ECDSAInvalidSignatureS",
      "type": "error"
    },
    {
      "inputs": [],
      "name": "InvalidShortString",
      "type": "error"
    },
    {
      "inputs": [
        {
          "internalType": "address",
          "name": "owner",
          "type": "address"
        }
      ],
      "name": "OwnableInvalidOwner",
      "type": "error"
    },
    {
      "inputs": [
        {
          "internalType": "address",
          "name": "account",
          "type": "address"
        }
      ],
      "name": "OwnableUnauthorizedAccount",
      "type": "error"
    },
    {
      "inputs": [],
      "name": "ReentrancyGuardReentrantCall",
      "type": "error"
    },
    {
      "inputs": [
        {
          "internalType": "string",
          "name": "str",
          "type": "string"
        }
      ],
      "name": "StringTooLong",
      "type": "error"
    },
    {
      "anonymous": false,
      "inputs": [
        {
          "indexed": false,
          "internalType": "uint256[]",
          "name": "fids",
          "type": "uint256[]"
        },
        {
          "indexed": false,
          "internalType": "bool",
          "name": "isBlacklisted",
          "type": "bool"
        }
      ],
      "name": "BlacklistUpdated",
      "type": "event"
    },
    {
      "anonymous": false,
      "inputs": [
        {
          "indexed": true,
          "internalType": "address",
          "name": "recipient",
          "type": "address"
        },
        {
          "indexed": false,
          "internalType": "uint256",
          "name": "fid",
          "type": "uint256"
        },
        {
          "indexed": false,
          "internalType": "uint256",
          "name": "amount",
          "type": "uint256"
        }
      ],
      "name": "Claimed",
      "type": "event"
    },
    {
      "anonymous": false,
      "inputs": [
        {
          "indexed": true,
          "internalType": "address",
          "name": "donor",
          "type": "address"
        },
        {
          "indexed": false,
          "internalType": "uint256",
          "name": "amount",
          "type": "uint256"
        },
        {
          "indexed": false,
          "internalType": "uint256",
          "name": "devFee",
          "type": "uint256"
        }
      ],
      "name": "Donated",
      "type": "event"
    },
    {
      "anonymous": false,
      "inputs": [
        {
          "indexed": true,
          "internalType": "address",
          "name": "donor",
          "type": "address"
        },
        {
          "indexed": false,
          "internalType": "uint8",
          "name": "newTier",
          "type": "uint8"
        }
      ],
      "name": "DonorTierUpgraded",
      "type": "event"
    },
    {
      "anonymous": false,
      "inputs": [],
      "name": "EIP712DomainChanged",
      "type": "event"
    },
    {
      "anonymous": false,
      "inputs": [
        {
          "indexed": true,
          "internalType": "address",
          "name": "operator",
          "type": "address"
        },
        {
          "indexed": true,
          "internalType": "address",
          "name": "claimer",
          "type": "address"
        },
        {
          "indexed": false,
          "internalType": "uint256",
          "name": "fid",
          "type": "uint256"
        }
      ],
      "name": "GaslessClaimExecuted",
      "type": "event"
    },
    {
      "anonymous": false,
      "inputs": [
        {
          "indexed": true,
          "internalType": "address",
          "name": "donor",
          "type": "address"
        },
        {
          "indexed": false,
          "internalType": "uint256",
          "name": "amount",
          "type": "uint256"
        },
        {
          "indexed": false,
          "internalType": "uint256",
          "name": "position",
          "type": "uint256"
        }
      ],
      "name": "LeaderboardUpdated",
      "type": "event"
    },
    {
      "anonymous": false,
      "inputs": [
        {
          "indexed": true,
          "internalType": "address",
          "name": "previousOwner",
          "type": "address"
        },
        {
          "indexed": true,
          "internalType": "address",
          "name": "newOwner",
          "type": "address"
        }
      ],
      "name": "OwnershipTransferred",
      "type": "event"
    },
    {
      "inputs": [],
      "name": "DEV_FEE_PERCENT",
      "outputs": [
        {
          "internalType": "uint256",
          "name": "",
          "type": "uint256"
        }
      ],
      "stateMutability": "view",
      "type": "function"
    },
    {
      "inputs": [],
      "name": "LEADERBOARD_SIZE",
      "outputs": [
        {
          "internalType": "uint256",
          "name": "",
          "type": "uint256"
        }
      ],
      "stateMutability": "view",
      "type": "function"
    },
    {
      "inputs": [],
      "name": "MAX_CLAIM",
      "outputs": [
        {
          "internalType": "uint256",
          "name": "",
          "type": "uint256"
        }
      ],
      "stateMutability": "view",
      "type": "function"
    },
    {
      "inputs": [],
      "name": "TIER1_THRESHOLD",
      "outputs": [
        {
          "internalType": "uint256",
          "name": "",
          "type": "uint256"
        }
      ],
      "stateMutability": "view",
      "type": "function"
    },
    {
      "inputs": [],
      "name": "TIER2_THRESHOLD",
      "outputs": [
        {
          "internalType": "uint256",
          "name": "",
          "type": "uint256"
        }
      ],
      "stateMutability": "view",
      "type": "function"
    },
    {
      "inputs": [],
      "name": "TIER3_THRESHOLD",
      "outputs": [
        {
          "internalType": "uint256",
          "name": "",
          "type": "uint256"
        }
      ],
      "stateMutability": "view",
      "type": "function"
    },
    {
      "inputs": [
        {
          "internalType": "uint256",
          "name": "fid",
          "type": "uint256"
        },
        {
          "internalType": "uint256",
          "name": "deadline",
          "type": "uint256"
        },
        {
          "internalType": "bytes",
          "name": "signature",
          "type": "bytes"
        }
      ],
      "name": "claim",
      "outputs": [],
      "stateMutability": "nonpayable",
      "type": "function"
    },
    {
      "inputs": [],
      "name": "claimCooldown",
      "outputs": [
        {
          "internalType": "uint256",
          "name": "",
          "type": "uint256"
        }
      ],
      "stateMutability": "view",
      "type": "function"
    },
    {
      "inputs": [],
      "name": "devWallet",
      "outputs": [
        {
          "internalType": "address",
          "name": "",
          "type": "address"
        }
      ],
      "stateMutability": "view",
      "type": "function"
    },
    {
      "inputs": [],
      "name": "donate",
      "outputs": [],
      "stateMutability": "payable",
      "type": "function"
    },
    {
      "inputs": [
        {
          "internalType": "address",
          "name": "",
          "type": "address"
        }
      ],
      "name": "donors",
      "outputs": [
        {
          "internalType": "uint256",
          "name": "totalDonated",
          "type": "uint256"
        },
        {
          "internalType": "uint256",
          "name": "lastDonationTime",
          "type": "uint256"
        },
        {
          "internalType": "uint8",
          "name": "tier",
          "type": "uint8"
        },
        {
          "internalType": "bool",
          "name": "hasClaimed",
          "type": "bool"
        }
      ],
      "stateMutability": "view",
      "type": "function"
    },
    {
      "inputs": [],
      "name": "eip712Domain",
      "outputs": [
        {
          "internalType": "bytes1",
          "name": "fields",
          "type": "bytes1"
        },
        {
          "internalType": "string",
          "name": "name",
          "type": "string"
        },
        {
          "internalType": "string",
          "name": "version",
          "type": "string"
        },
        {
          "internalType": "uint256",
          "name": "chainId",
          "type": "uint256"
        },
        {
          "internalType": "address",
          "name": "verifyingContract",
          "type": "address"
        },
        {
          "internalType": "bytes32",
          "name": "salt",
          "type": "bytes32"
        },
        {
          "internalType": "uint256[]",
          "name": "extensions",
          "type": "uint256[]"
        }
      ],
      "stateMutability": "view",
      "type": "function"
    },
    {
      "inputs": [
        {
          "internalType": "address",
          "name": "claimer",
          "type": "address"
        },
        {
          "internalType": "uint256",
          "name": "fid",
          "type": "uint256"
        },
        {
          "internalType": "uint256",
          "name": "deadline",
          "type": "uint256"
        },
        {
          "internalType": "bytes",
          "name": "signature",
          "type": "bytes"
        }
      ],
      "name": "executeGaslessClaim",
      "outputs": [],
      "stateMutability": "nonpayable",
      "type": "function"
    },
    {
      "inputs": [
        {
          "internalType": "uint256",
          "name": "",
          "type": "uint256"
        }
      ],
      "name": "fidBlacklisted",
      "outputs": [
        {
          "internalType": "bool",
          "name": "",
          "type": "bool"
        }
      ],
      "stateMutability": "view",
      "type": "function"
    },
    {
      "inputs": [
        {
          "internalType": "uint256",
          "name": "",
          "type": "uint256"
        }
      ],
      "name": "fidClaimed",
      "outputs": [
        {
          "internalType": "bool",
          "name": "",
          "type": "bool"
        }
      ],
      "stateMutability": "view",
      "type": "function"
    },
    {
      "inputs": [],
      "name": "gaslessOperator",
      "outputs": [
        {
          "internalType": "address",
          "name": "",
          "type": "address"
        }
      ],
      "stateMutability": "view",
      "type": "function"
    },
    {
      "inputs": [],
      "name": "getBalanceWithAccessControl",
      "outputs": [
        {
          "internalType": "uint256",
          "name": "",
          "type": "uint256"
        }
      ],
      "stateMutability": "view",
      "type": "function"
    },
    {
      "inputs": [
        {
          "internalType": "address",
          "name": "donor",
          "type": "address"
        }
      ],
      "name": "getDonorRank",
      "outputs": [
        {
          "internalType": "uint256",
          "name": "",
          "type": "uint256"
        }
      ],
      "stateMutability": "view",
      "type": "function"
    },
    {
      "inputs": [
        {
          "internalType": "address",
          "name": "donor",
          "type": "address"
        }
      ],
      "name": "getDonorTier",
      "outputs": [
        {
          "internalType": "uint8",
          "name": "",
          "type": "uint8"
        }
      ],
      "stateMutability": "view",
      "type": "function"
    },
    {
      "inputs": [],
      "name": "getFormattedBalance",
      "outputs": [
        {
          "internalType": "string",
          "name": "",
          "type": "string"
        }
      ],
      "stateMutability": "view",
      "type": "function"
    },
    {
      "inputs": [],
      "name": "getLeaderboard",
      "outputs": [
        {
          "components": [
            {
              "internalType": "address",
              "name": "donor",
              "type": "address"
            },
            {
              "internalType": "uint256",
              "name": "amount",
              "type": "uint256"
            }
          ],
          "internalType": "struct BankOfCelo.LeaderboardEntry[]",
          "name": "",
          "type": "tuple[]"
        }
      ],
      "stateMutability": "view",
      "type": "function"
    },
    {
      "inputs": [
        {
          "internalType": "uint256",
          "name": "totalDonated",
          "type": "uint256"
        }
      ],
      "name": "getTier",
      "outputs": [
        {
          "internalType": "uint8",
          "name": "",
          "type": "uint8"
        }
      ],
      "stateMutability": "pure",
      "type": "function"
    },
    {
      "inputs": [],
      "name": "getVaultStatus",
      "outputs": [
        {
          "internalType": "uint256",
          "name": "currentBalance",
          "type": "uint256"
        },
        {
          "internalType": "uint256",
          "name": "minReserve",
          "type": "uint256"
        },
        {
          "internalType": "uint256",
          "name": "availableForClaims",
          "type": "uint256"
        }
      ],
      "stateMutability": "view",
      "type": "function"
    },
    {
      "inputs": [
        {
          "internalType": "address",
          "name": "",
          "type": "address"
        }
      ],
      "name": "lastClaimAt",
      "outputs": [
        {
          "internalType": "uint256",
          "name": "",
          "type": "uint256"
        }
      ],
      "stateMutability": "view",
      "type": "function"
    },
    {
      "inputs": [],
      "name": "lastPublishedBalance",
      "outputs": [
        {
          "internalType": "uint256",
          "name": "",
          "type": "uint256"
        }
      ],
      "stateMutability": "view",
      "type": "function"
    },
    {
      "inputs": [],
      "name": "lastPublishedTime",
      "outputs": [
        {
          "internalType": "uint256",
          "name": "",
          "type": "uint256"
        }
      ],
      "stateMutability": "view",
      "type": "function"
    },
    {
      "inputs": [
        {
          "internalType": "uint256",
          "name": "",
          "type": "uint256"
        }
      ],
      "name": "leaderboard",
      "outputs": [
        {
          "internalType": "address",
          "name": "donor",
          "type": "address"
        },
        {
          "internalType": "uint256",
          "name": "amount",
          "type": "uint256"
        }
      ],
      "stateMutability": "view",
      "type": "function"
    },
    {
      "inputs": [],
      "name": "minLeaderboardAmount",
      "outputs": [
        {
          "internalType": "uint256",
          "name": "",
          "type": "uint256"
        }
      ],
      "stateMutability": "view",
      "type": "function"
    },
    {
      "inputs": [],
      "name": "minVaultBalance",
      "outputs": [
        {
          "internalType": "uint256",
          "name": "",
          "type": "uint256"
        }
      ],
      "stateMutability": "view",
      "type": "function"
    },
    {
      "inputs": [
        {
          "internalType": "address",
          "name": "",
          "type": "address"
        }
      ],
      "name": "nonces",
      "outputs": [
        {
          "internalType": "uint256",
          "name": "",
          "type": "uint256"
        }
      ],
      "stateMutability": "view",
      "type": "function"
    },
    {
      "inputs": [],
      "name": "owner",
      "outputs": [
        {
          "internalType": "address",
          "name": "",
          "type": "address"
        }
      ],
      "stateMutability": "view",
      "type": "function"
    },
    {
      "inputs": [],
      "name": "publishBalance",
      "outputs": [],
      "stateMutability": "nonpayable",
      "type": "function"
    },
    {
      "inputs": [],
      "name": "renounceOwnership",
      "outputs": [],
      "stateMutability": "nonpayable",
      "type": "function"
    },
    {
      "inputs": [
        {
          "internalType": "uint256",
          "name": "seconds_",
          "type": "uint256"
        }
      ],
      "name": "setClaimCooldown",
      "outputs": [],
      "stateMutability": "nonpayable",
      "type": "function"
    },
    {
      "inputs": [
        {
          "internalType": "address payable",
          "name": "to",
          "type": "address"
        },
        {
          "internalType": "uint256",
          "name": "amount",
          "type": "uint256"
        }
      ],
      "name": "sweep",
      "outputs": [],
      "stateMutability": "nonpayable",
      "type": "function"
    },
    {
      "inputs": [
        {
          "internalType": "address",
          "name": "newOwner",
          "type": "address"
        }
      ],
      "name": "transferOwnership",
      "outputs": [],
      "stateMutability": "nonpayable",
      "type": "function"
    },
    {
      "inputs": [
        {
          "internalType": "uint256[]",
          "name": "fids",
          "type": "uint256[]"
        },
        {
          "internalType": "bool",
          "name": "isBlacklisted",
          "type": "bool"
        }
      ],
      "name": "updateBlacklist",
      "outputs": [],
      "stateMutability": "nonpayable",
      "type": "function"
    },
    {
      "stateMutability": "payable",
      "type": "receive"
    }
  ],
  "bytecode": "0x6101c06040526000600655600060d4553480156200001c57600080fd5b5060405162004e6238038062004e628339818101604052810190620000429190620005e2565b6040518060400160405280600a81526020017f42616e6b4f6643656c6f000000000000000000000000000000000000000000008152506040518060400160405280600181526020017f310000000000000000000000000000000000000000000000000000000000000081525033600073ffffffffffffffffffffffffffffffffffffffff168173ffffffffffffffffffffffffffffffffffffffff1603620001245760006040517f1e4fbdf70000000000000000000000000000000000000000000000000000000081526004016200011b91906200064f565b60405180910390fd5b62000135816200034d60201b60201c565b5060018081905550620001536002836200041160201b90919060201c565b6101208181525050620001716003826200041160201b90919060201c565b6101408181525050818051906020012060e08181525050808051906020012061010081815250504660a08181525050620001b06200046960201b60201c565b608081815250503073ffffffffffffffffffffffffffffffffffffffff1660c08173ffffffffffffffffffffffffffffffffffffffff16815250505050600073ffffffffffffffffffffffffffffffffffffffff168273ffffffffffffffffffffffffffffffffffffffff16036200025f576040517f08c379a00000000000000000000000000000000000000000000000000000000081526004016200025690620006cd565b60405180910390fd5b600073ffffffffffffffffffffffffffffffffffffffff168173ffffffffffffffffffffffffffffffffffffffff1603620002d1576040517f08c379a0000000000000000000000000000000000000000000000000000000008152600401620002c8906200073f565b60405180910390fd5b8261016081815250508173ffffffffffffffffffffffffffffffffffffffff166101808173ffffffffffffffffffffffffffffffffffffffff16815250508073ffffffffffffffffffffffffffffffffffffffff166101a08173ffffffffffffffffffffffffffffffffffffffff168152505050505062000c85565b60008060009054906101000a900473ffffffffffffffffffffffffffffffffffffffff169050816000806101000a81548173ffffffffffffffffffffffffffffffffffffffff021916908373ffffffffffffffffffffffffffffffffffffffff1602179055508173ffffffffffffffffffffffffffffffffffffffff168173ffffffffffffffffffffffffffffffffffffffff167f8be0079c531659141344cd1fd0a4f28419497f9722a3daafe3b4186f6b6457e060405160405180910390a35050565b600060208351101562000437576200042f83620004c660201b60201c565b905062000463565b8262000449836200053360201b60201c565b60000190816200045a9190620009d1565b5060ff60001b90505b92915050565b60007f8b73c3c69bb8fe3d512ecc4cf759cc79239f7b179b0ffacaa9a75d522b39400f60e051610100514630604051602001620004ab95949392919062000ae4565b60405160208183030381529060405280519060200120905090565b600080829050601f815111156200051657826040517f305a27a90000000000000000000000000000000000000000000000000000000081526004016200050d919062000bbf565b60405180910390fd5b805181620005249062000c15565b60001c1760001b915050919050565b6000819050919050565b600080fd5b6000819050919050565b620005578162000542565b81146200056357600080fd5b50565b60008151905062000577816200054c565b92915050565b600073ffffffffffffffffffffffffffffffffffffffff82169050919050565b6000620005aa826200057d565b9050919050565b620005bc816200059d565b8114620005c857600080fd5b50565b600081519050620005dc81620005b1565b92915050565b600080600060608486031215620005fe57620005fd6200053d565b5b60006200060e8682870162000566565b93505060206200062186828701620005cb565b92505060406200063486828701620005cb565b9150509250925092565b62000649816200059d565b82525050565b60006020820190506200066660008301846200063e565b92915050565b600082825260208201905092915050565b7f496e76616c6964206465762077616c6c65740000000000000000000000000000600082015250565b6000620006b56012836200066c565b9150620006c2826200067d565b602082019050919050565b60006020820190508181036000830152620006e881620006a6565b9050919050565b7f496e76616c6964206761736c657373206f70657261746f720000000000000000600082015250565b6000620007276018836200066c565b91506200073482620006ef565b602082019050919050565b600060208201905081810360008301526200075a8162000718565b9050919050565b600081519050919050565b7f4e487b7100000000000000000000000000000000000000000000000000000000600052604160045260246000fd5b7f4e487b7100000000000000000000000000000000000000000000000000000000600052602260045260246000fd5b60006002820490506001821680620007e357607f821691505b602082108103620007f957620007f86200079b565b5b50919050565b60008190508160005260206000209050919050565b60006020601f8301049050919050565b600082821b905092915050565b600060088302620008637fffffffffffffffffffffffffffffffffffffffffffffffffffffffffffffffff8262000824565b6200086f868362000824565b95508019841693508086168417925050509392505050565b6000819050919050565b6000620008b2620008ac620008a68462000542565b62000887565b62000542565b9050919050565b6000819050919050565b620008ce8362000891565b620008e6620008dd82620008b9565b84845462000831565b825550505050565b600090565b620008fd620008ee565b6200090a818484620008c3565b505050565b5b81811015620009325762000926600082620008f3565b60018101905062000910565b5050565b601f82111562000981576200094b81620007ff565b620009568462000814565b8101602085101562000966578190505b6200097e620009758562000814565b8301826200090f565b50505b505050565b600082821c905092915050565b6000620009a66000198460080262000986565b1980831691505092915050565b6000620009c1838362000993565b9150826002028217905092915050565b620009dc8262000761565b67ffffffffffffffff811115620009f857620009f76200076c565b5b62000a048254620007ca565b62000a1182828562000936565b600060209050601f83116001811462000a49576000841562000a34578287015190505b62000a408582620009b3565b86555062000ab0565b601f19841662000a5986620007ff565b60005b8281101562000a835784890151825560018201915060208501945060208101905062000a5c565b8683101562000aa3578489015162000a9f601f89168262000993565b8355505b6001600288020188555050505b505050505050565b6000819050919050565b62000acd8162000ab8565b82525050565b62000ade8162000542565b82525050565b600060a08201905062000afb600083018862000ac2565b62000b0a602083018762000ac2565b62000b19604083018662000ac2565b62000b28606083018562000ad3565b62000b3760808301846200063e565b9695505050505050565b60005b8381101562000b6157808201518184015260208101905062000b44565b60008484015250505050565b6000601f19601f8301169050919050565b600062000b8b8262000761565b62000b9781856200066c565b935062000ba981856020860162000b41565b62000bb48162000b6d565b840191505092915050565b6000602082019050818103600083015262000bdb818462000b7e565b905092915050565b600081519050919050565b6000819050602082019050919050565b600062000c0c825162000ab8565b80915050919050565b600062000c228262000be3565b8262000c2e8462000bee565b905062000c3b8162000bfe565b9250602082101562000c7e5762000c797fffffffffffffffffffffffffffffffffffffffffffffffffffffffffffffffff8360200360080262000824565b831692505b5050919050565b60805160a05160c05160e05161010051610120516101405161016051610180516101a05161413062000d326000396000818161122e0152818161147d01526122760152600081816102d30152818161155e0152611851015260008181610d6c015281816110f30152818161158a0152611e16015260006124440152600061240901526000612a3901526000612a18015260006126cb015260006127210152600061274a01526141306000f3fe60806040526004361061021e5760003560e01c8063737f45ec11610123578063aede67ea116100ab578063ee34b1b91161006f578063ee34b1b9146109af578063f2fde38b146109da578063f3cacef514610a03578063f7d870c514610a1a578063fdea365714610a57576103ed565b8063aede67ea146108bd578063bf368399146108ea578063ca0cdea814610928578063d993d82614610968578063ed88c68e146109a5576103ed565b806384b0196e116100f257806384b0196e146107e25780638572e202146108135780638da5cb5b1461083c5780638e5572c0146108675780638ea5220f14610892576103ed565b8063737f45ec146107005780637ecebe001461072b5780637f0ada3e1461076857806380e1396d146107a5576103ed565b80634f062c5a116101a65780635eddd157116101755780635eddd15714610641578063642ce3551461066a5780636d763a6e146106955780636ea056a9146106c0578063715018a6146106e9576103ed565b80634f062c5a146105855780634f085f42146105c257806359c9eb90146105ed5780635e6a645e14610616576103ed565b80631483255e116101ed5780631483255e146104b05780632ca9d584146104db5780632ee4120e146105065780633eb8edf11461052f57806342dfac721461055a576103ed565b806301b65b71146103f257806303822d3b1461041d578063086d2c871461045a578063111d3f6b14610485576103ed565b366103ed5760006064600a346102349190612c36565b61023e9190612ca7565b90506000813461024e9190612cd8565b90506000600760003373ffffffffffffffffffffffffffffffffffffffff1673ffffffffffffffffffffffffffffffffffffffff1681526020019081526020016000209050818160000160008282546102a79190612d0c565b9250508190555042816001018190555060008211156102cf576102ce338260000154610a82565b5b60007f000000000000000000000000000000000000000000000000000000000000000073ffffffffffffffffffffffffffffffffffffffff168460405161031590612d71565b60006040518083038185875af1925050503d8060008114610352576040519150601f19603f3d011682016040523d82523d6000602084013e610357565b606091505b505090508061039b576040517f08c379a000000000000000000000000000000000000000000000000000000000815260040161039290612de3565b60405180910390fd5b3373ffffffffffffffffffffffffffffffffffffffff167f4928895ba6723e8e27b15f32e4c3054a1b6c7f8c03f133558d6fa42b3928d14c84866040516103e3929190612e12565b60405180910390a2005b600080fd5b3480156103fe57600080fd5b50610407610d2d565b6040516104149190612e3b565b60405180910390f35b34801561042957600080fd5b50610444600480360381019061043f9190612ec8565b610d39565b6040516104519190612e3b565b60405180910390f35b34801561046657600080fd5b5061046f610d51565b60405161047c9190612e3b565b60405180910390f35b34801561049157600080fd5b5061049a610d5e565b6040516104a79190612e3b565b60405180910390f35b3480156104bc57600080fd5b506104c5610d64565b6040516104d29190612e3b565b60405180910390f35b3480156104e757600080fd5b506104f0610d6a565b6040516104fd9190612e3b565b60405180910390f35b34801561051257600080fd5b5061052d60048036038101906105289190612f92565b610d8e565b005b34801561053b57600080fd5b50610544610e36565b6040516105519190613071565b60405180910390f35b34801561056657600080fd5b5061056f610f0e565b60405161057c9190612e3b565b60405180910390f35b34801561059157600080fd5b506105ac60048036038101906105a791906130bf565b610f1b565b6040516105b99190613108565b60405180910390f35b3480156105ce57600080fd5b506105d7610f71565b6040516105e49190612e3b565b60405180910390f35b3480156105f957600080fd5b50610614600480360381019061060f91906130bf565b610f76565b005b34801561062257600080fd5b5061062b610f88565b6040516106389190612e3b565b60405180910390f35b34801561064d57600080fd5b5061066860048036038101906106639190613253565b610f8d565b005b34801561067657600080fd5b5061067f610fb8565b60405161068c9190612e3b565b60405180910390f35b3480156106a157600080fd5b506106aa610fc4565b6040516106b791906133be565b60405180910390f35b3480156106cc57600080fd5b506106e760048036038101906106e2919061341e565b6110e1565b005b3480156106f557600080fd5b506106fe611218565b005b34801561070c57600080fd5b5061071561122c565b604051610722919061346d565b60405180910390f35b34801561073757600080fd5b50610752600480360381019061074d9190612ec8565b611250565b60405161075f9190612e3b565b60405180910390f35b34801561077457600080fd5b5061078f600480360381019061078a91906130bf565b611268565b60405161079c9190613497565b60405180910390f35b3480156107b157600080fd5b506107cc60048036038101906107c79190612ec8565b611288565b6040516107d99190612e3b565b60405180910390f35b3480156107ee57600080fd5b506107f76113c9565b60405161080a97969594939291906135b5565b60405180910390f35b34801561081f57600080fd5b5061083a60048036038101906108359190613639565b611473565b005b34801561084857600080fd5b5061085161152d565b60405161085e919061346d565b60405180910390f35b34801561087357600080fd5b5061087c611556565b6040516108899190612e3b565b60405180910390f35b34801561089e57600080fd5b506108a761155c565b6040516108b4919061346d565b60405180910390f35b3480156108c957600080fd5b506108d2611580565b6040516108e1939291906136bc565b60405180910390f35b3480156108f657600080fd5b50610911600480360381019061090c91906130bf565b6115cd565b60405161091f9291906136f3565b60405180910390f35b34801561093457600080fd5b5061094f600480360381019061094a9190612ec8565b611617565b60405161095f949392919061371c565b60405180910390f35b34801561097457600080fd5b5061098f600480360381019061098a9190612ec8565b611661565b60405161099c9190613108565b60405180910390f35b6109ad6116ba565b005b3480156109bb57600080fd5b506109c4611978565b6040516109d19190612e3b565b60405180910390f35b3480156109e657600080fd5b50610a0160048036038101906109fc9190612ec8565b611a0c565b005b348015610a0f57600080fd5b50610a18611a92565b005b348015610a2657600080fd5b50610a416004803603810190610a3c91906130bf565b611abe565b604051610a4e9190613497565b60405180910390f35b348015610a6357600080fd5b50610a6c611ade565b604051610a799190612e3b565b60405180910390f35b60d45481108015610abb575080600c60016064610a9f9190612cd8565b60648110610ab057610aaf613761565b5b600202016001015410155b610d295760007fffffffffffffffffffffffffffffffffffffffffffffffffffffffffffffffff905060005b6064811015610b2857600c8160648110610b0457610b03613761565b5b6002020160010154831115610b1b57809150610b28565b8080600101915050610ae7565b5060008112610d2757600060016064610b419190612cd8565b90505b81811115610c0f57600c600182610b5b9190612cd8565b60648110610b6c57610b6b613761565b5b60020201600c8260648110610b8457610b83613761565b5b600202016000820160009054906101000a900473ffffffffffffffffffffffffffffffffffffffff168160000160006101000a81548173ffffffffffffffffffffffffffffffffffffffff021916908373ffffffffffffffffffffffffffffffffffffffff160217905550600182015481600101559050508080610c0790613790565b915050610b44565b5060405180604001604052808473ffffffffffffffffffffffffffffffffffffffff16815260200183815250600c8260648110610c4f57610c4e613761565b5b6002020160008201518160000160006101000a81548173ffffffffffffffffffffffffffffffffffffffff021916908373ffffffffffffffffffffffffffffffffffffffff16021790555060208201518160010155905050600c60016064610cb79190612cd8565b60648110610cc857610cc7613761565b5b600202016001015460d4819055508273ffffffffffffffffffffffffffffffffffffffff167f5c874adf9d1c93ab636130bb7e727993f1d6a3d33d1ffd925556815d0eec23088383604051610d1e929190612e12565b60405180910390a25b505b5050565b6706f05b59d3b2000081565b600a6020528060005260406000206000915090505481565b6802b5e3af16b188000081565b60045481565b60055481565b7f000000000000000000000000000000000000000000000000000000000000000081565b610d96611ae4565b60005b83839050811015610df5578160096000868685818110610dbc57610dbb613761565b5b90506020020135815260200190815260200160002060006101000a81548160ff0219169083151502179055508080600101915050610d99565b507fd96fb5d90b3a668bd44562db58d63b28ecbb0ad725089b91009fd6d67dd57852838383604051610e2993929190613823565b60405180910390a1505050565b606060004790506000670de0b6b3a764000082610e539190612ca7565b90506000662386f26fc10000670de0b6b3a764000084610e739190613855565b610e7d9190612ca7565b9050610e8882611b6b565b600a8210610ea55760405180602001604052806000815250610edc565b6040518060400160405280600181526020017f30000000000000000000000000000000000000000000000000000000000000008152505b610ee583611b6b565b604051602001610ef79392919061395a565b604051602081830303815290604052935050505090565b68056bc75e2d6310000081565b600068056bc75e2d631000008210610f365760039050610f6c565b6802b5e3af16b18800008210610f4f5760029050610f6c565b678ac7230489e800008210610f675760019050610f6c565b600090505b919050565b606481565b610f7e611ae4565b8060068190555050565b600a81565b610f95611c39565b610fa133848484611c7f565b610fab3384612098565b610fb3612333565b505050565b678ac7230489e8000081565b60606000606467ffffffffffffffff811115610fe357610fe2613128565b5b60405190808252806020026020018201604052801561101c57816020015b611009612bcd565b8152602001906001900390816110015790505b50905060005b60648110156110d957600c816064811061103f5761103e613761565b5b600202016040518060400160405290816000820160009054906101000a900473ffffffffffffffffffffffffffffffffffffffff1673ffffffffffffffffffffffffffffffffffffffff1673ffffffffffffffffffffffffffffffffffffffff1681526020016001820154815250508282815181106110c1576110c0613761565b5b60200260200101819052508080600101915050611022565b508091505090565b6110e9611ae4565b6110f1611c39565b7f0000000000000000000000000000000000000000000000000000000000000000814761111e9190612cd8565b101561115f576040517f08c379a0000000000000000000000000000000000000000000000000000000008152600401611156906139ed565b60405180910390fd5b60008273ffffffffffffffffffffffffffffffffffffffff168260405161118590612d71565b60006040518083038185875af1925050503d80600081146111c2576040519150601f19603f3d011682016040523d82523d6000602084013e6111c7565b606091505b505090508061120b576040517f08c379a000000000000000000000000000000000000000000000000000000000815260040161120290613a59565b60405180910390fd5b50611214612333565b5050565b611220611ae4565b61122a600061233c565b565b7f000000000000000000000000000000000000000000000000000000000000000081565b600b6020528060005260406000206000915090505481565b60086020528060005260406000206000915054906101000a900460ff1681565b600080600760008473ffffffffffffffffffffffffffffffffffffffff1673ffffffffffffffffffffffffffffffffffffffff16815260200190815260200160002060000154905060008103611301577fffffffffffffffffffffffffffffffffffffffffffffffffffffffffffffffff9150506113c4565b60005b606481101561139e578373ffffffffffffffffffffffffffffffffffffffff16600c826064811061133857611337613761565b5b6002020160000160009054906101000a900473ffffffffffffffffffffffffffffffffffffffff1673ffffffffffffffffffffffffffffffffffffffff1603611391576001816113889190612d0c565b925050506113c4565b8080600101915050611304565b507fffffffffffffffffffffffffffffffffffffffffffffffffffffffffffffffff9150505b919050565b6000606080600080600060606113dd612400565b6113e561243b565b46306000801b600067ffffffffffffffff81111561140657611405613128565b5b6040519080825280602002602001820160405280156114345781602001602082028036833780820191505090505b507f0f00000000000000000000000000000000000000000000000000000000000000959493929190965096509650965096509650965090919293949596565b61147b611c39565b7f000000000000000000000000000000000000000000000000000000000000000073ffffffffffffffffffffffffffffffffffffffff163373ffffffffffffffffffffffffffffffffffffffff1614611509576040517f08c379a000000000000000000000000000000000000000000000000000000000815260040161150090613ac5565b60405180910390fd5b61151584848484611c7f565b61151f8484612098565b611527612333565b50505050565b60008060009054906101000a900473ffffffffffffffffffffffffffffffffffffffff16905090565b60d45481565b7f000000000000000000000000000000000000000000000000000000000000000081565b60008060004792507f000000000000000000000000000000000000000000000000000000000000000091508183116115b95760006115c6565b81836115c59190612cd8565b5b9050909192565b600c81606481106115dd57600080fd5b600202016000915090508060000160009054906101000a900473ffffffffffffffffffffffffffffffffffffffff16908060010154905082565b60076020528060005260406000206000915090508060000154908060010154908060020160009054906101000a900460ff16908060020160019054906101000a900460ff16905084565b6000600760008373ffffffffffffffffffffffffffffffffffffffff1673ffffffffffffffffffffffffffffffffffffffff16815260200190815260200160002060020160009054906101000a900460ff169050919050565b6116c2611c39565b60003411611705576040517f08c379a00000000000000000000000000000000000000000000000000000000081526004016116fc90613b31565b60405180910390fd5b60006064600a346117169190612c36565b6117209190612ca7565b9050600081346117309190612cd8565b90506000600760003373ffffffffffffffffffffffffffffffffffffffff1673ffffffffffffffffffffffffffffffffffffffff1681526020019081526020016000209050818160000160008282546117899190612d0c565b9250508190555042816001018190555060008211156117b1576117b0338260000154610a82565b5b60006117c08260000154610f1b565b90508160020160009054906101000a900460ff1660ff168160ff16111561184d57808260020160006101000a81548160ff021916908360ff1602179055503373ffffffffffffffffffffffffffffffffffffffff167f246b818ff1a781a9edc2a72cdccb95bb6bbbf3387e8f6934fd5a48b17ccb1c35826040516118449190613108565b60405180910390a25b60007f000000000000000000000000000000000000000000000000000000000000000073ffffffffffffffffffffffffffffffffffffffff168560405161189390612d71565b60006040518083038185875af1925050503d80600081146118d0576040519150601f19603f3d011682016040523d82523d6000602084013e6118d5565b606091505b5050905080611919576040517f08c379a000000000000000000000000000000000000000000000000000000000815260040161191090612de3565b60405180910390fd5b3373ffffffffffffffffffffffffffffffffffffffff167f4928895ba6723e8e27b15f32e4c3054a1b6c7f8c03f133558d6fa42b3928d14c8587604051611961929190612e12565b60405180910390a25050505050611976612333565b565b600067016345785d8a0000600760003373ffffffffffffffffffffffffffffffffffffffff1673ffffffffffffffffffffffffffffffffffffffff1681526020019081526020016000206000015411611a06576040517f08c379a00000000000000000000000000000000000000000000000000000000081526004016119fd90613b9d565b60405180910390fd5b47905090565b611a14611ae4565b600073ffffffffffffffffffffffffffffffffffffffff168173ffffffffffffffffffffffffffffffffffffffff1603611a865760006040517f1e4fbdf7000000000000000000000000000000000000000000000000000000008152600401611a7d919061346d565b60405180910390fd5b611a8f8161233c565b50565b62015180600554611aa39190612d0c565b4211611aae57600080fd5b4760048190555042600581905550565b60096020528060005260406000206000915054906101000a900460ff1681565b60065481565b611aec612476565b73ffffffffffffffffffffffffffffffffffffffff16611b0a61152d565b73ffffffffffffffffffffffffffffffffffffffff1614611b6957611b2d612476565b6040517f118cdaa7000000000000000000000000000000000000000000000000000000008152600401611b60919061346d565b60405180910390fd5b565b606060006001611b7a8461247e565b01905060008167ffffffffffffffff811115611b9957611b98613128565b5b6040519080825280601f01601f191660200182016040528015611bcb5781602001600182028036833780820191505090505b509050600082602001820190505b600115611c2e578080600190039150507f3031323334353637383961626364656600000000000000000000000000000000600a86061a8153600a8581611c2257611c21612c78565b5b04945060008503611bd9575b819350505050919050565b600260015403611c75576040517f3ee5aeb500000000000000000000000000000000000000000000000000000000815260040160405180910390fd5b6002600181905550565b81421115611cc2576040517f08c379a0000000000000000000000000000000000000000000000000000000008152600401611cb990613c09565b60405180910390fd5b600760008573ffffffffffffffffffffffffffffffffffffffff1673ffffffffffffffffffffffffffffffffffffffff16815260200190815260200160002060020160019054906101000a900460ff1615611d52576040517f08c379a0000000000000000000000000000000000000000000000000000000008152600401611d4990613c75565b60405180910390fd5b6008600084815260200190815260200160002060009054906101000a900460ff1615611db3576040517f08c379a0000000000000000000000000000000000000000000000000000000008152600401611daa90613ce1565b60405180910390fd5b6009600084815260200190815260200160002060009054906101000a900460ff1615611e14576040517f08c379a0000000000000000000000000000000000000000000000000000000008152600401611e0b90613d4d565b60405180910390fd5b7f00000000000000000000000000000000000000000000000000000000000000006706f05b59d3b20000611e489190612d0c565b471015611e8a576040517f08c379a0000000000000000000000000000000000000000000000000000000008152600401611e8190613db9565b60405180910390fd5b60006006541115611f2557600654600a60008673ffffffffffffffffffffffffffffffffffffffff1673ffffffffffffffffffffffffffffffffffffffff16815260200190815260200160002054611ee29190612d0c565b421015611f24576040517f08c379a0000000000000000000000000000000000000000000000000000000008152600401611f1b90613e25565b60405180910390fd5b5b6000611fbd7f62b510b4113a64c69505314216e25e7cdc298ecdaaf15de379841a1c2890f7f7868686600b60008b73ffffffffffffffffffffffffffffffffffffffff1673ffffffffffffffffffffffffffffffffffffffff16815260200190815260200160002054604051602001611fa2959493929190613e45565b604051602081830303815290604052805190602001206125d1565b90506000611fcb82846125eb565b90508573ffffffffffffffffffffffffffffffffffffffff168173ffffffffffffffffffffffffffffffffffffffff161461203b576040517f08c379a000000000000000000000000000000000000000000000000000000000815260040161203290613ee4565b60405180910390fd5b600b60008773ffffffffffffffffffffffffffffffffffffffff1673ffffffffffffffffffffffffffffffffffffffff168152602001908152602001600020600081548092919061208b90613f04565b9190505550505050505050565b6000600760008473ffffffffffffffffffffffffffffffffffffffff1673ffffffffffffffffffffffffffffffffffffffff168152602001908152602001600020905060018160020160016101000a81548160ff02191690831515021790555060016008600084815260200190815260200160002060006101000a81548160ff02191690831515021790555042600a60008573ffffffffffffffffffffffffffffffffffffffff1673ffffffffffffffffffffffffffffffffffffffff1681526020019081526020016000208190555060008373ffffffffffffffffffffffffffffffffffffffff166706f05b59d3b2000060405161219690612d71565b60006040518083038185875af1925050503d80600081146121d3576040519150601f19603f3d011682016040523d82523d6000602084013e6121d8565b606091505b505090508061221c576040517f08c379a000000000000000000000000000000000000000000000000000000000815260040161221390613f98565b60405180910390fd5b8373ffffffffffffffffffffffffffffffffffffffff167f987d620f307ff6b94d58743cb7a7509f24071586a77759b77c2d4e29f75a2f9a846706f05b59d3b2000060405161226c929190612e12565b60405180910390a27f000000000000000000000000000000000000000000000000000000000000000073ffffffffffffffffffffffffffffffffffffffff163373ffffffffffffffffffffffffffffffffffffffff160361232d578373ffffffffffffffffffffffffffffffffffffffff163373ffffffffffffffffffffffffffffffffffffffff167f4e3de3789cdf6d2ee15c144e9c612fa3a0adcfccdd20a144dc9b1b2a1954d2ae856040516123249190612e3b565b60405180910390a35b50505050565b60018081905550565b60008060009054906101000a900473ffffffffffffffffffffffffffffffffffffffff169050816000806101000a81548173ffffffffffffffffffffffffffffffffffffffff021916908373ffffffffffffffffffffffffffffffffffffffff1602179055508173ffffffffffffffffffffffffffffffffffffffff168173ffffffffffffffffffffffffffffffffffffffff167f8be0079c531659141344cd1fd0a4f28419497f9722a3daafe3b4186f6b6457e060405160405180910390a35050565b606061243660027f000000000000000000000000000000000000000000000000000000000000000061261790919063ffffffff16565b905090565b606061247160037f000000000000000000000000000000000000000000000000000000000000000061261790919063ffffffff16565b905090565b600033905090565b600080600090507a184f03e93ff9f4daa797ed6e38ed64bf6a1f01000000000000000083106124dc577a184f03e93ff9f4daa797ed6e38ed64bf6a1f01000000000000000083816124d2576124d1612c78565b5b0492506040810190505b6d04ee2d6d415b85acef81000000008310612519576d04ee2d6d415b85acef8100000000838161250f5761250e612c78565b5b0492506020810190505b662386f26fc10000831061254857662386f26fc10000838161253e5761253d612c78565b5b0492506010810190505b6305f5e1008310612571576305f5e100838161256757612566612c78565b5b0492506008810190505b612710831061259657612710838161258c5761258b612c78565b5b0492506004810190505b606483106125b957606483816125af576125ae612c78565b5b0492506002810190505b600a83106125c8576001810190505b80915050919050565b60006125e46125de6126c7565b8361277e565b9050919050565b6000806000806125fb86866127bf565b92509250925061260b828261281b565b82935050505092915050565b606060ff60001b83146126345761262d8361297f565b90506126c1565b81805461264090613fe7565b80601f016020809104026020016040519081016040528092919081815260200182805461266c90613fe7565b80156126b95780601f1061268e576101008083540402835291602001916126b9565b820191906000526020600020905b81548152906001019060200180831161269c57829003601f168201915b505050505090505b92915050565b60007f000000000000000000000000000000000000000000000000000000000000000073ffffffffffffffffffffffffffffffffffffffff163073ffffffffffffffffffffffffffffffffffffffff1614801561274357507f000000000000000000000000000000000000000000000000000000000000000046145b15612770577f0000000000000000000000000000000000000000000000000000000000000000905061277b565b6127786129f3565b90505b90565b60006040517f190100000000000000000000000000000000000000000000000000000000000081528360028201528260228201526042812091505092915050565b600080600060418451036128045760008060006020870151925060408701519150606087015160001a90506127f688828585612a89565b955095509550505050612814565b60006002855160001b9250925092505b9250925092565b6000600381111561282f5761282e614018565b5b82600381111561284257612841614018565b5b031561297b576001600381111561285c5761285b614018565b5b82600381111561286f5761286e614018565b5b036128a6576040517ff645eedf00000000000000000000000000000000000000000000000000000000815260040160405180910390fd5b600260038111156128ba576128b9614018565b5b8260038111156128cd576128cc614018565b5b03612912578060001c6040517ffce698f70000000000000000000000000000000000000000000000000000000081526004016129099190612e3b565b60405180910390fd5b60038081111561292557612924614018565b5b82600381111561293857612937614018565b5b0361297a57806040517fd78bce0c0000000000000000000000000000000000000000000000000000000081526004016129719190614047565b60405180910390fd5b5b5050565b6060600061298c83612b7d565b90506000602067ffffffffffffffff8111156129ab576129aa613128565b5b6040519080825280601f01601f1916602001820160405280156129dd5781602001600182028036833780820191505090505b5090508181528360208201528092505050919050565b60007f8b73c3c69bb8fe3d512ecc4cf759cc79239f7b179b0ffacaa9a75d522b39400f7f00000000000000000000000000000000000000000000000000000000000000007f00000000000000000000000000000000000000000000000000000000000000004630604051602001612a6e959493929190614062565b60405160208183030381529060405280519060200120905090565b60008060007f7fffffffffffffffffffffffffffffff5d576e7357a4501ddfe92f46681b20a08460001c1115612ac9576000600385925092509250612b73565b600060018888888860405160008152602001604052604051612aee94939291906140b5565b6020604051602081039080840390855afa158015612b10573d6000803e3d6000fd5b505050602060405103519050600073ffffffffffffffffffffffffffffffffffffffff168173ffffffffffffffffffffffffffffffffffffffff1603612b6457600060016000801b93509350935050612b73565b8060008060001b935093509350505b9450945094915050565b60008060ff8360001c169050601f811115612bc4576040517fb3512b0c00000000000000000000000000000000000000000000000000000000815260040160405180910390fd5b80915050919050565b6040518060400160405280600073ffffffffffffffffffffffffffffffffffffffff168152602001600081525090565b6000819050919050565b7f4e487b7100000000000000000000000000000000000000000000000000000000600052601160045260246000fd5b6000612c4182612bfd565b9150612c4c83612bfd565b9250828202612c5a81612bfd565b91508282048414831517612c7157612c70612c07565b5b5092915050565b7f4e487b7100000000000000000000000000000000000000000000000000000000600052601260045260246000fd5b6000612cb282612bfd565b9150612cbd83612bfd565b925082612ccd57612ccc612c78565b5b828204905092915050565b6000612ce382612bfd565b9150612cee83612bfd565b9250828203905081811115612d0657612d05612c07565b5b92915050565b6000612d1782612bfd565b9150612d2283612bfd565b9250828201905080821115612d3a57612d39612c07565b5b92915050565b600081905092915050565b50565b6000612d5b600083612d40565b9150612d6682612d4b565b600082019050919050565b6000612d7c82612d4e565b9150819050919050565b600082825260208201905092915050565b7f44657620666565207472616e73666572206661696c6564000000000000000000600082015250565b6000612dcd601783612d86565b9150612dd882612d97565b602082019050919050565b60006020820190508181036000830152612dfc81612dc0565b9050919050565b612e0c81612bfd565b82525050565b6000604082019050612e276000830185612e03565b612e346020830184612e03565b9392505050565b6000602082019050612e506000830184612e03565b92915050565b6000604051905090565b600080fd5b600080fd5b600073ffffffffffffffffffffffffffffffffffffffff82169050919050565b6000612e9582612e6a565b9050919050565b612ea581612e8a565b8114612eb057600080fd5b50565b600081359050612ec281612e9c565b92915050565b600060208284031215612ede57612edd612e60565b5b6000612eec84828501612eb3565b91505092915050565b600080fd5b600080fd5b600080fd5b60008083601f840112612f1a57612f19612ef5565b5b8235905067ffffffffffffffff811115612f3757612f36612efa565b5b602083019150836020820283011115612f5357612f52612eff565b5b9250929050565b60008115159050919050565b612f6f81612f5a565b8114612f7a57600080fd5b50565b600081359050612f8c81612f66565b92915050565b600080600060408486031215612fab57612faa612e60565b5b600084013567ffffffffffffffff811115612fc957612fc8612e65565b5b612fd586828701612f04565b93509350506020612fe886828701612f7d565b9150509250925092565b600081519050919050565b60005b8381101561301b578082015181840152602081019050613000565b60008484015250505050565b6000601f19601f8301169050919050565b600061304382612ff2565b61304d8185612d86565b935061305d818560208601612ffd565b61306681613027565b840191505092915050565b6000602082019050818103600083015261308b8184613038565b905092915050565b61309c81612bfd565b81146130a757600080fd5b50565b6000813590506130b981613093565b92915050565b6000602082840312156130d5576130d4612e60565b5b60006130e3848285016130aa565b91505092915050565b600060ff82169050919050565b613102816130ec565b82525050565b600060208201905061311d60008301846130f9565b92915050565b600080fd5b7f4e487b7100000000000000000000000000000000000000000000000000000000600052604160045260246000fd5b61316082613027565b810181811067ffffffffffffffff8211171561317f5761317e613128565b5b80604052505050565b6000613192612e56565b905061319e8282613157565b919050565b600067ffffffffffffffff8211156131be576131bd613128565b5b6131c782613027565b9050602081019050919050565b82818337600083830152505050565b60006131f66131f1846131a3565b613188565b90508281526020810184848401111561321257613211613123565b5b61321d8482856131d4565b509392505050565b600082601f83011261323a57613239612ef5565b5b813561324a8482602086016131e3565b91505092915050565b60008060006060848603121561326c5761326b612e60565b5b600061327a868287016130aa565b935050602061328b868287016130aa565b925050604084013567ffffffffffffffff8111156132ac576132ab612e65565b5b6132b886828701613225565b9150509250925092565b600081519050919050565b600082825260208201905092915050565b6000819050602082019050919050565b6132f781612e8a565b82525050565b61330681612bfd565b82525050565b60408201600082015161332260008501826132ee565b50602082015161333560208501826132fd565b50505050565b6000613347838361330c565b60408301905092915050565b6000602082019050919050565b600061336b826132c2565b61337581856132cd565b9350613380836132de565b8060005b838110156133b1578151613398888261333b565b97506133a383613353565b925050600181019050613384565b5085935050505092915050565b600060208201905081810360008301526133d88184613360565b905092915050565b60006133eb82612e6a565b9050919050565b6133fb816133e0565b811461340657600080fd5b50565b600081359050613418816133f2565b92915050565b6000806040838503121561343557613434612e60565b5b600061344385828601613409565b9250506020613454858286016130aa565b9150509250929050565b61346781612e8a565b82525050565b6000602082019050613482600083018461345e565b92915050565b61349181612f5a565b82525050565b60006020820190506134ac6000830184613488565b92915050565b60007fff0000000000000000000000000000000000000000000000000000000000000082169050919050565b6134e7816134b2565b82525050565b6000819050919050565b613500816134ed565b82525050565b600081519050919050565b600082825260208201905092915050565b6000819050602082019050919050565b600061353e83836132fd565b60208301905092915050565b6000602082019050919050565b600061356282613506565b61356c8185613511565b935061357783613522565b8060005b838110156135a857815161358f8882613532565b975061359a8361354a565b92505060018101905061357b565b5085935050505092915050565b600060e0820190506135ca600083018a6134de565b81810360208301526135dc8189613038565b905081810360408301526135f08188613038565b90506135ff6060830187612e03565b61360c608083018661345e565b61361960a08301856134f7565b81810360c083015261362b8184613557565b905098975050505050505050565b6000806000806080858703121561365357613652612e60565b5b600061366187828801612eb3565b9450506020613672878288016130aa565b9350506040613683878288016130aa565b925050606085013567ffffffffffffffff8111156136a4576136a3612e65565b5b6136b087828801613225565b91505092959194509250565b60006060820190506136d16000830186612e03565b6136de6020830185612e03565b6136eb6040830184612e03565b949350505050565b6000604082019050613708600083018561345e565b6137156020830184612e03565b9392505050565b60006080820190506137316000830187612e03565b61373e6020830186612e03565b61374b60408301856130f9565b6137586060830184613488565b95945050505050565b7f4e487b7100000000000000000000000000000000000000000000000000000000600052603260045260246000fd5b600061379b82612bfd565b9150600082036137ae576137ad612c07565b5b600182039050919050565b600080fd5b82818337505050565b60006137d38385613511565b93507f07ffffffffffffffffffffffffffffffffffffffffffffffffffffffffffffff831115613806576138056137b9565b5b6020830292506138178385846137be565b82840190509392505050565b6000604082019050818103600083015261383e8185876137c7565b905061384d6020830184613488565b949350505050565b600061386082612bfd565b915061386b83612bfd565b92508261387b5761387a612c78565b5b828206905092915050565b600081905092915050565b600061389c82612ff2565b6138a68185613886565b93506138b6818560208601612ffd565b80840191505092915050565b7f2e00000000000000000000000000000000000000000000000000000000000000600082015250565b60006138f8600183613886565b9150613903826138c2565b600182019050919050565b7f2043454c4f000000000000000000000000000000000000000000000000000000600082015250565b6000613944600583613886565b915061394f8261390e565b600582019050919050565b60006139668286613891565b9150613971826138eb565b915061397d8285613891565b91506139898284613891565b915061399482613937565b9150819050949350505050565b7f43616e6e6f742073776565702062656c6f77206d696e2062616c616e63650000600082015250565b60006139d7601e83612d86565b91506139e2826139a1565b602082019050919050565b60006020820190508181036000830152613a06816139ca565b9050919050565b7f5377656570206661696c65640000000000000000000000000000000000000000600082015250565b6000613a43600c83612d86565b9150613a4e82613a0d565b602082019050919050565b60006020820190508181036000830152613a7281613a36565b9050919050565b7f4f6e6c79206f70657261746f7200000000000000000000000000000000000000600082015250565b6000613aaf600d83612d86565b9150613aba82613a79565b602082019050919050565b60006020820190508181036000830152613ade81613aa2565b9050919050565b7f5a65726f206465706f7369740000000000000000000000000000000000000000600082015250565b6000613b1b600c83612d86565b9150613b2682613ae5565b602082019050919050565b60006020820190508181036000830152613b4a81613b0e565b9050919050565b7f4f6e6c7920646f6e6f72732063616e2076696577000000000000000000000000600082015250565b6000613b87601483612d86565b9150613b9282613b51565b602082019050919050565b60006020820190508181036000830152613bb681613b7a565b9050919050565b7f5369676e61747572652065787069726564000000000000000000000000000000600082015250565b6000613bf3601183612d86565b9150613bfe82613bbd565b602082019050919050565b60006020820190508181036000830152613c2281613be6565b9050919050565b7f416c726561647920636c61696d65642028616464726573732900000000000000600082015250565b6000613c5f601983612d86565b9150613c6a82613c29565b602082019050919050565b60006020820190508181036000830152613c8e81613c52565b9050919050565b7f416c726561647920636c61696d65642028464944290000000000000000000000600082015250565b6000613ccb601583612d86565b9150613cd682613c95565b602082019050919050565b60006020820190508181036000830152613cfa81613cbe565b9050919050565b7f46494420626c61636b6c69737465640000000000000000000000000000000000600082015250565b6000613d37600f83612d86565b9150613d4282613d01565b602082019050919050565b60006020820190508181036000830152613d6681613d2a565b9050919050565b7f5661756c742062616c616e636520746f6f206c6f770000000000000000000000600082015250565b6000613da3601583612d86565b9150613dae82613d6d565b602082019050919050565b60006020820190508181036000830152613dd281613d96565b9050919050565b7f436f6f6c646f776e206e6f742070617373656400000000000000000000000000600082015250565b6000613e0f601383612d86565b9150613e1a82613dd9565b602082019050919050565b60006020820190508181036000830152613e3e81613e02565b9050919050565b600060a082019050613e5a60008301886134f7565b613e67602083018761345e565b613e746040830186612e03565b613e816060830185612e03565b613e8e6080830184612e03565b9695505050505050565b7f496e76616c6964207369676e6174757265000000000000000000000000000000600082015250565b6000613ece601183612d86565b9150613ed982613e98565b602082019050919050565b60006020820190508181036000830152613efd81613ec1565b9050919050565b6000613f0f82612bfd565b91507fffffffffffffffffffffffffffffffffffffffffffffffffffffffffffffffff8203613f4157613f40612c07565b5b600182019050919050565b7f43454c4f207472616e73666572206661696c6564000000000000000000000000600082015250565b6000613f82601483612d86565b9150613f8d82613f4c565b602082019050919050565b60006020820190508181036000830152613fb181613f75565b9050919050565b7f4e487b7100000000000000000000000000000000000000000000000000000000600052602260045260246000fd5b60006002820490506001821680613fff57607f821691505b60208210810361401257614011613fb8565b5b50919050565b7f4e487b7100000000000000000000000000000000000000000000000000000000600052602160045260246000fd5b600060208201905061405c60008301846134f7565b92915050565b600060a08201905061407760008301886134f7565b61408460208301876134f7565b61409160408301866134f7565b61409e6060830185612e03565b6140ab608083018461345e565b9695505050505050565b60006080820190506140ca60008301876134f7565b6140d760208301866130f9565b6140e460408301856134f7565b6140f160608301846134f7565b9594505050505056fea2646970667358221220532b3c65a3b38fbe85961f00d6d385f01f4fdb30737ee0afcc24004a0f8a352064736f6c63430008180033",
  "linkReferences": {},
  "deployedLinkReferences": {}
}