{
  "_format": "hh-sol-artifact-1",
  "contractName": "BankOfCelo",
  "sourceName": "contracts/BankOfCelo.sol",
  "abi": [
    {
      "inputs": [
        {
          "internalType": "uint256",
          "name": "_minVaultBalance",
          "type": "uint256"
        },
        {
          "internalType": "address",
          "name": "_devWallet",
          "type": "address"
        },
        {
          "internalType": "address",
          "name": "_gaslessOperator",
          "type": "address"
        }
      ],
      "stateMutability": "nonpayable",
      "type": "constructor"
    },
    {
      "inputs": [],
      "name": "ECDSAInvalidSignature",
      "type": "error"
    },
    {
      "inputs": [
        {
          "internalType": "uint256",
          "name": "length",
          "type": "uint256"
        }
      ],
      "name": "ECDSAInvalidSignatureLength",
      "type": "error"
    },
    {
      "inputs": [
        {
          "internalType": "bytes32",
          "name": "s",
          "type": "bytes32"
        }
      ],
      "name": "ECDSAInvalidSignatureS",
      "type": "error"
    },
    {
      "inputs": [],
      "name": "InvalidShortString",
      "type": "error"
    },
    {
      "inputs": [
        {
          "internalType": "address",
          "name": "owner",
          "type": "address"
        }
      ],
      "name": "OwnableInvalidOwner",
      "type": "error"
    },
    {
      "inputs": [
        {
          "internalType": "address",
          "name": "account",
          "type": "address"
        }
      ],
      "name": "OwnableUnauthorizedAccount",
      "type": "error"
    },
    {
      "inputs": [],
      "name": "ReentrancyGuardReentrantCall",
      "type": "error"
    },
    {
      "inputs": [
        {
          "internalType": "string",
          "name": "str",
          "type": "string"
        }
      ],
      "name": "StringTooLong",
      "type": "error"
    },
    {
      "anonymous": false,
      "inputs": [
        {
          "indexed": false,
          "internalType": "uint256[]",
          "name": "fids",
          "type": "uint256[]"
        },
        {
          "indexed": false,
          "internalType": "bool",
          "name": "isBlacklisted",
          "type": "bool"
        }
      ],
      "name": "BlacklistUpdated",
      "type": "event"
    },
    {
      "anonymous": false,
      "inputs": [
        {
          "indexed": true,
          "internalType": "address",
          "name": "recipient",
          "type": "address"
        },
        {
          "indexed": false,
          "internalType": "uint256",
          "name": "fid",
          "type": "uint256"
        },
        {
          "indexed": false,
          "internalType": "uint256",
          "name": "amount",
          "type": "uint256"
        }
      ],
      "name": "Claimed",
      "type": "event"
    },
    {
      "anonymous": false,
      "inputs": [
        {
          "indexed": true,
          "internalType": "address",
          "name": "donor",
          "type": "address"
        },
        {
          "indexed": false,
          "internalType": "uint256",
          "name": "amount",
          "type": "uint256"
        },
        {
          "indexed": false,
          "internalType": "uint256",
          "name": "devFee",
          "type": "uint256"
        }
      ],
      "name": "Donated",
      "type": "event"
    },
    {
      "anonymous": false,
      "inputs": [
        {
          "indexed": true,
          "internalType": "address",
          "name": "donor",
          "type": "address"
        },
        {
          "indexed": false,
          "internalType": "uint8",
          "name": "newTier",
          "type": "uint8"
        }
      ],
      "name": "DonorTierUpgraded",
      "type": "event"
    },
    {
      "anonymous": false,
      "inputs": [],
      "name": "EIP712DomainChanged",
      "type": "event"
    },
    {
      "anonymous": false,
      "inputs": [
        {
          "indexed": true,
          "internalType": "address",
          "name": "operator",
          "type": "address"
        },
        {
          "indexed": true,
          "internalType": "address",
          "name": "claimer",
          "type": "address"
        },
        {
          "indexed": false,
          "internalType": "uint256",
          "name": "fid",
          "type": "uint256"
        }
      ],
      "name": "GaslessClaimExecuted",
      "type": "event"
    },
    {
      "anonymous": false,
      "inputs": [
        {
          "indexed": true,
          "internalType": "address",
          "name": "donor",
          "type": "address"
        },
        {
          "indexed": false,
          "internalType": "uint256",
          "name": "amount",
          "type": "uint256"
        },
        {
          "indexed": false,
          "internalType": "uint256",
          "name": "position",
          "type": "uint256"
        }
      ],
      "name": "LeaderboardUpdated",
      "type": "event"
    },
    {
      "anonymous": false,
      "inputs": [
        {
          "indexed": true,
          "internalType": "address",
          "name": "previousOwner",
          "type": "address"
        },
        {
          "indexed": true,
          "internalType": "address",
          "name": "newOwner",
          "type": "address"
        }
      ],
      "name": "OwnershipTransferred",
      "type": "event"
    },
    {
      "inputs": [],
      "name": "DEV_FEE_PERCENT",
      "outputs": [
        {
          "internalType": "uint256",
          "name": "",
          "type": "uint256"
        }
      ],
      "stateMutability": "view",
      "type": "function"
    },
    {
      "inputs": [],
      "name": "LEADERBOARD_SIZE",
      "outputs": [
        {
          "internalType": "uint256",
          "name": "",
          "type": "uint256"
        }
      ],
      "stateMutability": "view",
      "type": "function"
    },
    {
      "inputs": [],
      "name": "MAX_CLAIM",
      "outputs": [
        {
          "internalType": "uint256",
          "name": "",
          "type": "uint256"
        }
      ],
      "stateMutability": "view",
      "type": "function"
    },
    {
      "inputs": [],
      "name": "TIER1_THRESHOLD",
      "outputs": [
        {
          "internalType": "uint256",
          "name": "",
          "type": "uint256"
        }
      ],
      "stateMutability": "view",
      "type": "function"
    },
    {
      "inputs": [],
      "name": "TIER2_THRESHOLD",
      "outputs": [
        {
          "internalType": "uint256",
          "name": "",
          "type": "uint256"
        }
      ],
      "stateMutability": "view",
      "type": "function"
    },
    {
      "inputs": [],
      "name": "TIER3_THRESHOLD",
      "outputs": [
        {
          "internalType": "uint256",
          "name": "",
          "type": "uint256"
        }
      ],
      "stateMutability": "view",
      "type": "function"
    },
    {
      "inputs": [
        {
          "internalType": "uint256",
          "name": "fid",
          "type": "uint256"
        },
        {
          "internalType": "uint256",
          "name": "deadline",
          "type": "uint256"
        },
        {
          "internalType": "bytes",
          "name": "signature",
          "type": "bytes"
        }
      ],
      "name": "claim",
      "outputs": [],
      "stateMutability": "nonpayable",
      "type": "function"
    },
    {
      "inputs": [],
      "name": "claimCooldown",
      "outputs": [
        {
          "internalType": "uint256",
          "name": "",
          "type": "uint256"
        }
      ],
      "stateMutability": "view",
      "type": "function"
    },
    {
      "inputs": [],
      "name": "devWallet",
      "outputs": [
        {
          "internalType": "address",
          "name": "",
          "type": "address"
        }
      ],
      "stateMutability": "view",
      "type": "function"
    },
    {
      "inputs": [],
      "name": "donate",
      "outputs": [],
      "stateMutability": "payable",
      "type": "function"
    },
    {
      "inputs": [
        {
          "internalType": "address",
          "name": "",
          "type": "address"
        }
      ],
      "name": "donors",
      "outputs": [
        {
          "internalType": "uint256",
          "name": "totalDonated",
          "type": "uint256"
        },
        {
          "internalType": "uint256",
          "name": "lastDonationTime",
          "type": "uint256"
        },
        {
          "internalType": "uint8",
          "name": "tier",
          "type": "uint8"
        },
        {
          "internalType": "bool",
          "name": "hasClaimed",
          "type": "bool"
        }
      ],
      "stateMutability": "view",
      "type": "function"
    },
    {
      "inputs": [],
      "name": "eip712Domain",
      "outputs": [
        {
          "internalType": "bytes1",
          "name": "fields",
          "type": "bytes1"
        },
        {
          "internalType": "string",
          "name": "name",
          "type": "string"
        },
        {
          "internalType": "string",
          "name": "version",
          "type": "string"
        },
        {
          "internalType": "uint256",
          "name": "chainId",
          "type": "uint256"
        },
        {
          "internalType": "address",
          "name": "verifyingContract",
          "type": "address"
        },
        {
          "internalType": "bytes32",
          "name": "salt",
          "type": "bytes32"
        },
        {
          "internalType": "uint256[]",
          "name": "extensions",
          "type": "uint256[]"
        }
      ],
      "stateMutability": "view",
      "type": "function"
    },
    {
      "inputs": [
        {
          "internalType": "address",
          "name": "claimer",
          "type": "address"
        },
        {
          "internalType": "uint256",
          "name": "fid",
          "type": "uint256"
        },
        {
          "internalType": "uint256",
          "name": "deadline",
          "type": "uint256"
        },
        {
          "internalType": "bytes",
          "name": "signature",
          "type": "bytes"
        }
      ],
      "name": "executeGaslessClaim",
      "outputs": [],
      "stateMutability": "nonpayable",
      "type": "function"
    },
    {
      "inputs": [
        {
          "internalType": "uint256",
          "name": "",
          "type": "uint256"
        }
      ],
      "name": "fidBlacklisted",
      "outputs": [
        {
          "internalType": "bool",
          "name": "",
          "type": "bool"
        }
      ],
      "stateMutability": "view",
      "type": "function"
    },
    {
      "inputs": [
        {
          "internalType": "uint256",
          "name": "",
          "type": "uint256"
        }
      ],
      "name": "fidClaimed",
      "outputs": [
        {
          "internalType": "bool",
          "name": "",
          "type": "bool"
        }
      ],
      "stateMutability": "view",
      "type": "function"
    },
    {
      "inputs": [],
      "name": "gaslessOperator",
      "outputs": [
        {
          "internalType": "address",
          "name": "",
          "type": "address"
        }
      ],
      "stateMutability": "view",
      "type": "function"
    },
    {
      "inputs": [],
      "name": "getBalanceWithAccessControl",
      "outputs": [
        {
          "internalType": "uint256",
          "name": "",
          "type": "uint256"
        }
      ],
      "stateMutability": "view",
      "type": "function"
    },
    {
      "inputs": [
        {
          "internalType": "address",
          "name": "donor",
          "type": "address"
        }
      ],
      "name": "getDonorRank",
      "outputs": [
        {
          "internalType": "uint256",
          "name": "",
          "type": "uint256"
        }
      ],
      "stateMutability": "view",
      "type": "function"
    },
    {
      "inputs": [
        {
          "internalType": "address",
          "name": "donor",
          "type": "address"
        }
      ],
      "name": "getDonorTier",
      "outputs": [
        {
          "internalType": "uint8",
          "name": "",
          "type": "uint8"
        }
      ],
      "stateMutability": "view",
      "type": "function"
    },
    {
      "inputs": [],
      "name": "getFormattedBalance",
      "outputs": [
        {
          "internalType": "string",
          "name": "",
          "type": "string"
        }
      ],
      "stateMutability": "view",
      "type": "function"
    },
    {
      "inputs": [],
      "name": "getLeaderboard",
      "outputs": [
        {
          "components": [
            {
              "internalType": "address",
              "name": "donor",
              "type": "address"
            },
            {
              "internalType": "uint256",
              "name": "amount",
              "type": "uint256"
            }
          ],
          "internalType": "struct BankOfCelo.LeaderboardEntry[]",
          "name": "",
          "type": "tuple[]"
        }
      ],
      "stateMutability": "view",
      "type": "function"
    },
    {
      "inputs": [
        {
          "internalType": "uint256",
          "name": "totalDonated",
          "type": "uint256"
        }
      ],
      "name": "getTier",
      "outputs": [
        {
          "internalType": "uint8",
          "name": "",
          "type": "uint8"
        }
      ],
      "stateMutability": "pure",
      "type": "function"
    },
    {
      "inputs": [],
      "name": "getVaultStatus",
      "outputs": [
        {
          "internalType": "uint256",
          "name": "currentBalance",
          "type": "uint256"
        },
        {
          "internalType": "uint256",
          "name": "minReserve",
          "type": "uint256"
        },
        {
          "internalType": "uint256",
          "name": "availableForClaims",
          "type": "uint256"
        }
      ],
      "stateMutability": "view",
      "type": "function"
    },
    {
      "inputs": [
        {
          "internalType": "address",
          "name": "",
          "type": "address"
        }
      ],
      "name": "lastClaimAt",
      "outputs": [
        {
          "internalType": "uint256",
          "name": "",
          "type": "uint256"
        }
      ],
      "stateMutability": "view",
      "type": "function"
    },
    {
      "inputs": [],
      "name": "lastPublishedBalance",
      "outputs": [
        {
          "internalType": "uint256",
          "name": "",
          "type": "uint256"
        }
      ],
      "stateMutability": "view",
      "type": "function"
    },
    {
      "inputs": [],
      "name": "lastPublishedTime",
      "outputs": [
        {
          "internalType": "uint256",
          "name": "",
          "type": "uint256"
        }
      ],
      "stateMutability": "view",
      "type": "function"
    },
    {
      "inputs": [
        {
          "internalType": "uint256",
          "name": "",
          "type": "uint256"
        }
      ],
      "name": "leaderboard",
      "outputs": [
        {
          "internalType": "address",
          "name": "donor",
          "type": "address"
        },
        {
          "internalType": "uint256",
          "name": "amount",
          "type": "uint256"
        }
      ],
      "stateMutability": "view",
      "type": "function"
    },
    {
      "inputs": [],
      "name": "minLeaderboardAmount",
      "outputs": [
        {
          "internalType": "uint256",
          "name": "",
          "type": "uint256"
        }
      ],
      "stateMutability": "view",
      "type": "function"
    },
    {
      "inputs": [],
      "name": "minVaultBalance",
      "outputs": [
        {
          "internalType": "uint256",
          "name": "",
          "type": "uint256"
        }
      ],
      "stateMutability": "view",
      "type": "function"
    },
    {
      "inputs": [
        {
          "internalType": "address",
          "name": "",
          "type": "address"
        }
      ],
      "name": "nonces",
      "outputs": [
        {
          "internalType": "uint256",
          "name": "",
          "type": "uint256"
        }
      ],
      "stateMutability": "view",
      "type": "function"
    },
    {
      "inputs": [],
      "name": "owner",
      "outputs": [
        {
          "internalType": "address",
          "name": "",
          "type": "address"
        }
      ],
      "stateMutability": "view",
      "type": "function"
    },
    {
      "inputs": [],
      "name": "publishBalance",
      "outputs": [],
      "stateMutability": "nonpayable",
      "type": "function"
    },
    {
      "inputs": [],
      "name": "renounceOwnership",
      "outputs": [],
      "stateMutability": "nonpayable",
      "type": "function"
    },
    {
      "inputs": [
        {
          "internalType": "uint256",
          "name": "seconds_",
          "type": "uint256"
        }
      ],
      "name": "setClaimCooldown",
      "outputs": [],
      "stateMutability": "nonpayable",
      "type": "function"
    },
    {
      "inputs": [
        {
          "internalType": "address payable",
          "name": "to",
          "type": "address"
        },
        {
          "internalType": "uint256",
          "name": "amount",
          "type": "uint256"
        }
      ],
      "name": "sweep",
      "outputs": [],
      "stateMutability": "nonpayable",
      "type": "function"
    },
    {
      "inputs": [
        {
          "internalType": "address",
          "name": "newOwner",
          "type": "address"
        }
      ],
      "name": "transferOwnership",
      "outputs": [],
      "stateMutability": "nonpayable",
      "type": "function"
    },
    {
      "inputs": [
        {
          "internalType": "uint256[]",
          "name": "fids",
          "type": "uint256[]"
        },
        {
          "internalType": "bool",
          "name": "isBlacklisted",
          "type": "bool"
        }
      ],
      "name": "updateBlacklist",
      "outputs": [],
      "stateMutability": "nonpayable",
      "type": "function"
    },
    {
      "stateMutability": "payable",
      "type": "receive"
    }
  ],
  "bytecode": "0x6101c06040526000600655600060d4553480156200001c57600080fd5b5060405162004e5238038062004e528339818101604052810190620000429190620005e2565b6040518060400160405280600a81526020017f42616e6b4f6643656c6f000000000000000000000000000000000000000000008152506040518060400160405280600181526020017f310000000000000000000000000000000000000000000000000000000000000081525033600073ffffffffffffffffffffffffffffffffffffffff168173ffffffffffffffffffffffffffffffffffffffff1603620001245760006040517f1e4fbdf70000000000000000000000000000000000000000000000000000000081526004016200011b91906200064f565b60405180910390fd5b62000135816200034d60201b60201c565b5060018081905550620001536002836200041160201b90919060201c565b6101208181525050620001716003826200041160201b90919060201c565b6101408181525050818051906020012060e08181525050808051906020012061010081815250504660a08181525050620001b06200046960201b60201c565b608081815250503073ffffffffffffffffffffffffffffffffffffffff1660c08173ffffffffffffffffffffffffffffffffffffffff16815250505050600073ffffffffffffffffffffffffffffffffffffffff168273ffffffffffffffffffffffffffffffffffffffff16036200025f576040517f08c379a00000000000000000000000000000000000000000000000000000000081526004016200025690620006cd565b60405180910390fd5b600073ffffffffffffffffffffffffffffffffffffffff168173ffffffffffffffffffffffffffffffffffffffff1603620002d1576040517f08c379a0000000000000000000000000000000000000000000000000000000008152600401620002c8906200073f565b60405180910390fd5b8261016081815250508173ffffffffffffffffffffffffffffffffffffffff166101808173ffffffffffffffffffffffffffffffffffffffff16815250508073ffffffffffffffffffffffffffffffffffffffff166101a08173ffffffffffffffffffffffffffffffffffffffff168152505050505062000c85565b60008060009054906101000a900473ffffffffffffffffffffffffffffffffffffffff169050816000806101000a81548173ffffffffffffffffffffffffffffffffffffffff021916908373ffffffffffffffffffffffffffffffffffffffff1602179055508173ffffffffffffffffffffffffffffffffffffffff168173ffffffffffffffffffffffffffffffffffffffff167f8be0079c531659141344cd1fd0a4f28419497f9722a3daafe3b4186f6b6457e060405160405180910390a35050565b600060208351101562000437576200042f83620004c660201b60201c565b905062000463565b8262000449836200053360201b60201c565b60000190816200045a9190620009d1565b5060ff60001b90505b92915050565b60007f8b73c3c69bb8fe3d512ecc4cf759cc79239f7b179b0ffacaa9a75d522b39400f60e051610100514630604051602001620004ab95949392919062000ae4565b60405160208183030381529060405280519060200120905090565b600080829050601f815111156200051657826040517f305a27a90000000000000000000000000000000000000000000000000000000081526004016200050d919062000bbf565b60405180910390fd5b805181620005249062000c15565b60001c1760001b915050919050565b6000819050919050565b600080fd5b6000819050919050565b620005578162000542565b81146200056357600080fd5b50565b60008151905062000577816200054c565b92915050565b600073ffffffffffffffffffffffffffffffffffffffff82169050919050565b6000620005aa826200057d565b9050919050565b620005bc816200059d565b8114620005c857600080fd5b50565b600081519050620005dc81620005b1565b92915050565b600080600060608486031215620005fe57620005fd6200053d565b5b60006200060e8682870162000566565b93505060206200062186828701620005cb565b92505060406200063486828701620005cb565b9150509250925092565b62000649816200059d565b82525050565b60006020820190506200066660008301846200063e565b92915050565b600082825260208201905092915050565b7f496e76616c6964206465762077616c6c65740000000000000000000000000000600082015250565b6000620006b56012836200066c565b9150620006c2826200067d565b602082019050919050565b60006020820190508181036000830152620006e881620006a6565b9050919050565b7f496e76616c6964206761736c657373206f70657261746f720000000000000000600082015250565b6000620007276018836200066c565b91506200073482620006ef565b602082019050919050565b600060208201905081810360008301526200075a8162000718565b9050919050565b600081519050919050565b7f4e487b7100000000000000000000000000000000000000000000000000000000600052604160045260246000fd5b7f4e487b7100000000000000000000000000000000000000000000000000000000600052602260045260246000fd5b60006002820490506001821680620007e357607f821691505b602082108103620007f957620007f86200079b565b5b50919050565b60008190508160005260206000209050919050565b60006020601f8301049050919050565b600082821b905092915050565b600060088302620008637fffffffffffffffffffffffffffffffffffffffffffffffffffffffffffffffff8262000824565b6200086f868362000824565b95508019841693508086168417925050509392505050565b6000819050919050565b6000620008b2620008ac620008a68462000542565b62000887565b62000542565b9050919050565b6000819050919050565b620008ce8362000891565b620008e6620008dd82620008b9565b84845462000831565b825550505050565b600090565b620008fd620008ee565b6200090a818484620008c3565b505050565b5b81811015620009325762000926600082620008f3565b60018101905062000910565b5050565b601f82111562000981576200094b81620007ff565b620009568462000814565b8101602085101562000966578190505b6200097e620009758562000814565b8301826200090f565b50505b505050565b600082821c905092915050565b6000620009a66000198460080262000986565b1980831691505092915050565b6000620009c1838362000993565b9150826002028217905092915050565b620009dc8262000761565b67ffffffffffffffff811115620009f857620009f76200076c565b5b62000a048254620007ca565b62000a1182828562000936565b600060209050601f83116001811462000a49576000841562000a34578287015190505b62000a408582620009b3565b86555062000ab0565b601f19841662000a5986620007ff565b60005b8281101562000a835784890151825560018201915060208501945060208101905062000a5c565b8683101562000aa3578489015162000a9f601f89168262000993565b8355505b6001600288020188555050505b505050505050565b6000819050919050565b62000acd8162000ab8565b82525050565b62000ade8162000542565b82525050565b600060a08201905062000afb600083018862000ac2565b62000b0a602083018762000ac2565b62000b19604083018662000ac2565b62000b28606083018562000ad3565b62000b3760808301846200063e565b9695505050505050565b60005b8381101562000b6157808201518184015260208101905062000b44565b60008484015250505050565b6000601f19601f8301169050919050565b600062000b8b8262000761565b62000b9781856200066c565b935062000ba981856020860162000b41565b62000bb48162000b6d565b840191505092915050565b6000602082019050818103600083015262000bdb818462000b7e565b905092915050565b600081519050919050565b6000819050602082019050919050565b600062000c0c825162000ab8565b80915050919050565b600062000c228262000be3565b8262000c2e8462000bee565b905062000c3b8162000bfe565b9250602082101562000c7e5762000c797fffffffffffffffffffffffffffffffffffffffffffffffffffffffffffffffff8360200360080262000824565b831692505b5050919050565b60805160a05160c05160e05161010051610120516101405161016051610180516101a05161412062000d326000396000818161121e0152818161146d01526122660152600081816102d30152818161154e0152611841015260008181610d6c015281816110eb0152818161157a0152611e0601526000612434015260006123f901526000612a2901526000612a08015260006126bb015260006127110152600061273a01526141206000f3fe60806040526004361061021e5760003560e01c8063737f45ec11610123578063aede67ea116100ab578063ee34b1b91161006f578063ee34b1b9146109af578063f2fde38b146109da578063f3cacef514610a03578063f7d870c514610a1a578063fdea365714610a57576103ed565b8063aede67ea146108bd578063bf368399146108ea578063ca0cdea814610928578063d993d82614610968578063ed88c68e146109a5576103ed565b806384b0196e116100f257806384b0196e146107e25780638572e202146108135780638da5cb5b1461083c5780638e5572c0146108675780638ea5220f14610892576103ed565b8063737f45ec146107005780637ecebe001461072b5780637f0ada3e1461076857806380e1396d146107a5576103ed565b80634f062c5a116101a65780635eddd157116101755780635eddd15714610641578063642ce3551461066a5780636d763a6e146106955780636ea056a9146106c0578063715018a6146106e9576103ed565b80634f062c5a146105855780634f085f42146105c257806359c9eb90146105ed5780635e6a645e14610616576103ed565b80631483255e116101ed5780631483255e146104b05780632ca9d584146104db5780632ee4120e146105065780633eb8edf11461052f57806342dfac721461055a576103ed565b806301b65b71146103f257806303822d3b1461041d578063086d2c871461045a578063111d3f6b14610485576103ed565b366103ed57600060646005346102349190612c26565b61023e9190612c97565b90506000813461024e9190612cc8565b90506000600760003373ffffffffffffffffffffffffffffffffffffffff1673ffffffffffffffffffffffffffffffffffffffff1681526020019081526020016000209050818160000160008282546102a79190612cfc565b9250508190555042816001018190555060008211156102cf576102ce338260000154610a82565b5b60007f000000000000000000000000000000000000000000000000000000000000000073ffffffffffffffffffffffffffffffffffffffff168460405161031590612d61565b60006040518083038185875af1925050503d8060008114610352576040519150601f19603f3d011682016040523d82523d6000602084013e610357565b606091505b505090508061039b576040517f08c379a000000000000000000000000000000000000000000000000000000000815260040161039290612dd3565b60405180910390fd5b3373ffffffffffffffffffffffffffffffffffffffff167f4928895ba6723e8e27b15f32e4c3054a1b6c7f8c03f133558d6fa42b3928d14c84866040516103e3929190612e02565b60405180910390a2005b600080fd5b3480156103fe57600080fd5b50610407610d2d565b6040516104149190612e2b565b60405180910390f35b34801561042957600080fd5b50610444600480360381019061043f9190612eb8565b610d39565b6040516104519190612e2b565b60405180910390f35b34801561046657600080fd5b5061046f610d51565b60405161047c9190612e2b565b60405180910390f35b34801561049157600080fd5b5061049a610d5e565b6040516104a79190612e2b565b60405180910390f35b3480156104bc57600080fd5b506104c5610d64565b6040516104d29190612e2b565b60405180910390f35b3480156104e757600080fd5b506104f0610d6a565b6040516104fd9190612e2b565b60405180910390f35b34801561051257600080fd5b5061052d60048036038101906105289190612f82565b610d8e565b005b34801561053b57600080fd5b50610544610e36565b6040516105519190613061565b60405180910390f35b34801561056657600080fd5b5061056f610f0e565b60405161057c9190612e2b565b60405180910390f35b34801561059157600080fd5b506105ac60048036038101906105a791906130af565b610f1b565b6040516105b991906130f8565b60405180910390f35b3480156105ce57600080fd5b506105d7610f71565b6040516105e49190612e2b565b60405180910390f35b3480156105f957600080fd5b50610614600480360381019061060f91906130af565b610f76565b005b34801561062257600080fd5b5061062b610f88565b6040516106389190612e2b565b60405180910390f35b34801561064d57600080fd5b5061066860048036038101906106639190613243565b610f8d565b005b34801561067657600080fd5b5061067f610fb8565b60405161068c9190612e2b565b60405180910390f35b3480156106a157600080fd5b506106aa610fc4565b6040516106b791906133ae565b60405180910390f35b3480156106cc57600080fd5b506106e760048036038101906106e2919061340e565b6110e1565b005b3480156106f557600080fd5b506106fe611208565b005b34801561070c57600080fd5b5061071561121c565b604051610722919061345d565b60405180910390f35b34801561073757600080fd5b50610752600480360381019061074d9190612eb8565b611240565b60405161075f9190612e2b565b60405180910390f35b34801561077457600080fd5b5061078f600480360381019061078a91906130af565b611258565b60405161079c9190613487565b60405180910390f35b3480156107b157600080fd5b506107cc60048036038101906107c79190612eb8565b611278565b6040516107d99190612e2b565b60405180910390f35b3480156107ee57600080fd5b506107f76113b9565b60405161080a97969594939291906135a5565b60405180910390f35b34801561081f57600080fd5b5061083a60048036038101906108359190613629565b611463565b005b34801561084857600080fd5b5061085161151d565b60405161085e919061345d565b60405180910390f35b34801561087357600080fd5b5061087c611546565b6040516108899190612e2b565b60405180910390f35b34801561089e57600080fd5b506108a761154c565b6040516108b4919061345d565b60405180910390f35b3480156108c957600080fd5b506108d2611570565b6040516108e1939291906136ac565b60405180910390f35b3480156108f657600080fd5b50610911600480360381019061090c91906130af565b6115bd565b60405161091f9291906136e3565b60405180910390f35b34801561093457600080fd5b5061094f600480360381019061094a9190612eb8565b611607565b60405161095f949392919061370c565b60405180910390f35b34801561097457600080fd5b5061098f600480360381019061098a9190612eb8565b611651565b60405161099c91906130f8565b60405180910390f35b6109ad6116aa565b005b3480156109bb57600080fd5b506109c4611968565b6040516109d19190612e2b565b60405180910390f35b3480156109e657600080fd5b50610a0160048036038101906109fc9190612eb8565b6119fc565b005b348015610a0f57600080fd5b50610a18611a82565b005b348015610a2657600080fd5b50610a416004803603810190610a3c91906130af565b611aae565b604051610a4e9190613487565b60405180910390f35b348015610a6357600080fd5b50610a6c611ace565b604051610a799190612e2b565b60405180910390f35b60d45481108015610abb575080600c60016064610a9f9190612cc8565b60648110610ab057610aaf613751565b5b600202016001015410155b610d295760007fffffffffffffffffffffffffffffffffffffffffffffffffffffffffffffffff905060005b6064811015610b2857600c8160648110610b0457610b03613751565b5b6002020160010154831115610b1b57809150610b28565b8080600101915050610ae7565b5060008112610d2757600060016064610b419190612cc8565b90505b81811115610c0f57600c600182610b5b9190612cc8565b60648110610b6c57610b6b613751565b5b60020201600c8260648110610b8457610b83613751565b5b600202016000820160009054906101000a900473ffffffffffffffffffffffffffffffffffffffff168160000160006101000a81548173ffffffffffffffffffffffffffffffffffffffff021916908373ffffffffffffffffffffffffffffffffffffffff160217905550600182015481600101559050508080610c0790613780565b915050610b44565b5060405180604001604052808473ffffffffffffffffffffffffffffffffffffffff16815260200183815250600c8260648110610c4f57610c4e613751565b5b6002020160008201518160000160006101000a81548173ffffffffffffffffffffffffffffffffffffffff021916908373ffffffffffffffffffffffffffffffffffffffff16021790555060208201518160010155905050600c60016064610cb79190612cc8565b60648110610cc857610cc7613751565b5b600202016001015460d4819055508273ffffffffffffffffffffffffffffffffffffffff167f5c874adf9d1c93ab636130bb7e727993f1d6a3d33d1ffd925556815d0eec23088383604051610d1e929190612e02565b60405180910390a25b505b5050565b6706f05b59d3b2000081565b600a6020528060005260406000206000915090505481565b6802b5e3af16b188000081565b60045481565b60055481565b7f000000000000000000000000000000000000000000000000000000000000000081565b610d96611ad4565b60005b83839050811015610df5578160096000868685818110610dbc57610dbb613751565b5b90506020020135815260200190815260200160002060006101000a81548160ff0219169083151502179055508080600101915050610d99565b507fd96fb5d90b3a668bd44562db58d63b28ecbb0ad725089b91009fd6d67dd57852838383604051610e2993929190613813565b60405180910390a1505050565b606060004790506000670de0b6b3a764000082610e539190612c97565b90506000662386f26fc10000670de0b6b3a764000084610e739190613845565b610e7d9190612c97565b9050610e8882611b5b565b600a8210610ea55760405180602001604052806000815250610edc565b6040518060400160405280600181526020017f30000000000000000000000000000000000000000000000000000000000000008152505b610ee583611b5b565b604051602001610ef79392919061394a565b604051602081830303815290604052935050505090565b68056bc75e2d6310000081565b600068056bc75e2d631000008210610f365760039050610f6c565b6802b5e3af16b18800008210610f4f5760029050610f6c565b678ac7230489e800008210610f675760019050610f6c565b600090505b919050565b606481565b610f7e611ad4565b8060068190555050565b600581565b610f95611c29565b610fa133848484611c6f565b610fab3384612088565b610fb3612323565b505050565b678ac7230489e8000081565b60606000606467ffffffffffffffff811115610fe357610fe2613118565b5b60405190808252806020026020018201604052801561101c57816020015b611009612bbd565b8152602001906001900390816110015790505b50905060005b60648110156110d957600c816064811061103f5761103e613751565b5b600202016040518060400160405290816000820160009054906101000a900473ffffffffffffffffffffffffffffffffffffffff1673ffffffffffffffffffffffffffffffffffffffff1673ffffffffffffffffffffffffffffffffffffffff1681526020016001820154815250508282815181106110c1576110c0613751565b5b60200260200101819052508080600101915050611022565b508091505090565b6110e9611ad4565b7f000000000000000000000000000000000000000000000000000000000000000081476111169190612cc8565b1015611157576040517f08c379a000000000000000000000000000000000000000000000000000000000815260040161114e906139dd565b60405180910390fd5b60008273ffffffffffffffffffffffffffffffffffffffff168260405161117d90612d61565b60006040518083038185875af1925050503d80600081146111ba576040519150601f19603f3d011682016040523d82523d6000602084013e6111bf565b606091505b5050905080611203576040517f08c379a00000000000000000000000000000000000000000000000000000000081526004016111fa90613a49565b60405180910390fd5b505050565b611210611ad4565b61121a600061232c565b565b7f000000000000000000000000000000000000000000000000000000000000000081565b600b6020528060005260406000206000915090505481565b60086020528060005260406000206000915054906101000a900460ff1681565b600080600760008473ffffffffffffffffffffffffffffffffffffffff1673ffffffffffffffffffffffffffffffffffffffff168152602001908152602001600020600001549050600081036112f1577fffffffffffffffffffffffffffffffffffffffffffffffffffffffffffffffff9150506113b4565b60005b606481101561138e578373ffffffffffffffffffffffffffffffffffffffff16600c826064811061132857611327613751565b5b6002020160000160009054906101000a900473ffffffffffffffffffffffffffffffffffffffff1673ffffffffffffffffffffffffffffffffffffffff1603611381576001816113789190612cfc565b925050506113b4565b80806001019150506112f4565b507fffffffffffffffffffffffffffffffffffffffffffffffffffffffffffffffff9150505b919050565b6000606080600080600060606113cd6123f0565b6113d561242b565b46306000801b600067ffffffffffffffff8111156113f6576113f5613118565b5b6040519080825280602002602001820160405280156114245781602001602082028036833780820191505090505b507f0f00000000000000000000000000000000000000000000000000000000000000959493929190965096509650965096509650965090919293949596565b61146b611c29565b7f000000000000000000000000000000000000000000000000000000000000000073ffffffffffffffffffffffffffffffffffffffff163373ffffffffffffffffffffffffffffffffffffffff16146114f9576040517f08c379a00000000000000000000000000000000000000000000000000000000081526004016114f090613ab5565b60405180910390fd5b61150584848484611c6f565b61150f8484612088565b611517612323565b50505050565b60008060009054906101000a900473ffffffffffffffffffffffffffffffffffffffff16905090565b60d45481565b7f000000000000000000000000000000000000000000000000000000000000000081565b60008060004792507f000000000000000000000000000000000000000000000000000000000000000091508183116115a95760006115b6565b81836115b59190612cc8565b5b9050909192565b600c81606481106115cd57600080fd5b600202016000915090508060000160009054906101000a900473ffffffffffffffffffffffffffffffffffffffff16908060010154905082565b60076020528060005260406000206000915090508060000154908060010154908060020160009054906101000a900460ff16908060020160019054906101000a900460ff16905084565b6000600760008373ffffffffffffffffffffffffffffffffffffffff1673ffffffffffffffffffffffffffffffffffffffff16815260200190815260200160002060020160009054906101000a900460ff169050919050565b6116b2611c29565b600034116116f5576040517f08c379a00000000000000000000000000000000000000000000000000000000081526004016116ec90613b21565b60405180910390fd5b600060646005346117069190612c26565b6117109190612c97565b9050600081346117209190612cc8565b90506000600760003373ffffffffffffffffffffffffffffffffffffffff1673ffffffffffffffffffffffffffffffffffffffff1681526020019081526020016000209050818160000160008282546117799190612cfc565b9250508190555042816001018190555060008211156117a1576117a0338260000154610a82565b5b60006117b08260000154610f1b565b90508160020160009054906101000a900460ff1660ff168160ff16111561183d57808260020160006101000a81548160ff021916908360ff1602179055503373ffffffffffffffffffffffffffffffffffffffff167f246b818ff1a781a9edc2a72cdccb95bb6bbbf3387e8f6934fd5a48b17ccb1c358260405161183491906130f8565b60405180910390a25b60007f000000000000000000000000000000000000000000000000000000000000000073ffffffffffffffffffffffffffffffffffffffff168560405161188390612d61565b60006040518083038185875af1925050503d80600081146118c0576040519150601f19603f3d011682016040523d82523d6000602084013e6118c5565b606091505b5050905080611909576040517f08c379a000000000000000000000000000000000000000000000000000000000815260040161190090612dd3565b60405180910390fd5b3373ffffffffffffffffffffffffffffffffffffffff167f4928895ba6723e8e27b15f32e4c3054a1b6c7f8c03f133558d6fa42b3928d14c8587604051611951929190612e02565b60405180910390a25050505050611966612323565b565b600067016345785d8a0000600760003373ffffffffffffffffffffffffffffffffffffffff1673ffffffffffffffffffffffffffffffffffffffff16815260200190815260200160002060000154116119f6576040517f08c379a00000000000000000000000000000000000000000000000000000000081526004016119ed90613b8d565b60405180910390fd5b47905090565b611a04611ad4565b600073ffffffffffffffffffffffffffffffffffffffff168173ffffffffffffffffffffffffffffffffffffffff1603611a765760006040517f1e4fbdf7000000000000000000000000000000000000000000000000000000008152600401611a6d919061345d565b60405180910390fd5b611a7f8161232c565b50565b62015180600554611a939190612cfc565b4211611a9e57600080fd5b4760048190555042600581905550565b60096020528060005260406000206000915054906101000a900460ff1681565b60065481565b611adc612466565b73ffffffffffffffffffffffffffffffffffffffff16611afa61151d565b73ffffffffffffffffffffffffffffffffffffffff1614611b5957611b1d612466565b6040517f118cdaa7000000000000000000000000000000000000000000000000000000008152600401611b50919061345d565b60405180910390fd5b565b606060006001611b6a8461246e565b01905060008167ffffffffffffffff811115611b8957611b88613118565b5b6040519080825280601f01601f191660200182016040528015611bbb5781602001600182028036833780820191505090505b509050600082602001820190505b600115611c1e578080600190039150507f3031323334353637383961626364656600000000000000000000000000000000600a86061a8153600a8581611c1257611c11612c68565b5b04945060008503611bc9575b819350505050919050565b600260015403611c65576040517f3ee5aeb500000000000000000000000000000000000000000000000000000000815260040160405180910390fd5b6002600181905550565b81421115611cb2576040517f08c379a0000000000000000000000000000000000000000000000000000000008152600401611ca990613bf9565b60405180910390fd5b600760008573ffffffffffffffffffffffffffffffffffffffff1673ffffffffffffffffffffffffffffffffffffffff16815260200190815260200160002060020160019054906101000a900460ff1615611d42576040517f08c379a0000000000000000000000000000000000000000000000000000000008152600401611d3990613c65565b60405180910390fd5b6008600084815260200190815260200160002060009054906101000a900460ff1615611da3576040517f08c379a0000000000000000000000000000000000000000000000000000000008152600401611d9a90613cd1565b60405180910390fd5b6009600084815260200190815260200160002060009054906101000a900460ff1615611e04576040517f08c379a0000000000000000000000000000000000000000000000000000000008152600401611dfb90613d3d565b60405180910390fd5b7f00000000000000000000000000000000000000000000000000000000000000006706f05b59d3b20000611e389190612cfc565b471015611e7a576040517f08c379a0000000000000000000000000000000000000000000000000000000008152600401611e7190613da9565b60405180910390fd5b60006006541115611f1557600654600a60008673ffffffffffffffffffffffffffffffffffffffff1673ffffffffffffffffffffffffffffffffffffffff16815260200190815260200160002054611ed29190612cfc565b421015611f14576040517f08c379a0000000000000000000000000000000000000000000000000000000008152600401611f0b90613e15565b60405180910390fd5b5b6000611fad7f62b510b4113a64c69505314216e25e7cdc298ecdaaf15de379841a1c2890f7f7868686600b60008b73ffffffffffffffffffffffffffffffffffffffff1673ffffffffffffffffffffffffffffffffffffffff16815260200190815260200160002054604051602001611f92959493929190613e35565b604051602081830303815290604052805190602001206125c1565b90506000611fbb82846125db565b90508573ffffffffffffffffffffffffffffffffffffffff168173ffffffffffffffffffffffffffffffffffffffff161461202b576040517f08c379a000000000000000000000000000000000000000000000000000000000815260040161202290613ed4565b60405180910390fd5b600b60008773ffffffffffffffffffffffffffffffffffffffff1673ffffffffffffffffffffffffffffffffffffffff168152602001908152602001600020600081548092919061207b90613ef4565b9190505550505050505050565b6000600760008473ffffffffffffffffffffffffffffffffffffffff1673ffffffffffffffffffffffffffffffffffffffff168152602001908152602001600020905060018160020160016101000a81548160ff02191690831515021790555060016008600084815260200190815260200160002060006101000a81548160ff02191690831515021790555042600a60008573ffffffffffffffffffffffffffffffffffffffff1673ffffffffffffffffffffffffffffffffffffffff1681526020019081526020016000208190555060008373ffffffffffffffffffffffffffffffffffffffff166706f05b59d3b2000060405161218690612d61565b60006040518083038185875af1925050503d80600081146121c3576040519150601f19603f3d011682016040523d82523d6000602084013e6121c8565b606091505b505090508061220c576040517f08c379a000000000000000000000000000000000000000000000000000000000815260040161220390613f88565b60405180910390fd5b8373ffffffffffffffffffffffffffffffffffffffff167f987d620f307ff6b94d58743cb7a7509f24071586a77759b77c2d4e29f75a2f9a846706f05b59d3b2000060405161225c929190612e02565b60405180910390a27f000000000000000000000000000000000000000000000000000000000000000073ffffffffffffffffffffffffffffffffffffffff163373ffffffffffffffffffffffffffffffffffffffff160361231d578373ffffffffffffffffffffffffffffffffffffffff163373ffffffffffffffffffffffffffffffffffffffff167f4e3de3789cdf6d2ee15c144e9c612fa3a0adcfccdd20a144dc9b1b2a1954d2ae856040516123149190612e2b565b60405180910390a35b50505050565b60018081905550565b60008060009054906101000a900473ffffffffffffffffffffffffffffffffffffffff169050816000806101000a81548173ffffffffffffffffffffffffffffffffffffffff021916908373ffffffffffffffffffffffffffffffffffffffff1602179055508173ffffffffffffffffffffffffffffffffffffffff168173ffffffffffffffffffffffffffffffffffffffff167f8be0079c531659141344cd1fd0a4f28419497f9722a3daafe3b4186f6b6457e060405160405180910390a35050565b606061242660027f000000000000000000000000000000000000000000000000000000000000000061260790919063ffffffff16565b905090565b606061246160037f000000000000000000000000000000000000000000000000000000000000000061260790919063ffffffff16565b905090565b600033905090565b600080600090507a184f03e93ff9f4daa797ed6e38ed64bf6a1f01000000000000000083106124cc577a184f03e93ff9f4daa797ed6e38ed64bf6a1f01000000000000000083816124c2576124c1612c68565b5b0492506040810190505b6d04ee2d6d415b85acef81000000008310612509576d04ee2d6d415b85acef810000000083816124ff576124fe612c68565b5b0492506020810190505b662386f26fc10000831061253857662386f26fc10000838161252e5761252d612c68565b5b0492506010810190505b6305f5e1008310612561576305f5e100838161255757612556612c68565b5b0492506008810190505b612710831061258657612710838161257c5761257b612c68565b5b0492506004810190505b606483106125a9576064838161259f5761259e612c68565b5b0492506002810190505b600a83106125b8576001810190505b80915050919050565b60006125d46125ce6126b7565b8361276e565b9050919050565b6000806000806125eb86866127af565b9250925092506125fb828261280b565b82935050505092915050565b606060ff60001b83146126245761261d8361296f565b90506126b1565b81805461263090613fd7565b80601f016020809104026020016040519081016040528092919081815260200182805461265c90613fd7565b80156126a95780601f1061267e576101008083540402835291602001916126a9565b820191906000526020600020905b81548152906001019060200180831161268c57829003601f168201915b505050505090505b92915050565b60007f000000000000000000000000000000000000000000000000000000000000000073ffffffffffffffffffffffffffffffffffffffff163073ffffffffffffffffffffffffffffffffffffffff1614801561273357507f000000000000000000000000000000000000000000000000000000000000000046145b15612760577f0000000000000000000000000000000000000000000000000000000000000000905061276b565b6127686129e3565b90505b90565b60006040517f190100000000000000000000000000000000000000000000000000000000000081528360028201528260228201526042812091505092915050565b600080600060418451036127f45760008060006020870151925060408701519150606087015160001a90506127e688828585612a79565b955095509550505050612804565b60006002855160001b9250925092505b9250925092565b6000600381111561281f5761281e614008565b5b82600381111561283257612831614008565b5b031561296b576001600381111561284c5761284b614008565b5b82600381111561285f5761285e614008565b5b03612896576040517ff645eedf00000000000000000000000000000000000000000000000000000000815260040160405180910390fd5b600260038111156128aa576128a9614008565b5b8260038111156128bd576128bc614008565b5b03612902578060001c6040517ffce698f70000000000000000000000000000000000000000000000000000000081526004016128f99190612e2b565b60405180910390fd5b60038081111561291557612914614008565b5b82600381111561292857612927614008565b5b0361296a57806040517fd78bce0c0000000000000000000000000000000000000000000000000000000081526004016129619190614037565b60405180910390fd5b5b5050565b6060600061297c83612b6d565b90506000602067ffffffffffffffff81111561299b5761299a613118565b5b6040519080825280601f01601f1916602001820160405280156129cd5781602001600182028036833780820191505090505b5090508181528360208201528092505050919050565b60007f8b73c3c69bb8fe3d512ecc4cf759cc79239f7b179b0ffacaa9a75d522b39400f7f00000000000000000000000000000000000000000000000000000000000000007f00000000000000000000000000000000000000000000000000000000000000004630604051602001612a5e959493929190614052565b60405160208183030381529060405280519060200120905090565b60008060007f7fffffffffffffffffffffffffffffff5d576e7357a4501ddfe92f46681b20a08460001c1115612ab9576000600385925092509250612b63565b600060018888888860405160008152602001604052604051612ade94939291906140a5565b6020604051602081039080840390855afa158015612b00573d6000803e3d6000fd5b505050602060405103519050600073ffffffffffffffffffffffffffffffffffffffff168173ffffffffffffffffffffffffffffffffffffffff1603612b5457600060016000801b93509350935050612b63565b8060008060001b935093509350505b9450945094915050565b60008060ff8360001c169050601f811115612bb4576040517fb3512b0c00000000000000000000000000000000000000000000000000000000815260040160405180910390fd5b80915050919050565b6040518060400160405280600073ffffffffffffffffffffffffffffffffffffffff168152602001600081525090565b6000819050919050565b7f4e487b7100000000000000000000000000000000000000000000000000000000600052601160045260246000fd5b6000612c3182612bed565b9150612c3c83612bed565b9250828202612c4a81612bed565b91508282048414831517612c6157612c60612bf7565b5b5092915050565b7f4e487b7100000000000000000000000000000000000000000000000000000000600052601260045260246000fd5b6000612ca282612bed565b9150612cad83612bed565b925082612cbd57612cbc612c68565b5b828204905092915050565b6000612cd382612bed565b9150612cde83612bed565b9250828203905081811115612cf657612cf5612bf7565b5b92915050565b6000612d0782612bed565b9150612d1283612bed565b9250828201905080821115612d2a57612d29612bf7565b5b92915050565b600081905092915050565b50565b6000612d4b600083612d30565b9150612d5682612d3b565b600082019050919050565b6000612d6c82612d3e565b9150819050919050565b600082825260208201905092915050565b7f44657620666565207472616e73666572206661696c6564000000000000000000600082015250565b6000612dbd601783612d76565b9150612dc882612d87565b602082019050919050565b60006020820190508181036000830152612dec81612db0565b9050919050565b612dfc81612bed565b82525050565b6000604082019050612e176000830185612df3565b612e246020830184612df3565b9392505050565b6000602082019050612e406000830184612df3565b92915050565b6000604051905090565b600080fd5b600080fd5b600073ffffffffffffffffffffffffffffffffffffffff82169050919050565b6000612e8582612e5a565b9050919050565b612e9581612e7a565b8114612ea057600080fd5b50565b600081359050612eb281612e8c565b92915050565b600060208284031215612ece57612ecd612e50565b5b6000612edc84828501612ea3565b91505092915050565b600080fd5b600080fd5b600080fd5b60008083601f840112612f0a57612f09612ee5565b5b8235905067ffffffffffffffff811115612f2757612f26612eea565b5b602083019150836020820283011115612f4357612f42612eef565b5b9250929050565b60008115159050919050565b612f5f81612f4a565b8114612f6a57600080fd5b50565b600081359050612f7c81612f56565b92915050565b600080600060408486031215612f9b57612f9a612e50565b5b600084013567ffffffffffffffff811115612fb957612fb8612e55565b5b612fc586828701612ef4565b93509350506020612fd886828701612f6d565b9150509250925092565b600081519050919050565b60005b8381101561300b578082015181840152602081019050612ff0565b60008484015250505050565b6000601f19601f8301169050919050565b600061303382612fe2565b61303d8185612d76565b935061304d818560208601612fed565b61305681613017565b840191505092915050565b6000602082019050818103600083015261307b8184613028565b905092915050565b61308c81612bed565b811461309757600080fd5b50565b6000813590506130a981613083565b92915050565b6000602082840312156130c5576130c4612e50565b5b60006130d38482850161309a565b91505092915050565b600060ff82169050919050565b6130f2816130dc565b82525050565b600060208201905061310d60008301846130e9565b92915050565b600080fd5b7f4e487b7100000000000000000000000000000000000000000000000000000000600052604160045260246000fd5b61315082613017565b810181811067ffffffffffffffff8211171561316f5761316e613118565b5b80604052505050565b6000613182612e46565b905061318e8282613147565b919050565b600067ffffffffffffffff8211156131ae576131ad613118565b5b6131b782613017565b9050602081019050919050565b82818337600083830152505050565b60006131e66131e184613193565b613178565b90508281526020810184848401111561320257613201613113565b5b61320d8482856131c4565b509392505050565b600082601f83011261322a57613229612ee5565b5b813561323a8482602086016131d3565b91505092915050565b60008060006060848603121561325c5761325b612e50565b5b600061326a8682870161309a565b935050602061327b8682870161309a565b925050604084013567ffffffffffffffff81111561329c5761329b612e55565b5b6132a886828701613215565b9150509250925092565b600081519050919050565b600082825260208201905092915050565b6000819050602082019050919050565b6132e781612e7a565b82525050565b6132f681612bed565b82525050565b60408201600082015161331260008501826132de565b50602082015161332560208501826132ed565b50505050565b600061333783836132fc565b60408301905092915050565b6000602082019050919050565b600061335b826132b2565b61336581856132bd565b9350613370836132ce565b8060005b838110156133a1578151613388888261332b565b975061339383613343565b925050600181019050613374565b5085935050505092915050565b600060208201905081810360008301526133c88184613350565b905092915050565b60006133db82612e5a565b9050919050565b6133eb816133d0565b81146133f657600080fd5b50565b600081359050613408816133e2565b92915050565b6000806040838503121561342557613424612e50565b5b6000613433858286016133f9565b92505060206134448582860161309a565b9150509250929050565b61345781612e7a565b82525050565b6000602082019050613472600083018461344e565b92915050565b61348181612f4a565b82525050565b600060208201905061349c6000830184613478565b92915050565b60007fff0000000000000000000000000000000000000000000000000000000000000082169050919050565b6134d7816134a2565b82525050565b6000819050919050565b6134f0816134dd565b82525050565b600081519050919050565b600082825260208201905092915050565b6000819050602082019050919050565b600061352e83836132ed565b60208301905092915050565b6000602082019050919050565b6000613552826134f6565b61355c8185613501565b935061356783613512565b8060005b8381101561359857815161357f8882613522565b975061358a8361353a565b92505060018101905061356b565b5085935050505092915050565b600060e0820190506135ba600083018a6134ce565b81810360208301526135cc8189613028565b905081810360408301526135e08188613028565b90506135ef6060830187612df3565b6135fc608083018661344e565b61360960a08301856134e7565b81810360c083015261361b8184613547565b905098975050505050505050565b6000806000806080858703121561364357613642612e50565b5b600061365187828801612ea3565b94505060206136628782880161309a565b93505060406136738782880161309a565b925050606085013567ffffffffffffffff81111561369457613693612e55565b5b6136a087828801613215565b91505092959194509250565b60006060820190506136c16000830186612df3565b6136ce6020830185612df3565b6136db6040830184612df3565b949350505050565b60006040820190506136f8600083018561344e565b6137056020830184612df3565b9392505050565b60006080820190506137216000830187612df3565b61372e6020830186612df3565b61373b60408301856130e9565b6137486060830184613478565b95945050505050565b7f4e487b7100000000000000000000000000000000000000000000000000000000600052603260045260246000fd5b600061378b82612bed565b91506000820361379e5761379d612bf7565b5b600182039050919050565b600080fd5b82818337505050565b60006137c38385613501565b93507f07ffffffffffffffffffffffffffffffffffffffffffffffffffffffffffffff8311156137f6576137f56137a9565b5b6020830292506138078385846137ae565b82840190509392505050565b6000604082019050818103600083015261382e8185876137b7565b905061383d6020830184613478565b949350505050565b600061385082612bed565b915061385b83612bed565b92508261386b5761386a612c68565b5b828206905092915050565b600081905092915050565b600061388c82612fe2565b6138968185613876565b93506138a6818560208601612fed565b80840191505092915050565b7f2e00000000000000000000000000000000000000000000000000000000000000600082015250565b60006138e8600183613876565b91506138f3826138b2565b600182019050919050565b7f2043454c4f000000000000000000000000000000000000000000000000000000600082015250565b6000613934600583613876565b915061393f826138fe565b600582019050919050565b60006139568286613881565b9150613961826138db565b915061396d8285613881565b91506139798284613881565b915061398482613927565b9150819050949350505050565b7f43616e6e6f742073776565702062656c6f77206d696e2062616c616e63650000600082015250565b60006139c7601e83612d76565b91506139d282613991565b602082019050919050565b600060208201905081810360008301526139f6816139ba565b9050919050565b7f5377656570206661696c65640000000000000000000000000000000000000000600082015250565b6000613a33600c83612d76565b9150613a3e826139fd565b602082019050919050565b60006020820190508181036000830152613a6281613a26565b9050919050565b7f4f6e6c79206f70657261746f7200000000000000000000000000000000000000600082015250565b6000613a9f600d83612d76565b9150613aaa82613a69565b602082019050919050565b60006020820190508181036000830152613ace81613a92565b9050919050565b7f5a65726f206465706f7369740000000000000000000000000000000000000000600082015250565b6000613b0b600c83612d76565b9150613b1682613ad5565b602082019050919050565b60006020820190508181036000830152613b3a81613afe565b9050919050565b7f4f6e6c7920646f6e6f72732063616e2076696577000000000000000000000000600082015250565b6000613b77601483612d76565b9150613b8282613b41565b602082019050919050565b60006020820190508181036000830152613ba681613b6a565b9050919050565b7f5369676e61747572652065787069726564000000000000000000000000000000600082015250565b6000613be3601183612d76565b9150613bee82613bad565b602082019050919050565b60006020820190508181036000830152613c1281613bd6565b9050919050565b7f416c726561647920636c61696d65642028616464726573732900000000000000600082015250565b6000613c4f601983612d76565b9150613c5a82613c19565b602082019050919050565b60006020820190508181036000830152613c7e81613c42565b9050919050565b7f416c726561647920636c61696d65642028464944290000000000000000000000600082015250565b6000613cbb601583612d76565b9150613cc682613c85565b602082019050919050565b60006020820190508181036000830152613cea81613cae565b9050919050565b7f46494420626c61636b6c69737465640000000000000000000000000000000000600082015250565b6000613d27600f83612d76565b9150613d3282613cf1565b602082019050919050565b60006020820190508181036000830152613d5681613d1a565b9050919050565b7f5661756c742062616c616e636520746f6f206c6f770000000000000000000000600082015250565b6000613d93601583612d76565b9150613d9e82613d5d565b602082019050919050565b60006020820190508181036000830152613dc281613d86565b9050919050565b7f436f6f6c646f776e206e6f742070617373656400000000000000000000000000600082015250565b6000613dff601383612d76565b9150613e0a82613dc9565b602082019050919050565b60006020820190508181036000830152613e2e81613df2565b9050919050565b600060a082019050613e4a60008301886134e7565b613e57602083018761344e565b613e646040830186612df3565b613e716060830185612df3565b613e7e6080830184612df3565b9695505050505050565b7f496e76616c6964207369676e6174757265000000000000000000000000000000600082015250565b6000613ebe601183612d76565b9150613ec982613e88565b602082019050919050565b60006020820190508181036000830152613eed81613eb1565b9050919050565b6000613eff82612bed565b91507fffffffffffffffffffffffffffffffffffffffffffffffffffffffffffffffff8203613f3157613f30612bf7565b5b600182019050919050565b7f43454c4f207472616e73666572206661696c6564000000000000000000000000600082015250565b6000613f72601483612d76565b9150613f7d82613f3c565b602082019050919050565b60006020820190508181036000830152613fa181613f65565b9050919050565b7f4e487b7100000000000000000000000000000000000000000000000000000000600052602260045260246000fd5b60006002820490506001821680613fef57607f821691505b60208210810361400257614001613fa8565b5b50919050565b7f4e487b7100000000000000000000000000000000000000000000000000000000600052602160045260246000fd5b600060208201905061404c60008301846134e7565b92915050565b600060a08201905061406760008301886134e7565b61407460208301876134e7565b61408160408301866134e7565b61408e6060830185612df3565b61409b608083018461344e565b9695505050505050565b60006080820190506140ba60008301876134e7565b6140c760208301866130e9565b6140d460408301856134e7565b6140e160608301846134e7565b9594505050505056fea26469706673582212200837308151266ea254d74f61fc5ade32bc0aa8da6965ecda0d263bf5121b902264736f6c63430008180033",
  "linkReferences": {},
  "deployedLinkReferences": {}
}