{
  "_format": "hh-sol-artifact-1",
  "contractName": "BankOfCelo",
  "sourceName": "contracts/BankOfCelo.sol",
  "abi": [
    {
      "inputs": [
        {
          "internalType": "uint256",
          "name": "_minVaultBalance",
          "type": "uint256"
        },
        {
          "internalType": "address",
          "name": "_devWallet",
          "type": "address"
        }
      ],
      "stateMutability": "payable",
      "type": "constructor"
    },
    {
      "inputs": [],
      "name": "ECDSAInvalidSignature",
      "type": "error"
    },
    {
      "inputs": [
        {
          "internalType": "uint256",
          "name": "length",
          "type": "uint256"
        }
      ],
      "name": "ECDSAInvalidSignatureLength",
      "type": "error"
    },
    {
      "inputs": [
        {
          "internalType": "bytes32",
          "name": "s",
          "type": "bytes32"
        }
      ],
      "name": "ECDSAInvalidSignatureS",
      "type": "error"
    },
    {
      "inputs": [],
      "name": "InvalidShortString",
      "type": "error"
    },
    {
      "inputs": [
        {
          "internalType": "address",
          "name": "owner",
          "type": "address"
        }
      ],
      "name": "OwnableInvalidOwner",
      "type": "error"
    },
    {
      "inputs": [
        {
          "internalType": "address",
          "name": "account",
          "type": "address"
        }
      ],
      "name": "OwnableUnauthorizedAccount",
      "type": "error"
    },
    {
      "inputs": [],
      "name": "ReentrancyGuardReentrantCall",
      "type": "error"
    },
    {
      "inputs": [
        {
          "internalType": "string",
          "name": "str",
          "type": "string"
        }
      ],
      "name": "StringTooLong",
      "type": "error"
    },
    {
      "anonymous": false,
      "inputs": [
        {
          "indexed": false,
          "internalType": "uint256[]",
          "name": "fids",
          "type": "uint256[]"
        },
        {
          "indexed": false,
          "internalType": "bool",
          "name": "isBlacklisted",
          "type": "bool"
        }
      ],
      "name": "BlacklistUpdated",
      "type": "event"
    },
    {
      "anonymous": false,
      "inputs": [
        {
          "indexed": true,
          "internalType": "address",
          "name": "recipient",
          "type": "address"
        },
        {
          "indexed": false,
          "internalType": "uint256",
          "name": "fid",
          "type": "uint256"
        },
        {
          "indexed": false,
          "internalType": "uint256",
          "name": "amount",
          "type": "uint256"
        }
      ],
      "name": "Claimed",
      "type": "event"
    },
    {
      "anonymous": false,
      "inputs": [
        {
          "indexed": true,
          "internalType": "address",
          "name": "donor",
          "type": "address"
        },
        {
          "indexed": false,
          "internalType": "uint256",
          "name": "amount",
          "type": "uint256"
        },
        {
          "indexed": false,
          "internalType": "uint256",
          "name": "devFee",
          "type": "uint256"
        }
      ],
      "name": "Donated",
      "type": "event"
    },
    {
      "anonymous": false,
      "inputs": [
        {
          "indexed": true,
          "internalType": "address",
          "name": "donor",
          "type": "address"
        },
        {
          "indexed": false,
          "internalType": "uint8",
          "name": "newTier",
          "type": "uint8"
        }
      ],
      "name": "DonorTierUpgraded",
      "type": "event"
    },
    {
      "anonymous": false,
      "inputs": [],
      "name": "EIP712DomainChanged",
      "type": "event"
    },
    {
      "anonymous": false,
      "inputs": [
        {
          "indexed": true,
          "internalType": "address",
          "name": "donor",
          "type": "address"
        },
        {
          "indexed": false,
          "internalType": "uint256",
          "name": "amount",
          "type": "uint256"
        },
        {
          "indexed": false,
          "internalType": "uint256",
          "name": "position",
          "type": "uint256"
        }
      ],
      "name": "LeaderboardUpdated",
      "type": "event"
    },
    {
      "anonymous": false,
      "inputs": [
        {
          "indexed": true,
          "internalType": "address",
          "name": "previousOwner",
          "type": "address"
        },
        {
          "indexed": true,
          "internalType": "address",
          "name": "newOwner",
          "type": "address"
        }
      ],
      "name": "OwnershipTransferred",
      "type": "event"
    },
    {
      "inputs": [],
      "name": "DEV_FEE_PERCENT",
      "outputs": [
        {
          "internalType": "uint256",
          "name": "",
          "type": "uint256"
        }
      ],
      "stateMutability": "view",
      "type": "function"
    },
    {
      "inputs": [],
      "name": "LEADERBOARD_SIZE",
      "outputs": [
        {
          "internalType": "uint256",
          "name": "",
          "type": "uint256"
        }
      ],
      "stateMutability": "view",
      "type": "function"
    },
    {
      "inputs": [],
      "name": "MAX_CLAIM",
      "outputs": [
        {
          "internalType": "uint256",
          "name": "",
          "type": "uint256"
        }
      ],
      "stateMutability": "view",
      "type": "function"
    },
    {
      "inputs": [],
      "name": "TIER1_THRESHOLD",
      "outputs": [
        {
          "internalType": "uint256",
          "name": "",
          "type": "uint256"
        }
      ],
      "stateMutability": "view",
      "type": "function"
    },
    {
      "inputs": [],
      "name": "TIER2_THRESHOLD",
      "outputs": [
        {
          "internalType": "uint256",
          "name": "",
          "type": "uint256"
        }
      ],
      "stateMutability": "view",
      "type": "function"
    },
    {
      "inputs": [],
      "name": "TIER3_THRESHOLD",
      "outputs": [
        {
          "internalType": "uint256",
          "name": "",
          "type": "uint256"
        }
      ],
      "stateMutability": "view",
      "type": "function"
    },
    {
      "inputs": [
        {
          "internalType": "uint256",
          "name": "fid",
          "type": "uint256"
        }
      ],
      "name": "claim",
      "outputs": [],
      "stateMutability": "nonpayable",
      "type": "function"
    },
    {
      "inputs": [],
      "name": "claimCooldown",
      "outputs": [
        {
          "internalType": "uint256",
          "name": "",
          "type": "uint256"
        }
      ],
      "stateMutability": "view",
      "type": "function"
    },
    {
      "inputs": [
        {
          "internalType": "address",
          "name": "claimer",
          "type": "address"
        },
        {
          "internalType": "uint256",
          "name": "fid",
          "type": "uint256"
        },
        {
          "internalType": "uint256",
          "name": "deadline",
          "type": "uint256"
        },
        {
          "internalType": "bytes",
          "name": "signature",
          "type": "bytes"
        }
      ],
      "name": "claimGasless",
      "outputs": [],
      "stateMutability": "nonpayable",
      "type": "function"
    },
    {
      "inputs": [],
      "name": "devWallet",
      "outputs": [
        {
          "internalType": "address",
          "name": "",
          "type": "address"
        }
      ],
      "stateMutability": "view",
      "type": "function"
    },
    {
      "inputs": [],
      "name": "donate",
      "outputs": [],
      "stateMutability": "payable",
      "type": "function"
    },
    {
      "inputs": [
        {
          "internalType": "address",
          "name": "",
          "type": "address"
        }
      ],
      "name": "donors",
      "outputs": [
        {
          "internalType": "uint256",
          "name": "totalDonated",
          "type": "uint256"
        },
        {
          "internalType": "uint256",
          "name": "lastDonationTime",
          "type": "uint256"
        },
        {
          "internalType": "uint8",
          "name": "tier",
          "type": "uint8"
        },
        {
          "internalType": "bool",
          "name": "hasClaimed",
          "type": "bool"
        }
      ],
      "stateMutability": "view",
      "type": "function"
    },
    {
      "inputs": [],
      "name": "eip712Domain",
      "outputs": [
        {
          "internalType": "bytes1",
          "name": "fields",
          "type": "bytes1"
        },
        {
          "internalType": "string",
          "name": "name",
          "type": "string"
        },
        {
          "internalType": "string",
          "name": "version",
          "type": "string"
        },
        {
          "internalType": "uint256",
          "name": "chainId",
          "type": "uint256"
        },
        {
          "internalType": "address",
          "name": "verifyingContract",
          "type": "address"
        },
        {
          "internalType": "bytes32",
          "name": "salt",
          "type": "bytes32"
        },
        {
          "internalType": "uint256[]",
          "name": "extensions",
          "type": "uint256[]"
        }
      ],
      "stateMutability": "view",
      "type": "function"
    },
    {
      "inputs": [
        {
          "internalType": "uint256",
          "name": "",
          "type": "uint256"
        }
      ],
      "name": "fidBlacklisted",
      "outputs": [
        {
          "internalType": "bool",
          "name": "",
          "type": "bool"
        }
      ],
      "stateMutability": "view",
      "type": "function"
    },
    {
      "inputs": [
        {
          "internalType": "uint256",
          "name": "",
          "type": "uint256"
        }
      ],
      "name": "fidClaimed",
      "outputs": [
        {
          "internalType": "bool",
          "name": "",
          "type": "bool"
        }
      ],
      "stateMutability": "view",
      "type": "function"
    },
    {
      "inputs": [],
      "name": "getBalanceWithAccessControl",
      "outputs": [
        {
          "internalType": "uint256",
          "name": "",
          "type": "uint256"
        }
      ],
      "stateMutability": "view",
      "type": "function"
    },
    {
      "inputs": [
        {
          "internalType": "address",
          "name": "donor",
          "type": "address"
        }
      ],
      "name": "getDonorRank",
      "outputs": [
        {
          "internalType": "uint256",
          "name": "",
          "type": "uint256"
        }
      ],
      "stateMutability": "view",
      "type": "function"
    },
    {
      "inputs": [
        {
          "internalType": "address",
          "name": "donor",
          "type": "address"
        }
      ],
      "name": "getDonorTier",
      "outputs": [
        {
          "internalType": "uint8",
          "name": "",
          "type": "uint8"
        }
      ],
      "stateMutability": "view",
      "type": "function"
    },
    {
      "inputs": [],
      "name": "getFormattedBalance",
      "outputs": [
        {
          "internalType": "string",
          "name": "",
          "type": "string"
        }
      ],
      "stateMutability": "view",
      "type": "function"
    },
    {
      "inputs": [],
      "name": "getLeaderboard",
      "outputs": [
        {
          "components": [
            {
              "internalType": "address",
              "name": "donor",
              "type": "address"
            },
            {
              "internalType": "uint256",
              "name": "amount",
              "type": "uint256"
            }
          ],
          "internalType": "struct BankOfCelo.LeaderboardEntry[]",
          "name": "",
          "type": "tuple[]"
        }
      ],
      "stateMutability": "view",
      "type": "function"
    },
    {
      "inputs": [
        {
          "internalType": "uint256",
          "name": "totalDonated",
          "type": "uint256"
        }
      ],
      "name": "getTier",
      "outputs": [
        {
          "internalType": "uint8",
          "name": "",
          "type": "uint8"
        }
      ],
      "stateMutability": "pure",
      "type": "function"
    },
    {
      "inputs": [],
      "name": "getVaultStatus",
      "outputs": [
        {
          "internalType": "uint256",
          "name": "currentBalance",
          "type": "uint256"
        },
        {
          "internalType": "uint256",
          "name": "minReserve",
          "type": "uint256"
        },
        {
          "internalType": "uint256",
          "name": "availableForClaims",
          "type": "uint256"
        }
      ],
      "stateMutability": "view",
      "type": "function"
    },
    {
      "inputs": [
        {
          "internalType": "address",
          "name": "",
          "type": "address"
        }
      ],
      "name": "lastClaimAt",
      "outputs": [
        {
          "internalType": "uint256",
          "name": "",
          "type": "uint256"
        }
      ],
      "stateMutability": "view",
      "type": "function"
    },
    {
      "inputs": [],
      "name": "lastPublishedBalance",
      "outputs": [
        {
          "internalType": "uint256",
          "name": "",
          "type": "uint256"
        }
      ],
      "stateMutability": "view",
      "type": "function"
    },
    {
      "inputs": [],
      "name": "lastPublishedTime",
      "outputs": [
        {
          "internalType": "uint256",
          "name": "",
          "type": "uint256"
        }
      ],
      "stateMutability": "view",
      "type": "function"
    },
    {
      "inputs": [
        {
          "internalType": "uint256",
          "name": "",
          "type": "uint256"
        }
      ],
      "name": "leaderboard",
      "outputs": [
        {
          "internalType": "address",
          "name": "donor",
          "type": "address"
        },
        {
          "internalType": "uint256",
          "name": "amount",
          "type": "uint256"
        }
      ],
      "stateMutability": "view",
      "type": "function"
    },
    {
      "inputs": [],
      "name": "minLeaderboardAmount",
      "outputs": [
        {
          "internalType": "uint256",
          "name": "",
          "type": "uint256"
        }
      ],
      "stateMutability": "view",
      "type": "function"
    },
    {
      "inputs": [],
      "name": "minVaultBalance",
      "outputs": [
        {
          "internalType": "uint256",
          "name": "",
          "type": "uint256"
        }
      ],
      "stateMutability": "view",
      "type": "function"
    },
    {
      "inputs": [],
      "name": "owner",
      "outputs": [
        {
          "internalType": "address",
          "name": "",
          "type": "address"
        }
      ],
      "stateMutability": "view",
      "type": "function"
    },
    {
      "inputs": [],
      "name": "publishBalance",
      "outputs": [],
      "stateMutability": "nonpayable",
      "type": "function"
    },
    {
      "inputs": [],
      "name": "renounceOwnership",
      "outputs": [],
      "stateMutability": "nonpayable",
      "type": "function"
    },
    {
      "inputs": [
        {
          "internalType": "uint256",
          "name": "seconds_",
          "type": "uint256"
        }
      ],
      "name": "setClaimCooldown",
      "outputs": [],
      "stateMutability": "nonpayable",
      "type": "function"
    },
    {
      "inputs": [
        {
          "internalType": "address payable",
          "name": "to",
          "type": "address"
        },
        {
          "internalType": "uint256",
          "name": "amount",
          "type": "uint256"
        }
      ],
      "name": "sweep",
      "outputs": [],
      "stateMutability": "nonpayable",
      "type": "function"
    },
    {
      "inputs": [
        {
          "internalType": "address",
          "name": "newOwner",
          "type": "address"
        }
      ],
      "name": "transferOwnership",
      "outputs": [],
      "stateMutability": "nonpayable",
      "type": "function"
    },
    {
      "inputs": [
        {
          "internalType": "uint256[]",
          "name": "fids",
          "type": "uint256[]"
        },
        {
          "internalType": "bool",
          "name": "isBlacklisted",
          "type": "bool"
        }
      ],
      "name": "updateBlacklist",
      "outputs": [],
      "stateMutability": "nonpayable",
      "type": "function"
    },
    {
      "stateMutability": "payable",
      "type": "receive"
    }
  ],
  "bytecode": "0x6101a06040526000600655600060d35560405162004da038038062004da083398181016040528101906200003491906200052c565b6040518060400160405280600a81526020017f42616e6b4f6643656c6f000000000000000000000000000000000000000000008152506040518060400160405280600181526020017f310000000000000000000000000000000000000000000000000000000000000081525033600073ffffffffffffffffffffffffffffffffffffffff168173ffffffffffffffffffffffffffffffffffffffff1603620001165760006040517f1e4fbdf70000000000000000000000000000000000000000000000000000000081526004016200010d919062000584565b60405180910390fd5b62000127816200029760201b60201c565b5060018081905550620001456002836200035b60201b90919060201c565b6101208181525050620001636003826200035b60201b90919060201c565b6101408181525050818051906020012060e08181525050808051906020012061010081815250504660a08181525050620001a2620003b360201b60201c565b608081815250503073ffffffffffffffffffffffffffffffffffffffff1660c08173ffffffffffffffffffffffffffffffffffffffff16815250505050600073ffffffffffffffffffffffffffffffffffffffff168173ffffffffffffffffffffffffffffffffffffffff160362000251576040517f08c379a0000000000000000000000000000000000000000000000000000000008152600401620002489062000602565b60405180910390fd5b8161016081815250508073ffffffffffffffffffffffffffffffffffffffff166101808173ffffffffffffffffffffffffffffffffffffffff1681525050505062000b48565b60008060009054906101000a900473ffffffffffffffffffffffffffffffffffffffff169050816000806101000a81548173ffffffffffffffffffffffffffffffffffffffff021916908373ffffffffffffffffffffffffffffffffffffffff1602179055508173ffffffffffffffffffffffffffffffffffffffff168173ffffffffffffffffffffffffffffffffffffffff167f8be0079c531659141344cd1fd0a4f28419497f9722a3daafe3b4186f6b6457e060405160405180910390a35050565b6000602083511015620003815762000379836200041060201b60201c565b9050620003ad565b8262000393836200047d60201b60201c565b6000019081620003a4919062000894565b5060ff60001b90505b92915050565b60007f8b73c3c69bb8fe3d512ecc4cf759cc79239f7b179b0ffacaa9a75d522b39400f60e051610100514630604051602001620003f5959493929190620009a7565b60405160208183030381529060405280519060200120905090565b600080829050601f815111156200046057826040517f305a27a900000000000000000000000000000000000000000000000000000000815260040162000457919062000a82565b60405180910390fd5b8051816200046e9062000ad8565b60001c1760001b915050919050565b6000819050919050565b600080fd5b6000819050919050565b620004a1816200048c565b8114620004ad57600080fd5b50565b600081519050620004c18162000496565b92915050565b600073ffffffffffffffffffffffffffffffffffffffff82169050919050565b6000620004f482620004c7565b9050919050565b6200050681620004e7565b81146200051257600080fd5b50565b6000815190506200052681620004fb565b92915050565b6000806040838503121562000546576200054562000487565b5b60006200055685828601620004b0565b9250506020620005698582860162000515565b9150509250929050565b6200057e81620004e7565b82525050565b60006020820190506200059b600083018462000573565b92915050565b600082825260208201905092915050565b7f496e76616c6964206465762077616c6c65740000000000000000000000000000600082015250565b6000620005ea601283620005a1565b9150620005f782620005b2565b602082019050919050565b600060208201905081810360008301526200061d81620005db565b9050919050565b600081519050919050565b7f4e487b7100000000000000000000000000000000000000000000000000000000600052604160045260246000fd5b7f4e487b7100000000000000000000000000000000000000000000000000000000600052602260045260246000fd5b60006002820490506001821680620006a657607f821691505b602082108103620006bc57620006bb6200065e565b5b50919050565b60008190508160005260206000209050919050565b60006020601f8301049050919050565b600082821b905092915050565b600060088302620007267fffffffffffffffffffffffffffffffffffffffffffffffffffffffffffffffff82620006e7565b620007328683620006e7565b95508019841693508086168417925050509392505050565b6000819050919050565b6000620007756200076f62000769846200048c565b6200074a565b6200048c565b9050919050565b6000819050919050565b620007918362000754565b620007a9620007a0826200077c565b848454620006f4565b825550505050565b600090565b620007c0620007b1565b620007cd81848462000786565b505050565b5b81811015620007f557620007e9600082620007b6565b600181019050620007d3565b5050565b601f82111562000844576200080e81620006c2565b6200081984620006d7565b8101602085101562000829578190505b620008416200083885620006d7565b830182620007d2565b50505b505050565b600082821c905092915050565b6000620008696000198460080262000849565b1980831691505092915050565b600062000884838362000856565b9150826002028217905092915050565b6200089f8262000624565b67ffffffffffffffff811115620008bb57620008ba6200062f565b5b620008c782546200068d565b620008d4828285620007f9565b600060209050601f8311600181146200090c5760008415620008f7578287015190505b62000903858262000876565b86555062000973565b601f1984166200091c86620006c2565b60005b8281101562000946578489015182556001820191506020850194506020810190506200091f565b8683101562000966578489015162000962601f89168262000856565b8355505b6001600288020188555050505b505050505050565b6000819050919050565b62000990816200097b565b82525050565b620009a1816200048c565b82525050565b600060a082019050620009be600083018862000985565b620009cd602083018762000985565b620009dc604083018662000985565b620009eb606083018562000996565b620009fa608083018462000573565b9695505050505050565b60005b8381101562000a2457808201518184015260208101905062000a07565b60008484015250505050565b6000601f19601f8301169050919050565b600062000a4e8262000624565b62000a5a8185620005a1565b935062000a6c81856020860162000a04565b62000a778162000a30565b840191505092915050565b6000602082019050818103600083015262000a9e818462000a41565b905092915050565b600081519050919050565b6000819050602082019050919050565b600062000acf82516200097b565b80915050919050565b600062000ae58262000aa6565b8262000af18462000ab1565b905062000afe8162000ac1565b9250602082101562000b415762000b3c7fffffffffffffffffffffffffffffffffffffffffffffffffffffffffffffffff83602003600802620006e7565b831692505b5050919050565b60805160a05160c05160e05161010051610120516101405161016051610180516141bd62000be3600039600081816102bd01528181611d640152612057015260008181610d3901528181611221015281816114b8015281816119f70152611d90015260006125dc015260006125a101526000612b1701526000612af601526000612612015260006126680152600061269101526141bd6000f3fe6080604052600436106102085760003560e01c80636ea056a911610118578063bf368399116100a0578063ee34b1b91161006f578063ee34b1b914610931578063f2fde38b1461095c578063f3cacef514610985578063f7d870c51461099c578063fdea3657146109d9576103d7565b8063bf3683991461086c578063ca0cdea8146108aa578063d993d826146108ea578063ed88c68e14610927576103d7565b806384b0196e116100e757806384b0196e1461078d5780638da5cb5b146107be5780638e5572c0146107e95780638ea5220f14610814578063aede67ea1461083f576103d7565b80636ea056a9146106d3578063715018a6146106fc5780637f0ada3e1461071357806380e1396d14610750576103d7565b8063379607f51161019b5780634f085f421161016a5780634f085f42146105fe57806359c9eb90146106295780635e6a645e14610652578063642ce3551461067d5780636d763a6e146106a8576103d7565b8063379607f5146105425780633eb8edf11461056b57806342dfac72146105965780634f062c5a146105c1576103d7565b80631483255e116101d75780631483255e1461049a57806315eb90f7146104c55780632ca9d584146104ee5780632ee4120e14610519576103d7565b806301b65b71146103dc57806303822d3b14610407578063086d2c8714610444578063111d3f6b1461046f576103d7565b366103d7576000606460053461021e9190612d88565b6102289190612df9565b9050600081346102389190612e2a565b90506000600760003373ffffffffffffffffffffffffffffffffffffffff1673ffffffffffffffffffffffffffffffffffffffff1681526020019081526020016000209050818160000160008282546102919190612e5e565b9250508190555042816001018190555060008211156102b9576102b8338260000154610a04565b5b60007f000000000000000000000000000000000000000000000000000000000000000073ffffffffffffffffffffffffffffffffffffffff16846040516102ff90612ec3565b60006040518083038185875af1925050503d806000811461033c576040519150601f19603f3d011682016040523d82523d6000602084013e610341565b606091505b5050905080610385576040517f08c379a000000000000000000000000000000000000000000000000000000000815260040161037c90612f35565b60405180910390fd5b3373ffffffffffffffffffffffffffffffffffffffff167f4928895ba6723e8e27b15f32e4c3054a1b6c7f8c03f133558d6fa42b3928d14c84866040516103cd929190612f64565b60405180910390a2005b600080fd5b3480156103e857600080fd5b506103f1610caf565b6040516103fe9190612f8d565b60405180910390f35b34801561041357600080fd5b5061042e6004803603810190610429919061301a565b610cbb565b60405161043b9190612f8d565b60405180910390f35b34801561045057600080fd5b50610459610cd3565b6040516104669190612f8d565b60405180910390f35b34801561047b57600080fd5b50610484610ce0565b6040516104919190612f8d565b60405180910390f35b3480156104a657600080fd5b506104af610ce6565b6040516104bc9190612f8d565b60405180910390f35b3480156104d157600080fd5b506104ec60048036038101906104e791906131b9565b610cec565b005b3480156104fa57600080fd5b5061050361121f565b6040516105109190612f8d565b60405180910390f35b34801561052557600080fd5b50610540600480360381019061053b91906132d4565b611243565b005b34801561054e57600080fd5b5061056960048036038101906105649190613334565b6112e9565b005b34801561057757600080fd5b5061058061176d565b60405161058d91906133cf565b60405180910390f35b3480156105a257600080fd5b506105ab611845565b6040516105b89190612f8d565b60405180910390f35b3480156105cd57600080fd5b506105e860048036038101906105e39190613334565b611852565b6040516105f5919061340d565b60405180910390f35b34801561060a57600080fd5b506106136118a8565b6040516106209190612f8d565b60405180910390f35b34801561063557600080fd5b50610650600480360381019061064b9190613334565b6118ad565b005b34801561065e57600080fd5b506106676118bf565b6040516106749190612f8d565b60405180910390f35b34801561068957600080fd5b506106926118c4565b60405161069f9190612f8d565b60405180910390f35b3480156106b457600080fd5b506106bd6118d0565b6040516106ca9190613524565b60405180910390f35b3480156106df57600080fd5b506106fa60048036038101906106f59190613584565b6119ed565b005b34801561070857600080fd5b50610711611b14565b005b34801561071f57600080fd5b5061073a60048036038101906107359190613334565b611b28565b60405161074791906135d3565b60405180910390f35b34801561075c57600080fd5b506107776004803603810190610772919061301a565b611b48565b6040516107849190612f8d565b60405180910390f35b34801561079957600080fd5b506107a2611c89565b6040516107b59796959493929190613700565b60405180910390f35b3480156107ca57600080fd5b506107d3611d33565b6040516107e09190613784565b60405180910390f35b3480156107f557600080fd5b506107fe611d5c565b60405161080b9190612f8d565b60405180910390f35b34801561082057600080fd5b50610829611d62565b6040516108369190613784565b60405180910390f35b34801561084b57600080fd5b50610854611d86565b6040516108639392919061379f565b60405180910390f35b34801561087857600080fd5b50610893600480360381019061088e9190613334565b611dd3565b6040516108a19291906137d6565b60405180910390f35b3480156108b657600080fd5b506108d160048036038101906108cc919061301a565b611e1d565b6040516108e194939291906137ff565b60405180910390f35b3480156108f657600080fd5b50610911600480360381019061090c919061301a565b611e67565b60405161091e919061340d565b60405180910390f35b61092f611ec0565b005b34801561093d57600080fd5b5061094661217e565b6040516109539190612f8d565b60405180910390f35b34801561096857600080fd5b50610983600480360381019061097e919061301a565b612212565b005b34801561099157600080fd5b5061099a612298565b005b3480156109a857600080fd5b506109c360048036038101906109be9190613334565b6122c4565b6040516109d091906135d3565b60405180910390f35b3480156109e557600080fd5b506109ee6122e4565b6040516109fb9190612f8d565b60405180910390f35b60d35481108015610a3d575080600b60016064610a219190612e2a565b60648110610a3257610a31613844565b5b600202016001015410155b610cab5760007fffffffffffffffffffffffffffffffffffffffffffffffffffffffffffffffff905060005b6064811015610aaa57600b8160648110610a8657610a85613844565b5b6002020160010154831115610a9d57809150610aaa565b8080600101915050610a69565b5060008112610ca957600060016064610ac39190612e2a565b90505b81811115610b9157600b600182610add9190612e2a565b60648110610aee57610aed613844565b5b60020201600b8260648110610b0657610b05613844565b5b600202016000820160009054906101000a900473ffffffffffffffffffffffffffffffffffffffff168160000160006101000a81548173ffffffffffffffffffffffffffffffffffffffff021916908373ffffffffffffffffffffffffffffffffffffffff160217905550600182015481600101559050508080610b8990613873565b915050610ac6565b5060405180604001604052808473ffffffffffffffffffffffffffffffffffffffff16815260200183815250600b8260648110610bd157610bd0613844565b5b6002020160008201518160000160006101000a81548173ffffffffffffffffffffffffffffffffffffffff021916908373ffffffffffffffffffffffffffffffffffffffff16021790555060208201518160010155905050600b60016064610c399190612e2a565b60648110610c4a57610c49613844565b5b600202016001015460d3819055508273ffffffffffffffffffffffffffffffffffffffff167f5c874adf9d1c93ab636130bb7e727993f1d6a3d33d1ffd925556815d0eec23088383604051610ca0929190612f64565b60405180910390a25b505b5050565b6706f05b59d3b2000081565b600a6020528060005260406000206000915090505481565b6802b5e3af16b188000081565b60045481565b60055481565b610cf46122ea565b42821015610d37576040517f08c379a0000000000000000000000000000000000000000000000000000000008152600401610d2e906138e8565b60405180910390fd5b7f00000000000000000000000000000000000000000000000000000000000000006706f05b59d3b20000610d6b9190612e5e565b471015610dad576040517f08c379a0000000000000000000000000000000000000000000000000000000008152600401610da490613954565b60405180910390fd5b6000610e047ff6a536b1e1791ecd8a7fe6503b8773056aba218356a2483617f30d8d83a0cc1b868686604051602001610de99493929190613974565b60405160208183030381529060405280519060200120612330565b90506000610e12828461234a565b90508573ffffffffffffffffffffffffffffffffffffffff168173ffffffffffffffffffffffffffffffffffffffff1614610e82576040517f08c379a0000000000000000000000000000000000000000000000000000000008152600401610e7990613a05565b60405180910390fd5b6000600760008873ffffffffffffffffffffffffffffffffffffffff1673ffffffffffffffffffffffffffffffffffffffff16815260200190815260200160002090508060020160019054906101000a900460ff1615610f17576040517f08c379a0000000000000000000000000000000000000000000000000000000008152600401610f0e90613a71565b60405180910390fd5b6008600087815260200190815260200160002060009054906101000a900460ff1615610f78576040517f08c379a0000000000000000000000000000000000000000000000000000000008152600401610f6f90613add565b60405180910390fd5b6009600087815260200190815260200160002060009054906101000a900460ff1615610fd9576040517f08c379a0000000000000000000000000000000000000000000000000000000008152600401610fd090613b49565b60405180910390fd5b6000600654111561107457600654600a60008973ffffffffffffffffffffffffffffffffffffffff1673ffffffffffffffffffffffffffffffffffffffff16815260200190815260200160002054426110329190612e2a565b1015611073576040517f08c379a000000000000000000000000000000000000000000000000000000000815260040161106a90613bb5565b60405180910390fd5b5b60018160020160016101000a81548160ff02191690831515021790555060016008600088815260200190815260200160002060006101000a81548160ff02191690831515021790555042600a60008973ffffffffffffffffffffffffffffffffffffffff1673ffffffffffffffffffffffffffffffffffffffff1681526020019081526020016000208190555060008773ffffffffffffffffffffffffffffffffffffffff166706f05b59d3b2000060405161112f90612ec3565b60006040518083038185875af1925050503d806000811461116c576040519150601f19603f3d011682016040523d82523d6000602084013e611171565b606091505b50509050806111b5576040517f08c379a00000000000000000000000000000000000000000000000000000000081526004016111ac90613c21565b60405180910390fd5b8773ffffffffffffffffffffffffffffffffffffffff167f987d620f307ff6b94d58743cb7a7509f24071586a77759b77c2d4e29f75a2f9a886706f05b59d3b20000604051611205929190612f64565b60405180910390a250505050611219612376565b50505050565b7f000000000000000000000000000000000000000000000000000000000000000081565b61124b61237f565b60005b838390508110156112a857816009600086868581811061127157611270613844565b5b90506020020135815260200190815260200160002060006101000a81548160ff02191690831515021790555080600101905061124e565b507fd96fb5d90b3a668bd44562db58d63b28ecbb0ad725089b91009fd6d67dd578528383836040516112dc93929190613cab565b60405180910390a1505050565b6112f16122ea565b3373ffffffffffffffffffffffffffffffffffffffff163273ffffffffffffffffffffffffffffffffffffffff161461135f576040517f08c379a000000000000000000000000000000000000000000000000000000000815260040161135690613d29565b60405180910390fd5b6000600760003373ffffffffffffffffffffffffffffffffffffffff1673ffffffffffffffffffffffffffffffffffffffff16815260200190815260200160002090508060020160019054906101000a900460ff16156113f4576040517f08c379a00000000000000000000000000000000000000000000000000000000081526004016113eb90613a71565b60405180910390fd5b6008600083815260200190815260200160002060009054906101000a900460ff1615611455576040517f08c379a000000000000000000000000000000000000000000000000000000000815260040161144c90613add565b60405180910390fd5b6009600083815260200190815260200160002060009054906101000a900460ff16156114b6576040517f08c379a00000000000000000000000000000000000000000000000000000000081526004016114ad90613b49565b60405180910390fd5b7f00000000000000000000000000000000000000000000000000000000000000006706f05b59d3b200006114ea9190612e5e565b47101561152c576040517f08c379a000000000000000000000000000000000000000000000000000000000815260040161152390613954565b60405180910390fd5b600060065411156115c757600654600a60003373ffffffffffffffffffffffffffffffffffffffff1673ffffffffffffffffffffffffffffffffffffffff16815260200190815260200160002054426115859190612e2a565b10156115c6576040517f08c379a00000000000000000000000000000000000000000000000000000000081526004016115bd90613bb5565b60405180910390fd5b5b60018160020160016101000a81548160ff02191690831515021790555060016008600084815260200190815260200160002060006101000a81548160ff02191690831515021790555042600a60003373ffffffffffffffffffffffffffffffffffffffff1673ffffffffffffffffffffffffffffffffffffffff1681526020019081526020016000208190555060003373ffffffffffffffffffffffffffffffffffffffff166706f05b59d3b2000060405161168290612ec3565b60006040518083038185875af1925050503d80600081146116bf576040519150601f19603f3d011682016040523d82523d6000602084013e6116c4565b606091505b5050905080611708576040517f08c379a00000000000000000000000000000000000000000000000000000000081526004016116ff90613c21565b60405180910390fd5b3373ffffffffffffffffffffffffffffffffffffffff167f987d620f307ff6b94d58743cb7a7509f24071586a77759b77c2d4e29f75a2f9a846706f05b59d3b20000604051611758929190612f64565b60405180910390a2505061176a612376565b50565b606060004790506000670de0b6b3a76400008261178a9190612df9565b90506000662386f26fc10000670de0b6b3a7640000846117aa9190613d49565b6117b49190612df9565b90506117bf82612406565b600a82106117dc5760405180602001604052806000815250611813565b6040518060400160405280600181526020017f30000000000000000000000000000000000000000000000000000000000000008152505b61181c83612406565b60405160200161182e93929190613e4e565b604051602081830303815290604052935050505090565b68056bc75e2d6310000081565b600068056bc75e2d63100000821061186d57600390506118a3565b6802b5e3af16b1880000821061188657600290506118a3565b678ac7230489e80000821061189e57600190506118a3565b600090505b919050565b606481565b6118b561237f565b8060068190555050565b600581565b678ac7230489e8000081565b60606000606467ffffffffffffffff8111156118ef576118ee61308e565b5b60405190808252806020026020018201604052801561192857816020015b611915612d1f565b81526020019060019003908161190d5790505b50905060005b60648110156119e557600b816064811061194b5761194a613844565b5b600202016040518060400160405290816000820160009054906101000a900473ffffffffffffffffffffffffffffffffffffffff1673ffffffffffffffffffffffffffffffffffffffff1673ffffffffffffffffffffffffffffffffffffffff1681526020016001820154815250508282815181106119cd576119cc613844565b5b6020026020010181905250808060010191505061192e565b508091505090565b6119f561237f565b7f00000000000000000000000000000000000000000000000000000000000000008147611a229190612e2a565b1015611a63576040517f08c379a0000000000000000000000000000000000000000000000000000000008152600401611a5a90613ee1565b60405180910390fd5b60008273ffffffffffffffffffffffffffffffffffffffff1682604051611a8990612ec3565b60006040518083038185875af1925050503d8060008114611ac6576040519150601f19603f3d011682016040523d82523d6000602084013e611acb565b606091505b5050905080611b0f576040517f08c379a0000000000000000000000000000000000000000000000000000000008152600401611b0690613f4d565b60405180910390fd5b505050565b611b1c61237f565b611b2660006124d4565b565b60086020528060005260406000206000915054906101000a900460ff1681565b600080600760008473ffffffffffffffffffffffffffffffffffffffff1673ffffffffffffffffffffffffffffffffffffffff16815260200190815260200160002060000154905060008103611bc1577fffffffffffffffffffffffffffffffffffffffffffffffffffffffffffffffff915050611c84565b60005b6064811015611c5e578373ffffffffffffffffffffffffffffffffffffffff16600b8260648110611bf857611bf7613844565b5b6002020160000160009054906101000a900473ffffffffffffffffffffffffffffffffffffffff1673ffffffffffffffffffffffffffffffffffffffff1603611c5157600181611c489190612e5e565b92505050611c84565b8080600101915050611bc4565b507fffffffffffffffffffffffffffffffffffffffffffffffffffffffffffffffff9150505b919050565b600060608060008060006060611c9d612598565b611ca56125d3565b46306000801b600067ffffffffffffffff811115611cc657611cc561308e565b5b604051908082528060200260200182016040528015611cf45781602001602082028036833780820191505090505b507f0f00000000000000000000000000000000000000000000000000000000000000959493929190965096509650965096509650965090919293949596565b60008060009054906101000a900473ffffffffffffffffffffffffffffffffffffffff16905090565b60d35481565b7f000000000000000000000000000000000000000000000000000000000000000081565b60008060004792507f00000000000000000000000000000000000000000000000000000000000000009150818311611dbf576000611dcc565b8183611dcb9190612e2a565b5b9050909192565b600b8160648110611de357600080fd5b600202016000915090508060000160009054906101000a900473ffffffffffffffffffffffffffffffffffffffff16908060010154905082565b60076020528060005260406000206000915090508060000154908060010154908060020160009054906101000a900460ff16908060020160019054906101000a900460ff16905084565b6000600760008373ffffffffffffffffffffffffffffffffffffffff1673ffffffffffffffffffffffffffffffffffffffff16815260200190815260200160002060020160009054906101000a900460ff169050919050565b611ec86122ea565b60003411611f0b576040517f08c379a0000000000000000000000000000000000000000000000000000000008152600401611f0290613fb9565b60405180910390fd5b60006064600534611f1c9190612d88565b611f269190612df9565b905060008134611f369190612e2a565b90506000600760003373ffffffffffffffffffffffffffffffffffffffff1673ffffffffffffffffffffffffffffffffffffffff168152602001908152602001600020905081816000016000828254611f8f9190612e5e565b925050819055504281600101819055506000821115611fb757611fb6338260000154610a04565b5b6000611fc68260000154611852565b90508160020160009054906101000a900460ff1660ff168160ff16111561205357808260020160006101000a81548160ff021916908360ff1602179055503373ffffffffffffffffffffffffffffffffffffffff167f246b818ff1a781a9edc2a72cdccb95bb6bbbf3387e8f6934fd5a48b17ccb1c358260405161204a919061340d565b60405180910390a25b60007f000000000000000000000000000000000000000000000000000000000000000073ffffffffffffffffffffffffffffffffffffffff168560405161209990612ec3565b60006040518083038185875af1925050503d80600081146120d6576040519150601f19603f3d011682016040523d82523d6000602084013e6120db565b606091505b505090508061211f576040517f08c379a000000000000000000000000000000000000000000000000000000000815260040161211690612f35565b60405180910390fd5b3373ffffffffffffffffffffffffffffffffffffffff167f4928895ba6723e8e27b15f32e4c3054a1b6c7f8c03f133558d6fa42b3928d14c8587604051612167929190612f64565b60405180910390a2505050505061217c612376565b565b600067016345785d8a0000600760003373ffffffffffffffffffffffffffffffffffffffff1673ffffffffffffffffffffffffffffffffffffffff168152602001908152602001600020600001541161220c576040517f08c379a000000000000000000000000000000000000000000000000000000000815260040161220390614025565b60405180910390fd5b47905090565b61221a61237f565b600073ffffffffffffffffffffffffffffffffffffffff168173ffffffffffffffffffffffffffffffffffffffff160361228c5760006040517f1e4fbdf70000000000000000000000000000000000000000000000000000000081526004016122839190613784565b60405180910390fd5b612295816124d4565b50565b620151806005546122a99190612e5e565b42116122b457600080fd5b4760048190555042600581905550565b60096020528060005260406000206000915054906101000a900460ff1681565b60065481565b600260015403612326576040517f3ee5aeb500000000000000000000000000000000000000000000000000000000815260040160405180910390fd5b6002600181905550565b600061234361233d61260e565b836126c5565b9050919050565b60008060008061235a8686612706565b92509250925061236a8282612762565b82935050505092915050565b60018081905550565b6123876128c6565b73ffffffffffffffffffffffffffffffffffffffff166123a5611d33565b73ffffffffffffffffffffffffffffffffffffffff1614612404576123c86128c6565b6040517f118cdaa70000000000000000000000000000000000000000000000000000000081526004016123fb9190613784565b60405180910390fd5b565b606060006001612415846128ce565b01905060008167ffffffffffffffff8111156124345761243361308e565b5b6040519080825280601f01601f1916602001820160405280156124665781602001600182028036833780820191505090505b509050600082602001820190505b6001156124c9578080600190039150507f3031323334353637383961626364656600000000000000000000000000000000600a86061a8153600a85816124bd576124bc612dca565b5b04945060008503612474575b819350505050919050565b60008060009054906101000a900473ffffffffffffffffffffffffffffffffffffffff169050816000806101000a81548173ffffffffffffffffffffffffffffffffffffffff021916908373ffffffffffffffffffffffffffffffffffffffff1602179055508173ffffffffffffffffffffffffffffffffffffffff168173ffffffffffffffffffffffffffffffffffffffff167f8be0079c531659141344cd1fd0a4f28419497f9722a3daafe3b4186f6b6457e060405160405180910390a35050565b60606125ce60027f0000000000000000000000000000000000000000000000000000000000000000612a2190919063ffffffff16565b905090565b606061260960037f0000000000000000000000000000000000000000000000000000000000000000612a2190919063ffffffff16565b905090565b60007f000000000000000000000000000000000000000000000000000000000000000073ffffffffffffffffffffffffffffffffffffffff163073ffffffffffffffffffffffffffffffffffffffff1614801561268a57507f000000000000000000000000000000000000000000000000000000000000000046145b156126b7577f000000000000000000000000000000000000000000000000000000000000000090506126c2565b6126bf612ad1565b90505b90565b60006040517f190100000000000000000000000000000000000000000000000000000000000081528360028201528260228201526042812091505092915050565b6000806000604184510361274b5760008060006020870151925060408701519150606087015160001a905061273d88828585612b67565b95509550955050505061275b565b60006002855160001b9250925092505b9250925092565b6000600381111561277657612775614045565b5b82600381111561278957612788614045565b5b03156128c257600160038111156127a3576127a2614045565b5b8260038111156127b6576127b5614045565b5b036127ed576040517ff645eedf00000000000000000000000000000000000000000000000000000000815260040160405180910390fd5b6002600381111561280157612800614045565b5b82600381111561281457612813614045565b5b03612859578060001c6040517ffce698f70000000000000000000000000000000000000000000000000000000081526004016128509190612f8d565b60405180910390fd5b60038081111561286c5761286b614045565b5b82600381111561287f5761287e614045565b5b036128c157806040517fd78bce0c0000000000000000000000000000000000000000000000000000000081526004016128b89190614074565b60405180910390fd5b5b5050565b600033905090565b600080600090507a184f03e93ff9f4daa797ed6e38ed64bf6a1f010000000000000000831061292c577a184f03e93ff9f4daa797ed6e38ed64bf6a1f010000000000000000838161292257612921612dca565b5b0492506040810190505b6d04ee2d6d415b85acef81000000008310612969576d04ee2d6d415b85acef8100000000838161295f5761295e612dca565b5b0492506020810190505b662386f26fc10000831061299857662386f26fc10000838161298e5761298d612dca565b5b0492506010810190505b6305f5e10083106129c1576305f5e10083816129b7576129b6612dca565b5b0492506008810190505b61271083106129e65761271083816129dc576129db612dca565b5b0492506004810190505b60648310612a0957606483816129ff576129fe612dca565b5b0492506002810190505b600a8310612a18576001810190505b80915050919050565b606060ff60001b8314612a3e57612a3783612c5b565b9050612acb565b818054612a4a906140be565b80601f0160208091040260200160405190810160405280929190818152602001828054612a76906140be565b8015612ac35780601f10612a9857610100808354040283529160200191612ac3565b820191906000526020600020905b815481529060010190602001808311612aa657829003601f168201915b505050505090505b92915050565b60007f8b73c3c69bb8fe3d512ecc4cf759cc79239f7b179b0ffacaa9a75d522b39400f7f00000000000000000000000000000000000000000000000000000000000000007f00000000000000000000000000000000000000000000000000000000000000004630604051602001612b4c9594939291906140ef565b60405160208183030381529060405280519060200120905090565b60008060007f7fffffffffffffffffffffffffffffff5d576e7357a4501ddfe92f46681b20a08460001c1115612ba7576000600385925092509250612c51565b600060018888888860405160008152602001604052604051612bcc9493929190614142565b6020604051602081039080840390855afa158015612bee573d6000803e3d6000fd5b505050602060405103519050600073ffffffffffffffffffffffffffffffffffffffff168173ffffffffffffffffffffffffffffffffffffffff1603612c4257600060016000801b93509350935050612c51565b8060008060001b935093509350505b9450945094915050565b60606000612c6883612ccf565b90506000602067ffffffffffffffff811115612c8757612c8661308e565b5b6040519080825280601f01601f191660200182016040528015612cb95781602001600182028036833780820191505090505b5090508181528360208201528092505050919050565b60008060ff8360001c169050601f811115612d16576040517fb3512b0c00000000000000000000000000000000000000000000000000000000815260040160405180910390fd5b80915050919050565b6040518060400160405280600073ffffffffffffffffffffffffffffffffffffffff168152602001600081525090565b6000819050919050565b7f4e487b7100000000000000000000000000000000000000000000000000000000600052601160045260246000fd5b6000612d9382612d4f565b9150612d9e83612d4f565b9250828202612dac81612d4f565b91508282048414831517612dc357612dc2612d59565b5b5092915050565b7f4e487b7100000000000000000000000000000000000000000000000000000000600052601260045260246000fd5b6000612e0482612d4f565b9150612e0f83612d4f565b925082612e1f57612e1e612dca565b5b828204905092915050565b6000612e3582612d4f565b9150612e4083612d4f565b9250828203905081811115612e5857612e57612d59565b5b92915050565b6000612e6982612d4f565b9150612e7483612d4f565b9250828201905080821115612e8c57612e8b612d59565b5b92915050565b600081905092915050565b50565b6000612ead600083612e92565b9150612eb882612e9d565b600082019050919050565b6000612ece82612ea0565b9150819050919050565b600082825260208201905092915050565b7f44657620666565207472616e73666572206661696c6564000000000000000000600082015250565b6000612f1f601783612ed8565b9150612f2a82612ee9565b602082019050919050565b60006020820190508181036000830152612f4e81612f12565b9050919050565b612f5e81612d4f565b82525050565b6000604082019050612f796000830185612f55565b612f866020830184612f55565b9392505050565b6000602082019050612fa26000830184612f55565b92915050565b6000604051905090565b600080fd5b600080fd5b600073ffffffffffffffffffffffffffffffffffffffff82169050919050565b6000612fe782612fbc565b9050919050565b612ff781612fdc565b811461300257600080fd5b50565b60008135905061301481612fee565b92915050565b6000602082840312156130305761302f612fb2565b5b600061303e84828501613005565b91505092915050565b61305081612d4f565b811461305b57600080fd5b50565b60008135905061306d81613047565b92915050565b600080fd5b600080fd5b6000601f19601f8301169050919050565b7f4e487b7100000000000000000000000000000000000000000000000000000000600052604160045260246000fd5b6130c68261307d565b810181811067ffffffffffffffff821117156130e5576130e461308e565b5b80604052505050565b60006130f8612fa8565b905061310482826130bd565b919050565b600067ffffffffffffffff8211156131245761312361308e565b5b61312d8261307d565b9050602081019050919050565b82818337600083830152505050565b600061315c61315784613109565b6130ee565b90508281526020810184848401111561317857613177613078565b5b61318384828561313a565b509392505050565b600082601f8301126131a05761319f613073565b5b81356131b0848260208601613149565b91505092915050565b600080600080608085870312156131d3576131d2612fb2565b5b60006131e187828801613005565b94505060206131f28782880161305e565b93505060406132038782880161305e565b925050606085013567ffffffffffffffff81111561322457613223612fb7565b5b6132308782880161318b565b91505092959194509250565b600080fd5b600080fd5b60008083601f84011261325c5761325b613073565b5b8235905067ffffffffffffffff8111156132795761327861323c565b5b60208301915083602082028301111561329557613294613241565b5b9250929050565b60008115159050919050565b6132b18161329c565b81146132bc57600080fd5b50565b6000813590506132ce816132a8565b92915050565b6000806000604084860312156132ed576132ec612fb2565b5b600084013567ffffffffffffffff81111561330b5761330a612fb7565b5b61331786828701613246565b9350935050602061332a868287016132bf565b9150509250925092565b60006020828403121561334a57613349612fb2565b5b60006133588482850161305e565b91505092915050565b600081519050919050565b60005b8381101561338a57808201518184015260208101905061336f565b60008484015250505050565b60006133a182613361565b6133ab8185612ed8565b93506133bb81856020860161336c565b6133c48161307d565b840191505092915050565b600060208201905081810360008301526133e98184613396565b905092915050565b600060ff82169050919050565b613407816133f1565b82525050565b600060208201905061342260008301846133fe565b92915050565b600081519050919050565b600082825260208201905092915050565b6000819050602082019050919050565b61345d81612fdc565b82525050565b61346c81612d4f565b82525050565b6040820160008201516134886000850182613454565b50602082015161349b6020850182613463565b50505050565b60006134ad8383613472565b60408301905092915050565b6000602082019050919050565b60006134d182613428565b6134db8185613433565b93506134e683613444565b8060005b838110156135175781516134fe88826134a1565b9750613509836134b9565b9250506001810190506134ea565b5085935050505092915050565b6000602082019050818103600083015261353e81846134c6565b905092915050565b600061355182612fbc565b9050919050565b61356181613546565b811461356c57600080fd5b50565b60008135905061357e81613558565b92915050565b6000806040838503121561359b5761359a612fb2565b5b60006135a98582860161356f565b92505060206135ba8582860161305e565b9150509250929050565b6135cd8161329c565b82525050565b60006020820190506135e860008301846135c4565b92915050565b60007fff0000000000000000000000000000000000000000000000000000000000000082169050919050565b613623816135ee565b82525050565b61363281612fdc565b82525050565b6000819050919050565b61364b81613638565b82525050565b600081519050919050565b600082825260208201905092915050565b6000819050602082019050919050565b60006136898383613463565b60208301905092915050565b6000602082019050919050565b60006136ad82613651565b6136b7818561365c565b93506136c28361366d565b8060005b838110156136f35781516136da888261367d565b97506136e583613695565b9250506001810190506136c6565b5085935050505092915050565b600060e082019050613715600083018a61361a565b81810360208301526137278189613396565b9050818103604083015261373b8188613396565b905061374a6060830187612f55565b6137576080830186613629565b61376460a0830185613642565b81810360c083015261377681846136a2565b905098975050505050505050565b60006020820190506137996000830184613629565b92915050565b60006060820190506137b46000830186612f55565b6137c16020830185612f55565b6137ce6040830184612f55565b949350505050565b60006040820190506137eb6000830185613629565b6137f86020830184612f55565b9392505050565b60006080820190506138146000830187612f55565b6138216020830186612f55565b61382e60408301856133fe565b61383b60608301846135c4565b95945050505050565b7f4e487b7100000000000000000000000000000000000000000000000000000000600052603260045260246000fd5b600061387e82612d4f565b91506000820361389157613890612d59565b5b600182039050919050565b7f5369676e61747572652065787069726564000000000000000000000000000000600082015250565b60006138d2601183612ed8565b91506138dd8261389c565b602082019050919050565b60006020820190508181036000830152613901816138c5565b9050919050565b7f5661756c742062616c616e636520746f6f206c6f770000000000000000000000600082015250565b600061393e601583612ed8565b915061394982613908565b602082019050919050565b6000602082019050818103600083015261396d81613931565b9050919050565b60006080820190506139896000830187613642565b6139966020830186613629565b6139a36040830185612f55565b6139b06060830184612f55565b95945050505050565b7f496e76616c6964207369676e6174757265000000000000000000000000000000600082015250565b60006139ef601183612ed8565b91506139fa826139b9565b602082019050919050565b60006020820190508181036000830152613a1e816139e2565b9050919050565b7f416c726561647920636c61696d65642028616464726573732900000000000000600082015250565b6000613a5b601983612ed8565b9150613a6682613a25565b602082019050919050565b60006020820190508181036000830152613a8a81613a4e565b9050919050565b7f416c726561647920636c61696d65642028464944290000000000000000000000600082015250565b6000613ac7601583612ed8565b9150613ad282613a91565b602082019050919050565b60006020820190508181036000830152613af681613aba565b9050919050565b7f46494420626c61636b6c69737465640000000000000000000000000000000000600082015250565b6000613b33600f83612ed8565b9150613b3e82613afd565b602082019050919050565b60006020820190508181036000830152613b6281613b26565b9050919050565b7f436f6f6c646f776e206e6f742070617373656400000000000000000000000000600082015250565b6000613b9f601383612ed8565b9150613baa82613b69565b602082019050919050565b60006020820190508181036000830152613bce81613b92565b9050919050565b7f43454c4f207472616e73666572206661696c6564000000000000000000000000600082015250565b6000613c0b601483612ed8565b9150613c1682613bd5565b602082019050919050565b60006020820190508181036000830152613c3a81613bfe565b9050919050565b600080fd5b82818337505050565b6000613c5b838561365c565b93507f07ffffffffffffffffffffffffffffffffffffffffffffffffffffffffffffff831115613c8e57613c8d613c41565b5b602083029250613c9f838584613c46565b82840190509392505050565b60006040820190508181036000830152613cc6818587613c4f565b9050613cd560208301846135c4565b949350505050565b7f436f6e747261637473206e6f7420616c6c6f7765640000000000000000000000600082015250565b6000613d13601583612ed8565b9150613d1e82613cdd565b602082019050919050565b60006020820190508181036000830152613d4281613d06565b9050919050565b6000613d5482612d4f565b9150613d5f83612d4f565b925082613d6f57613d6e612dca565b5b828206905092915050565b600081905092915050565b6000613d9082613361565b613d9a8185613d7a565b9350613daa81856020860161336c565b80840191505092915050565b7f2e00000000000000000000000000000000000000000000000000000000000000600082015250565b6000613dec600183613d7a565b9150613df782613db6565b600182019050919050565b7f2043454c4f000000000000000000000000000000000000000000000000000000600082015250565b6000613e38600583613d7a565b9150613e4382613e02565b600582019050919050565b6000613e5a8286613d85565b9150613e6582613ddf565b9150613e718285613d85565b9150613e7d8284613d85565b9150613e8882613e2b565b9150819050949350505050565b7f43616e6e6f742073776565702062656c6f77206d696e2062616c616e63650000600082015250565b6000613ecb601e83612ed8565b9150613ed682613e95565b602082019050919050565b60006020820190508181036000830152613efa81613ebe565b9050919050565b7f5377656570206661696c65640000000000000000000000000000000000000000600082015250565b6000613f37600c83612ed8565b9150613f4282613f01565b602082019050919050565b60006020820190508181036000830152613f6681613f2a565b9050919050565b7f5a65726f206465706f7369740000000000000000000000000000000000000000600082015250565b6000613fa3600c83612ed8565b9150613fae82613f6d565b602082019050919050565b60006020820190508181036000830152613fd281613f96565b9050919050565b7f4f6e6c7920646f6e6f72732063616e2076696577000000000000000000000000600082015250565b600061400f601483612ed8565b915061401a82613fd9565b602082019050919050565b6000602082019050818103600083015261403e81614002565b9050919050565b7f4e487b7100000000000000000000000000000000000000000000000000000000600052602160045260246000fd5b60006020820190506140896000830184613642565b92915050565b7f4e487b7100000000000000000000000000000000000000000000000000000000600052602260045260246000fd5b600060028204905060018216806140d657607f821691505b6020821081036140e9576140e861408f565b5b50919050565b600060a0820190506141046000830188613642565b6141116020830187613642565b61411e6040830186613642565b61412b6060830185612f55565b6141386080830184613629565b9695505050505050565b60006080820190506141576000830187613642565b61416460208301866133fe565b6141716040830185613642565b61417e6060830184613642565b9594505050505056fea2646970667358221220c45e23e25798a2f5a6543d7d0c98de1a3d299db671daa615b77715008194b8d664736f6c63430008180033",
  "linkReferences": {},
  "deployedLinkReferences": {}
}