{
  "_format": "hh-sol-artifact-1",
  "contractName": "DegenJackpot",
  "sourceName": "contracts/DegenJackpot.sol",
  "abi": [
    {
      "inputs": [
        {
          "internalType": "address",
          "name": "_devWallet",
          "type": "address"
        }
      ],
      "stateMutability": "nonpayable",
      "type": "constructor"
    },
    {
      "anonymous": false,
      "inputs": [
        {
          "indexed": false,
          "internalType": "uint256",
          "name": "newRoundId",
          "type": "uint256"
        },
        {
          "indexed": false,
          "internalType": "uint256",
          "name": "carryOverPot",
          "type": "uint256"
        }
      ],
      "name": "RoundAdvanced",
      "type": "event"
    },
    {
      "anonymous": false,
      "inputs": [
        {
          "indexed": false,
          "internalType": "address",
          "name": "buyer",
          "type": "address"
        },
        {
          "indexed": false,
          "internalType": "uint256",
          "name": "roundId",
          "type": "uint256"
        },
        {
          "indexed": false,
          "internalType": "uint256",
          "name": "amount",
          "type": "uint256"
        }
      ],
      "name": "TicketPurchased",
      "type": "event"
    },
    {
      "anonymous": false,
      "inputs": [
        {
          "indexed": false,
          "internalType": "uint256",
          "name": "roundId",
          "type": "uint256"
        },
        {
          "indexed": false,
          "internalType": "address",
          "name": "winner",
          "type": "address"
        },
        {
          "indexed": false,
          "internalType": "uint256",
          "name": "amount",
          "type": "uint256"
        }
      ],
      "name": "WinnerSelected",
      "type": "event"
    },
    {
      "anonymous": false,
      "inputs": [
        {
          "indexed": false,
          "internalType": "uint256",
          "name": "roundId",
          "type": "uint256"
        },
        {
          "indexed": false,
          "internalType": "address",
          "name": "winner",
          "type": "address"
        },
        {
          "indexed": false,
          "internalType": "uint256",
          "name": "amount",
          "type": "uint256"
        }
      ],
      "name": "WinningsClaimed",
      "type": "event"
    },
    {
      "inputs": [],
      "name": "DEV_FEE_PERCENT",
      "outputs": [
        {
          "internalType": "uint256",
          "name": "",
          "type": "uint256"
        }
      ],
      "stateMutability": "view",
      "type": "function"
    },
    {
      "inputs": [],
      "name": "TICKET_PRICE",
      "outputs": [
        {
          "internalType": "uint256",
          "name": "",
          "type": "uint256"
        }
      ],
      "stateMutability": "view",
      "type": "function"
    },
    {
      "inputs": [],
      "name": "WIN_PROBABILITY",
      "outputs": [
        {
          "internalType": "uint256",
          "name": "",
          "type": "uint256"
        }
      ],
      "stateMutability": "view",
      "type": "function"
    },
    {
      "inputs": [
        {
          "internalType": "uint256",
          "name": "",
          "type": "uint256"
        }
      ],
      "name": "allParticipants",
      "outputs": [
        {
          "internalType": "address",
          "name": "",
          "type": "address"
        }
      ],
      "stateMutability": "view",
      "type": "function"
    },
    {
      "inputs": [
        {
          "internalType": "uint256",
          "name": "ticketCount",
          "type": "uint256"
        }
      ],
      "name": "buyTickets",
      "outputs": [],
      "stateMutability": "nonpayable",
      "type": "function"
    },
    {
      "inputs": [
        {
          "internalType": "uint256",
          "name": "roundId",
          "type": "uint256"
        }
      ],
      "name": "claimWinnings",
      "outputs": [],
      "stateMutability": "nonpayable",
      "type": "function"
    },
    {
      "inputs": [],
      "name": "currentRoundId",
      "outputs": [
        {
          "internalType": "uint256",
          "name": "",
          "type": "uint256"
        }
      ],
      "stateMutability": "view",
      "type": "function"
    },
    {
      "inputs": [],
      "name": "degenToken",
      "outputs": [
        {
          "internalType": "contract IERC20",
          "name": "",
          "type": "address"
        }
      ],
      "stateMutability": "view",
      "type": "function"
    },
    {
      "inputs": [],
      "name": "devWallet",
      "outputs": [
        {
          "internalType": "address",
          "name": "",
          "type": "address"
        }
      ],
      "stateMutability": "view",
      "type": "function"
    },
    {
      "inputs": [],
      "name": "drawInterval",
      "outputs": [
        {
          "internalType": "uint256",
          "name": "",
          "type": "uint256"
        }
      ],
      "stateMutability": "view",
      "type": "function"
    },
    {
      "inputs": [],
      "name": "emergencyWithdrawDEGEN",
      "outputs": [],
      "stateMutability": "nonpayable",
      "type": "function"
    },
    {
      "inputs": [
        {
          "internalType": "address",
          "name": "",
          "type": "address"
        }
      ],
      "name": "isParticipant",
      "outputs": [
        {
          "internalType": "bool",
          "name": "",
          "type": "bool"
        }
      ],
      "stateMutability": "view",
      "type": "function"
    },
    {
      "inputs": [],
      "name": "owner",
      "outputs": [
        {
          "internalType": "address",
          "name": "",
          "type": "address"
        }
      ],
      "stateMutability": "view",
      "type": "function"
    },
    {
      "inputs": [
        {
          "internalType": "uint256",
          "name": "",
          "type": "uint256"
        },
        {
          "internalType": "uint256",
          "name": "",
          "type": "uint256"
        }
      ],
      "name": "roundWinners",
      "outputs": [
        {
          "internalType": "address",
          "name": "",
          "type": "address"
        }
      ],
      "stateMutability": "view",
      "type": "function"
    },
    {
      "inputs": [
        {
          "internalType": "uint256",
          "name": "",
          "type": "uint256"
        }
      ],
      "name": "rounds",
      "outputs": [
        {
          "internalType": "uint256",
          "name": "roundId",
          "type": "uint256"
        },
        {
          "internalType": "uint256",
          "name": "startTime",
          "type": "uint256"
        },
        {
          "internalType": "uint256",
          "name": "endTime",
          "type": "uint256"
        },
        {
          "internalType": "uint256",
          "name": "pot",
          "type": "uint256"
        },
        {
          "internalType": "uint256",
          "name": "participantCount",
          "type": "uint256"
        },
        {
          "internalType": "address",
          "name": "winner",
          "type": "address"
        },
        {
          "internalType": "uint256",
          "name": "winningAmount",
          "type": "uint256"
        },
        {
          "internalType": "bool",
          "name": "claimed",
          "type": "bool"
        },
        {
          "internalType": "bool",
          "name": "drawCompleted",
          "type": "bool"
        }
      ],
      "stateMutability": "view",
      "type": "function"
    },
    {
      "inputs": [
        {
          "internalType": "uint256",
          "name": "newInterval",
          "type": "uint256"
        }
      ],
      "name": "setDrawInterval",
      "outputs": [],
      "stateMutability": "nonpayable",
      "type": "function"
    },
    {
      "inputs": [],
      "name": "totalJackpot",
      "outputs": [
        {
          "internalType": "uint256",
          "name": "",
          "type": "uint256"
        }
      ],
      "stateMutability": "view",
      "type": "function"
    },
    {
      "inputs": [],
      "name": "triggerDraw",
      "outputs": [],
      "stateMutability": "nonpayable",
      "type": "function"
    },
    {
      "inputs": [
        {
          "internalType": "address",
          "name": "",
          "type": "address"
        },
        {
          "internalType": "uint256",
          "name": "",
          "type": "uint256"
        }
      ],
      "name": "userRounds",
      "outputs": [
        {
          "internalType": "uint256",
          "name": "",
          "type": "uint256"
        }
      ],
      "stateMutability": "view",
      "type": "function"
    },
    {
      "inputs": [
        {
          "internalType": "address",
          "name": "",
          "type": "address"
        },
        {
          "internalType": "uint256",
          "name": "",
          "type": "uint256"
        }
      ],
      "name": "userTickets",
      "outputs": [
        {
          "internalType": "uint256",
          "name": "",
          "type": "uint256"
        }
      ],
      "stateMutability": "view",
      "type": "function"
    },
    {
      "inputs": [
        {
          "internalType": "address",
          "name": "",
          "type": "address"
        },
        {
          "internalType": "uint256",
          "name": "",
          "type": "uint256"
        }
      ],
      "name": "userWins",
      "outputs": [
        {
          "internalType": "uint256",
          "name": "",
          "type": "uint256"
        }
      ],
      "stateMutability": "view",
      "type": "function"
    }
  ],
  "bytecode": "0x608060405262015180600a553480156200001857600080fd5b5060405162002a1938038062002a1983398181016040528101906200003e9190620003fb565b336000806101000a81548173ffffffffffffffffffffffffffffffffffffffff021916908373ffffffffffffffffffffffffffffffffffffffff16021790555080600160006101000a81548173ffffffffffffffffffffffffffffffffffffffff021916908373ffffffffffffffffffffffffffffffffffffffff160217905550620000d16000620000d860201b60201c565b5062000520565b60096000815480929190620000ed9062000466565b919050555060405180610140016040528060095481526020014281526020016000815260200182815260200160008152602001600067ffffffffffffffff8111156200013e576200013d620004b3565b5b6040519080825280602002602001820160405280156200016d5781602001602082028036833780820191505090505b508152602001600073ffffffffffffffffffffffffffffffffffffffff1681526020016000815260200160001515815260200160001515815250600260006009548152602001908152602001600020600082015181600001556020820151816001015560408201518160020155606082015181600301556080820151816004015560a08201518160050190805190602001906200020c929190620002e3565b5060c08201518160060160006101000a81548173ffffffffffffffffffffffffffffffffffffffff021916908373ffffffffffffffffffffffffffffffffffffffff16021790555060e082015181600701556101008201518160080160006101000a81548160ff0219169083151502179055506101208201518160080160016101000a81548160ff0219169083151502179055509050507fed61a2d4b614cbd5677b44533d7c136e648e6d1d48f11bc307e8269df0f0ba9660095482604051620002d8929190620004f3565b60405180910390a150565b8280548282559060005260206000209081019282156200035f579160200282015b828111156200035e5782518260006101000a81548173ffffffffffffffffffffffffffffffffffffffff021916908373ffffffffffffffffffffffffffffffffffffffff1602179055509160200191906001019062000304565b5b5090506200036e919062000372565b5090565b5b808211156200038d57600081600090555060010162000373565b5090565b600080fd5b600073ffffffffffffffffffffffffffffffffffffffff82169050919050565b6000620003c38262000396565b9050919050565b620003d581620003b6565b8114620003e157600080fd5b50565b600081519050620003f581620003ca565b92915050565b60006020828403121562000414576200041362000391565b5b60006200042484828501620003e4565b91505092915050565b7f4e487b7100000000000000000000000000000000000000000000000000000000600052601160045260246000fd5b6000819050919050565b600062000473826200045c565b91507fffffffffffffffffffffffffffffffffffffffffffffffffffffffffffffffff8203620004a857620004a76200042d565b5b600182019050919050565b7f4e487b7100000000000000000000000000000000000000000000000000000000600052604160045260246000fd5b620004ed816200045c565b82525050565b60006040820190506200050a6000830185620004e2565b620005196020830184620004e2565b9392505050565b6124e980620005306000396000f3fe608060405234801561001057600080fd5b50600436106101375760003560e01c80638da5cb5b116100b8578063ba2497a71161007c578063ba2497a714610322578063bc06c4cc14610352578063cf260baf14610370578063d53efa9d146103a0578063dd1f7596146103be578063f5a9d5bb146103ee57610137565b80638da5cb5b1461028e5780638ea5220f146102ac578063929066f5146102ca57806395cdac31146102fa5780639cbe5efd1461030457610137565b80634a1d0eed116100ff5780634a1d0eed146101f45780635e6a645e14610212578063677bd9ff14610230578063825d2ab71461024c5780638c65c81f1461025657610137565b806303e3cd6a1461013c57806305957ab71461016c57806305e33dd01461018a5780631a95f15f146101ba5780632f366637146101d8575b600080fd5b6101566004803603810190610151919061188d565b61040a565b604051610163919061190e565b60405180910390f35b610174610458565b6040516101819190611938565b60405180910390f35b6101a4600480360381019061019f9190611953565b61045d565b6040516101b1919061190e565b60405180910390f35b6101c261049c565b6040516101cf9190611938565b60405180910390f35b6101f260048036038101906101ed9190611953565b6104a9565b005b6101fc61092e565b6040516102099190611938565b60405180910390f35b61021a610934565b6040516102279190611938565b60405180910390f35b61024a60048036038101906102459190611953565b610939565b005b610254610cff565b005b610270600480360381019061026b9190611953565b61110d565b6040516102859998979695949392919061199b565b60405180910390f35b610296611195565b6040516102a3919061190e565b60405180910390f35b6102b46111b9565b6040516102c1919061190e565b60405180910390f35b6102e460048036038101906102df9190611a54565b6111df565b6040516102f19190611a81565b60405180910390f35b6103026111ff565b005b61030c611413565b6040516103199190611938565b60405180910390f35b61033c60048036038101906103379190611a9c565b611419565b6040516103499190611938565b60405180910390f35b61035a61144a565b6040516103679190611938565b60405180910390f35b61038a60048036038101906103859190611a9c565b611450565b6040516103979190611938565b60405180910390f35b6103a8611475565b6040516103b59190611b3b565b60405180910390f35b6103d860048036038101906103d39190611a9c565b61148d565b6040516103e59190611938565b60405180910390f35b61040860048036038101906104039190611953565b6114be565b005b6008602052816000526040600020818154811061042657600080fd5b906000526020600020016000915091509054906101000a900473ffffffffffffffffffffffffffffffffffffffff1681565b600981565b6006818154811061046d57600080fd5b906000526020600020016000915054906101000a900473ffffffffffffffffffffffffffffffffffffffff1681565b680d8d726b7177a8000081565b6000680d8d726b7177a80000826104c09190611b85565b9050734ed4e862860bed51a9570b96d89af5e1b0efefed73ffffffffffffffffffffffffffffffffffffffff166323b872dd3330846040518463ffffffff1660e01b815260040161051393929190611bc7565b6020604051808303816000875af1158015610532573d6000803e3d6000fd5b505050506040513d601f19601f820116820180604052508101906105569190611c2a565b610595576040517f08c379a000000000000000000000000000000000000000000000000000000000815260040161058c90611cb4565b60405180910390fd5b600060026000600954815260200190815260200160002090508060080160019054906101000a900460ff1615610600576040517f08c379a00000000000000000000000000000000000000000000000000000000081526004016105f790611d20565b60405180910390fd5b6000600360003373ffffffffffffffffffffffffffffffffffffffff1673ffffffffffffffffffffffffffffffffffffffff16815260200190815260200160002060006009548152602001908152602001600020540361084f5780600501339080600181540180825580915050600190039060005260206000200160009091909190916101000a81548173ffffffffffffffffffffffffffffffffffffffff021916908373ffffffffffffffffffffffffffffffffffffffff1602179055508060040160008154809291906106d490611d40565b9190505550600460003373ffffffffffffffffffffffffffffffffffffffff1673ffffffffffffffffffffffffffffffffffffffff1681526020019081526020016000206009549080600181540180825580915050600190039060005260206000200160009091909190915055600760003373ffffffffffffffffffffffffffffffffffffffff1673ffffffffffffffffffffffffffffffffffffffff16815260200190815260200160002060009054906101000a900460ff1661084e576001600760003373ffffffffffffffffffffffffffffffffffffffff1673ffffffffffffffffffffffffffffffffffffffff16815260200190815260200160002060006101000a81548160ff0219169083151502179055506006339080600181540180825580915050600190039060005260206000200160009091909190916101000a81548173ffffffffffffffffffffffffffffffffffffffff021916908373ffffffffffffffffffffffffffffffffffffffff1602179055505b5b82600360003373ffffffffffffffffffffffffffffffffffffffff1673ffffffffffffffffffffffffffffffffffffffff1681526020019081526020016000206000600954815260200190815260200160002060008282546108b19190611d88565b92505081905550818160030160008282546108cc9190611d88565b9250508190555081600b60008282546108e59190611d88565b925050819055507f2a91574e12ad96234e84923e146b0946ecfb871cd8d5534dc1fdcbe87a7c01b3336009548560405161092193929190611dbc565b60405180910390a1505050565b600b5481565b600581565b60006002600083815260200190815260200160002090503373ffffffffffffffffffffffffffffffffffffffff168160060160009054906101000a900473ffffffffffffffffffffffffffffffffffffffff1673ffffffffffffffffffffffffffffffffffffffff16146109e2576040517f08c379a00000000000000000000000000000000000000000000000000000000081526004016109d990611e3f565b60405180910390fd5b8060080160009054906101000a900460ff1615610a34576040517f08c379a0000000000000000000000000000000000000000000000000000000008152600401610a2b90611eab565b60405180910390fd5b6000816007015411610a7b576040517f08c379a0000000000000000000000000000000000000000000000000000000008152600401610a7290611f17565b60405180910390fd5b600060056064610a8b9190611f37565b60058360070154610a9c9190611b85565b610aa69190611f9a565b90506000818360070154610aba9190611d88565b905060018360080160006101000a81548160ff02191690831515021790555080600b6000828254610aeb9190611f37565b92505081905550734ed4e862860bed51a9570b96d89af5e1b0efefed73ffffffffffffffffffffffffffffffffffffffff1663a9059cbb600160009054906101000a900473ffffffffffffffffffffffffffffffffffffffff16846040518363ffffffff1660e01b8152600401610b63929190611fcb565b6020604051808303816000875af1158015610b82573d6000803e3d6000fd5b505050506040513d601f19601f82011682018060405250810190610ba69190611c2a565b610be5576040517f08c379a0000000000000000000000000000000000000000000000000000000008152600401610bdc90612040565b60405180910390fd5b734ed4e862860bed51a9570b96d89af5e1b0efefed73ffffffffffffffffffffffffffffffffffffffff1663a9059cbb3385600701546040518363ffffffff1660e01b8152600401610c38929190611fcb565b6020604051808303816000875af1158015610c57573d6000803e3d6000fd5b505050506040513d601f19601f82011682018060405250810190610c7b9190611c2a565b610cba576040517f08c379a0000000000000000000000000000000000000000000000000000000008152600401610cb1906120ac565b60405180910390fd5b7f5380cf6fe903b40c6d5a9e0dfbca2f3a423f0a21520b4d5947ed5169bdba946d84338560070154604051610cf1939291906120cc565b60405180910390a150505050565b60006002600060095481526020019081526020016000209050600a548160010154610d2a9190611d88565b421015610d6c576040517f08c379a0000000000000000000000000000000000000000000000000000000008152600401610d639061214f565b60405180910390fd5b8060080160019054906101000a900460ff1615610dbe576040517f08c379a0000000000000000000000000000000000000000000000000000000008152600401610db5906121bb565b60405180910390fd5b60018160080160016101000a81548160ff0219169083151502179055504281600201819055506000600143610df39190611f37565b404283600501805490508460030154604051602001610e159493929190612227565b6040516020818303038152906040528051906020012060001c905060006009606483610e419190612275565b1090506000818015610e57575060008460040154115b156110f6576000846003015484610e6e9190612275565b905060008060005b8760040154811015610f5a576000886005018281548110610e9a57610e996122a6565b5b9060005260206000200160009054906101000a900473ffffffffffffffffffffffffffffffffffffffff169050680d8d726b7177a80000600360008373ffffffffffffffffffffffffffffffffffffffff1673ffffffffffffffffffffffffffffffffffffffff1681526020019081526020016000206000600954815260200190815260200160002054610f2e9190611b85565b84610f399190611d88565b935084841115610f4c5780925050610f5a565b508080600101915050610e76565b50808760060160006101000a81548173ffffffffffffffffffffffffffffffffffffffff021916908373ffffffffffffffffffffffffffffffffffffffff160217905550606460056064610fae9190611f37565b8860030154610fbd9190611b85565b610fc79190611f9a565b8760070181905550600560008273ffffffffffffffffffffffffffffffffffffffff1673ffffffffffffffffffffffffffffffffffffffff1681526020019081526020016000206009549080600181540180825580915050600190039060005260206000200160009091909190915055600860006009548152602001908152602001600020819080600181540180825580915050600190039060005260206000200160009091909190916101000a81548173ffffffffffffffffffffffffffffffffffffffff021916908373ffffffffffffffffffffffffffffffffffffffff1602179055507ffee5b04775e1cd2311ed22cd00f5d2403aff38ff6f71d6d393f51854ed6bc9866009548289600701546040516110e6939291906120cc565b60405180910390a15050506110fe565b836003015490505b611107816115aa565b50505050565b60026020528060005260406000206000915090508060000154908060010154908060020154908060030154908060040154908060060160009054906101000a900473ffffffffffffffffffffffffffffffffffffffff16908060070154908060080160009054906101000a900460ff16908060080160019054906101000a900460ff16905089565b60008054906101000a900473ffffffffffffffffffffffffffffffffffffffff1681565b600160009054906101000a900473ffffffffffffffffffffffffffffffffffffffff1681565b60076020528060005260406000206000915054906101000a900460ff1681565b60008054906101000a900473ffffffffffffffffffffffffffffffffffffffff1673ffffffffffffffffffffffffffffffffffffffff163373ffffffffffffffffffffffffffffffffffffffff161461128d576040517f08c379a000000000000000000000000000000000000000000000000000000000815260040161128490612321565b60405180910390fd5b6000734ed4e862860bed51a9570b96d89af5e1b0efefed73ffffffffffffffffffffffffffffffffffffffff166370a08231306040518263ffffffff1660e01b81526004016112dc919061190e565b602060405180830381865afa1580156112f9573d6000803e3d6000fd5b505050506040513d601f19601f8201168201806040525081019061131d9190612356565b9050734ed4e862860bed51a9570b96d89af5e1b0efefed73ffffffffffffffffffffffffffffffffffffffff1663a9059cbb60008054906101000a900473ffffffffffffffffffffffffffffffffffffffff16836040518363ffffffff1660e01b815260040161138e929190611fcb565b6020604051808303816000875af11580156113ad573d6000803e3d6000fd5b505050506040513d601f19601f820116820180604052508101906113d19190611c2a565b611410576040517f08c379a0000000000000000000000000000000000000000000000000000000008152600401611407906123cf565b60405180910390fd5b50565b60095481565b6005602052816000526040600020818154811061143557600080fd5b90600052602060002001600091509150505481565b600a5481565b6003602052816000526040600020602052806000526040600020600091509150505481565b734ed4e862860bed51a9570b96d89af5e1b0efefed81565b600460205281600052604060002081815481106114a957600080fd5b90600052602060002001600091509150505481565b60008054906101000a900473ffffffffffffffffffffffffffffffffffffffff1673ffffffffffffffffffffffffffffffffffffffff163373ffffffffffffffffffffffffffffffffffffffff161461154c576040517f08c379a000000000000000000000000000000000000000000000000000000000815260040161154390612321565b60405180910390fd5b610e108110158015611561575062093a808111155b6115a0576040517f08c379a00000000000000000000000000000000000000000000000000000000081526004016115979061243b565b60405180910390fd5b80600a8190555050565b600960008154809291906115bd90611d40565b919050555060405180610140016040528060095481526020014281526020016000815260200182815260200160008152602001600067ffffffffffffffff81111561160b5761160a61245b565b5b6040519080825280602002602001820160405280156116395781602001602082028036833780820191505090505b508152602001600073ffffffffffffffffffffffffffffffffffffffff1681526020016000815260200160001515815260200160001515815250600260006009548152602001908152602001600020600082015181600001556020820151816001015560408201518160020155606082015181600301556080820151816004015560a08201518160050190805190602001906116d69291906117ab565b5060c08201518160060160006101000a81548173ffffffffffffffffffffffffffffffffffffffff021916908373ffffffffffffffffffffffffffffffffffffffff16021790555060e082015181600701556101008201518160080160006101000a81548160ff0219169083151502179055506101208201518160080160016101000a81548160ff0219169083151502179055509050507fed61a2d4b614cbd5677b44533d7c136e648e6d1d48f11bc307e8269df0f0ba96600954826040516117a092919061248a565b60405180910390a150565b828054828255906000526020600020908101928215611824579160200282015b828111156118235782518260006101000a81548173ffffffffffffffffffffffffffffffffffffffff021916908373ffffffffffffffffffffffffffffffffffffffff160217905550916020019190600101906117cb565b5b5090506118319190611835565b5090565b5b8082111561184e576000816000905550600101611836565b5090565b600080fd5b6000819050919050565b61186a81611857565b811461187557600080fd5b50565b60008135905061188781611861565b92915050565b600080604083850312156118a4576118a3611852565b5b60006118b285828601611878565b92505060206118c385828601611878565b9150509250929050565b600073ffffffffffffffffffffffffffffffffffffffff82169050919050565b60006118f8826118cd565b9050919050565b611908816118ed565b82525050565b600060208201905061192360008301846118ff565b92915050565b61193281611857565b82525050565b600060208201905061194d6000830184611929565b92915050565b60006020828403121561196957611968611852565b5b600061197784828501611878565b91505092915050565b60008115159050919050565b61199581611980565b82525050565b6000610120820190506119b1600083018c611929565b6119be602083018b611929565b6119cb604083018a611929565b6119d86060830189611929565b6119e56080830188611929565b6119f260a08301876118ff565b6119ff60c0830186611929565b611a0c60e083018561198c565b611a1a61010083018461198c565b9a9950505050505050505050565b611a31816118ed565b8114611a3c57600080fd5b50565b600081359050611a4e81611a28565b92915050565b600060208284031215611a6a57611a69611852565b5b6000611a7884828501611a3f565b91505092915050565b6000602082019050611a96600083018461198c565b92915050565b60008060408385031215611ab357611ab2611852565b5b6000611ac185828601611a3f565b9250506020611ad285828601611878565b9150509250929050565b6000819050919050565b6000611b01611afc611af7846118cd565b611adc565b6118cd565b9050919050565b6000611b1382611ae6565b9050919050565b6000611b2582611b08565b9050919050565b611b3581611b1a565b82525050565b6000602082019050611b506000830184611b2c565b92915050565b7f4e487b7100000000000000000000000000000000000000000000000000000000600052601160045260246000fd5b6000611b9082611857565b9150611b9b83611857565b9250828202611ba981611857565b91508282048414831517611bc057611bbf611b56565b5b5092915050565b6000606082019050611bdc60008301866118ff565b611be960208301856118ff565b611bf66040830184611929565b949350505050565b611c0781611980565b8114611c1257600080fd5b50565b600081519050611c2481611bfe565b92915050565b600060208284031215611c4057611c3f611852565b5b6000611c4e84828501611c15565b91505092915050565b600082825260208201905092915050565b7f444547454e207472616e73666572206661696c65640000000000000000000000600082015250565b6000611c9e601583611c57565b9150611ca982611c68565b602082019050919050565b60006020820190508181036000830152611ccd81611c91565b9050919050565b7f526f756e6420636f6d706c657465640000000000000000000000000000000000600082015250565b6000611d0a600f83611c57565b9150611d1582611cd4565b602082019050919050565b60006020820190508181036000830152611d3981611cfd565b9050919050565b6000611d4b82611857565b91507fffffffffffffffffffffffffffffffffffffffffffffffffffffffffffffffff8203611d7d57611d7c611b56565b5b600182019050919050565b6000611d9382611857565b9150611d9e83611857565b9250828201905080821115611db657611db5611b56565b5b92915050565b6000606082019050611dd160008301866118ff565b611dde6020830185611929565b611deb6040830184611929565b949350505050565b7f4e6f742077696e6e657200000000000000000000000000000000000000000000600082015250565b6000611e29600a83611c57565b9150611e3482611df3565b602082019050919050565b60006020820190508181036000830152611e5881611e1c565b9050919050565b7f416c726561647920636c61696d65640000000000000000000000000000000000600082015250565b6000611e95600f83611c57565b9150611ea082611e5f565b602082019050919050565b60006020820190508181036000830152611ec481611e88565b9050919050565b7f4e6f2077696e6e696e6773000000000000000000000000000000000000000000600082015250565b6000611f01600b83611c57565b9150611f0c82611ecb565b602082019050919050565b60006020820190508181036000830152611f3081611ef4565b9050919050565b6000611f4282611857565b9150611f4d83611857565b9250828203905081811115611f6557611f64611b56565b5b92915050565b7f4e487b7100000000000000000000000000000000000000000000000000000000600052601260045260246000fd5b6000611fa582611857565b9150611fb083611857565b925082611fc057611fbf611f6b565b5b828204905092915050565b6000604082019050611fe060008301856118ff565b611fed6020830184611929565b9392505050565b7f44657620666565207472616e73666572206661696c6564000000000000000000600082015250565b600061202a601783611c57565b915061203582611ff4565b602082019050919050565b600060208201905081810360008301526120598161201d565b9050919050565b7f57696e6e6572207472616e73666572206661696c656400000000000000000000600082015250565b6000612096601683611c57565b91506120a182612060565b602082019050919050565b600060208201905081810360008301526120c581612089565b9050919050565b60006060820190506120e16000830186611929565b6120ee60208301856118ff565b6120fb6040830184611929565b949350505050565b7f546f6f20736f6f6e000000000000000000000000000000000000000000000000600082015250565b6000612139600883611c57565b915061214482612103565b602082019050919050565b600060208201905081810360008301526121688161212c565b9050919050565b7f416c726561647920647261776e00000000000000000000000000000000000000600082015250565b60006121a5600d83611c57565b91506121b08261216f565b602082019050919050565b600060208201905081810360008301526121d481612198565b9050919050565b6000819050919050565b6000819050919050565b6122006121fb826121db565b6121e5565b82525050565b6000819050919050565b61222161221c82611857565b612206565b82525050565b600061223382876121ef565b6020820191506122438286612210565b6020820191506122538285612210565b6020820191506122638284612210565b60208201915081905095945050505050565b600061228082611857565b915061228b83611857565b92508261229b5761229a611f6b565b5b828206905092915050565b7f4e487b7100000000000000000000000000000000000000000000000000000000600052603260045260246000fd5b7f4e6f74206f776e65720000000000000000000000000000000000000000000000600082015250565b600061230b600983611c57565b9150612316826122d5565b602082019050919050565b6000602082019050818103600083015261233a816122fe565b9050919050565b60008151905061235081611861565b92915050565b60006020828403121561236c5761236b611852565b5b600061237a84828501612341565b91505092915050565b7f456d657267656e6379207769746864726177206661696c656400000000000000600082015250565b60006123b9601983611c57565b91506123c482612383565b602082019050919050565b600060208201905081810360008301526123e8816123ac565b9050919050565b7f496e76616c696420696e74657276616c00000000000000000000000000000000600082015250565b6000612425601083611c57565b9150612430826123ef565b602082019050919050565b6000602082019050818103600083015261245481612418565b9050919050565b7f4e487b7100000000000000000000000000000000000000000000000000000000600052604160045260246000fd5b600060408201905061249f6000830185611929565b6124ac6020830184611929565b939250505056fea2646970667358221220e5fc28fe842e5323cefb77147a5deaf28bb8dc97a1c2d3071ba803f77a4be4b264736f6c63430008180033",
  "linkReferences": {},
  "deployedLinkReferences": {}
}