{
  "_format": "hh-sol-artifact-1",
  "contractName": "BankOfCelo",
  "sourceName": "contracts/BankOfCelo.sol",
  "abi": [
    {
      "inputs": [
        {
          "internalType": "uint256",
          "name": "_minVaultBalance",
          "type": "uint256"
        },
        {
          "internalType": "address",
          "name": "_devWallet",
          "type": "address"
        }
      ],
      "stateMutability": "payable",
      "type": "constructor"
    },
    {
      "inputs": [
        {
          "internalType": "address",
          "name": "owner",
          "type": "address"
        }
      ],
      "name": "OwnableInvalidOwner",
      "type": "error"
    },
    {
      "inputs": [
        {
          "internalType": "address",
          "name": "account",
          "type": "address"
        }
      ],
      "name": "OwnableUnauthorizedAccount",
      "type": "error"
    },
    {
      "inputs": [],
      "name": "ReentrancyGuardReentrantCall",
      "type": "error"
    },
    {
      "anonymous": false,
      "inputs": [
        {
          "indexed": false,
          "internalType": "uint256[]",
          "name": "fids",
          "type": "uint256[]"
        },
        {
          "indexed": false,
          "internalType": "bool",
          "name": "isBlacklisted",
          "type": "bool"
        }
      ],
      "name": "BlacklistUpdated",
      "type": "event"
    },
    {
      "anonymous": false,
      "inputs": [
        {
          "indexed": true,
          "internalType": "address",
          "name": "recipient",
          "type": "address"
        },
        {
          "indexed": false,
          "internalType": "uint256",
          "name": "fid",
          "type": "uint256"
        },
        {
          "indexed": false,
          "internalType": "uint256",
          "name": "amount",
          "type": "uint256"
        }
      ],
      "name": "Claimed",
      "type": "event"
    },
    {
      "anonymous": false,
      "inputs": [
        {
          "indexed": true,
          "internalType": "address",
          "name": "donor",
          "type": "address"
        },
        {
          "indexed": false,
          "internalType": "uint256",
          "name": "amount",
          "type": "uint256"
        },
        {
          "indexed": false,
          "internalType": "uint256",
          "name": "devFee",
          "type": "uint256"
        }
      ],
      "name": "Donated",
      "type": "event"
    },
    {
      "anonymous": false,
      "inputs": [
        {
          "indexed": true,
          "internalType": "address",
          "name": "donor",
          "type": "address"
        },
        {
          "indexed": false,
          "internalType": "uint8",
          "name": "newTier",
          "type": "uint8"
        }
      ],
      "name": "DonorTierUpgraded",
      "type": "event"
    },
    {
      "anonymous": false,
      "inputs": [
        {
          "indexed": true,
          "internalType": "address",
          "name": "donor",
          "type": "address"
        },
        {
          "indexed": false,
          "internalType": "uint256",
          "name": "amount",
          "type": "uint256"
        },
        {
          "indexed": false,
          "internalType": "uint256",
          "name": "position",
          "type": "uint256"
        }
      ],
      "name": "LeaderboardUpdated",
      "type": "event"
    },
    {
      "anonymous": false,
      "inputs": [
        {
          "indexed": true,
          "internalType": "address",
          "name": "previousOwner",
          "type": "address"
        },
        {
          "indexed": true,
          "internalType": "address",
          "name": "newOwner",
          "type": "address"
        }
      ],
      "name": "OwnershipTransferred",
      "type": "event"
    },
    {
      "inputs": [],
      "name": "DEV_FEE_PERCENT",
      "outputs": [
        {
          "internalType": "uint256",
          "name": "",
          "type": "uint256"
        }
      ],
      "stateMutability": "view",
      "type": "function"
    },
    {
      "inputs": [],
      "name": "LEADERBOARD_SIZE",
      "outputs": [
        {
          "internalType": "uint256",
          "name": "",
          "type": "uint256"
        }
      ],
      "stateMutability": "view",
      "type": "function"
    },
    {
      "inputs": [],
      "name": "MAX_CLAIM",
      "outputs": [
        {
          "internalType": "uint256",
          "name": "",
          "type": "uint256"
        }
      ],
      "stateMutability": "view",
      "type": "function"
    },
    {
      "inputs": [],
      "name": "TIER1_THRESHOLD",
      "outputs": [
        {
          "internalType": "uint256",
          "name": "",
          "type": "uint256"
        }
      ],
      "stateMutability": "view",
      "type": "function"
    },
    {
      "inputs": [],
      "name": "TIER2_THRESHOLD",
      "outputs": [
        {
          "internalType": "uint256",
          "name": "",
          "type": "uint256"
        }
      ],
      "stateMutability": "view",
      "type": "function"
    },
    {
      "inputs": [],
      "name": "TIER3_THRESHOLD",
      "outputs": [
        {
          "internalType": "uint256",
          "name": "",
          "type": "uint256"
        }
      ],
      "stateMutability": "view",
      "type": "function"
    },
    {
      "inputs": [
        {
          "internalType": "uint256",
          "name": "fid",
          "type": "uint256"
        }
      ],
      "name": "claim",
      "outputs": [],
      "stateMutability": "nonpayable",
      "type": "function"
    },
    {
      "inputs": [],
      "name": "claimCooldown",
      "outputs": [
        {
          "internalType": "uint256",
          "name": "",
          "type": "uint256"
        }
      ],
      "stateMutability": "view",
      "type": "function"
    },
    {
      "inputs": [],
      "name": "devWallet",
      "outputs": [
        {
          "internalType": "address",
          "name": "",
          "type": "address"
        }
      ],
      "stateMutability": "view",
      "type": "function"
    },
    {
      "inputs": [],
      "name": "donate",
      "outputs": [],
      "stateMutability": "payable",
      "type": "function"
    },
    {
      "inputs": [
        {
          "internalType": "address",
          "name": "",
          "type": "address"
        }
      ],
      "name": "donors",
      "outputs": [
        {
          "internalType": "uint256",
          "name": "totalDonated",
          "type": "uint256"
        },
        {
          "internalType": "uint256",
          "name": "lastDonationTime",
          "type": "uint256"
        },
        {
          "internalType": "uint8",
          "name": "tier",
          "type": "uint8"
        },
        {
          "internalType": "bool",
          "name": "hasClaimed",
          "type": "bool"
        }
      ],
      "stateMutability": "view",
      "type": "function"
    },
    {
      "inputs": [
        {
          "internalType": "uint256",
          "name": "",
          "type": "uint256"
        }
      ],
      "name": "fidBlacklisted",
      "outputs": [
        {
          "internalType": "bool",
          "name": "",
          "type": "bool"
        }
      ],
      "stateMutability": "view",
      "type": "function"
    },
    {
      "inputs": [
        {
          "internalType": "uint256",
          "name": "",
          "type": "uint256"
        }
      ],
      "name": "fidClaimed",
      "outputs": [
        {
          "internalType": "bool",
          "name": "",
          "type": "bool"
        }
      ],
      "stateMutability": "view",
      "type": "function"
    },
    {
      "inputs": [
        {
          "internalType": "address",
          "name": "donor",
          "type": "address"
        }
      ],
      "name": "getDonorRank",
      "outputs": [
        {
          "internalType": "uint256",
          "name": "",
          "type": "uint256"
        }
      ],
      "stateMutability": "view",
      "type": "function"
    },
    {
      "inputs": [
        {
          "internalType": "address",
          "name": "donor",
          "type": "address"
        }
      ],
      "name": "getDonorTier",
      "outputs": [
        {
          "internalType": "uint8",
          "name": "",
          "type": "uint8"
        }
      ],
      "stateMutability": "view",
      "type": "function"
    },
    {
      "inputs": [],
      "name": "getLeaderboard",
      "outputs": [
        {
          "components": [
            {
              "internalType": "address",
              "name": "donor",
              "type": "address"
            },
            {
              "internalType": "uint256",
              "name": "amount",
              "type": "uint256"
            }
          ],
          "internalType": "struct BankOfCelo.LeaderboardEntry[]",
          "name": "",
          "type": "tuple[]"
        }
      ],
      "stateMutability": "view",
      "type": "function"
    },
    {
      "inputs": [
        {
          "internalType": "uint256",
          "name": "totalDonated",
          "type": "uint256"
        }
      ],
      "name": "getTier",
      "outputs": [
        {
          "internalType": "uint8",
          "name": "",
          "type": "uint8"
        }
      ],
      "stateMutability": "pure",
      "type": "function"
    },
    {
      "inputs": [
        {
          "internalType": "address",
          "name": "",
          "type": "address"
        }
      ],
      "name": "lastClaimAt",
      "outputs": [
        {
          "internalType": "uint256",
          "name": "",
          "type": "uint256"
        }
      ],
      "stateMutability": "view",
      "type": "function"
    },
    {
      "inputs": [
        {
          "internalType": "uint256",
          "name": "",
          "type": "uint256"
        }
      ],
      "name": "leaderboard",
      "outputs": [
        {
          "internalType": "address",
          "name": "donor",
          "type": "address"
        },
        {
          "internalType": "uint256",
          "name": "amount",
          "type": "uint256"
        }
      ],
      "stateMutability": "view",
      "type": "function"
    },
    {
      "inputs": [],
      "name": "minLeaderboardAmount",
      "outputs": [
        {
          "internalType": "uint256",
          "name": "",
          "type": "uint256"
        }
      ],
      "stateMutability": "view",
      "type": "function"
    },
    {
      "inputs": [],
      "name": "minVaultBalance",
      "outputs": [
        {
          "internalType": "uint256",
          "name": "",
          "type": "uint256"
        }
      ],
      "stateMutability": "view",
      "type": "function"
    },
    {
      "inputs": [],
      "name": "owner",
      "outputs": [
        {
          "internalType": "address",
          "name": "",
          "type": "address"
        }
      ],
      "stateMutability": "view",
      "type": "function"
    },
    {
      "inputs": [],
      "name": "renounceOwnership",
      "outputs": [],
      "stateMutability": "nonpayable",
      "type": "function"
    },
    {
      "inputs": [
        {
          "internalType": "uint256",
          "name": "seconds_",
          "type": "uint256"
        }
      ],
      "name": "setClaimCooldown",
      "outputs": [],
      "stateMutability": "nonpayable",
      "type": "function"
    },
    {
      "inputs": [
        {
          "internalType": "address payable",
          "name": "to",
          "type": "address"
        },
        {
          "internalType": "uint256",
          "name": "amount",
          "type": "uint256"
        }
      ],
      "name": "sweep",
      "outputs": [],
      "stateMutability": "nonpayable",
      "type": "function"
    },
    {
      "inputs": [
        {
          "internalType": "address",
          "name": "newOwner",
          "type": "address"
        }
      ],
      "name": "transferOwnership",
      "outputs": [],
      "stateMutability": "nonpayable",
      "type": "function"
    },
    {
      "inputs": [
        {
          "internalType": "uint256[]",
          "name": "fids",
          "type": "uint256[]"
        },
        {
          "internalType": "bool",
          "name": "isBlacklisted",
          "type": "bool"
        }
      ],
      "name": "updateBlacklist",
      "outputs": [],
      "stateMutability": "nonpayable",
      "type": "function"
    },
    {
      "stateMutability": "payable",
      "type": "receive"
    }
  ],
  "bytecode": "0x60c06040526000600255600060cf5560405162002bd238038062002bd28339818101604052810190620000339190620002e1565b33600073ffffffffffffffffffffffffffffffffffffffff168173ffffffffffffffffffffffffffffffffffffffff1603620000a95760006040517f1e4fbdf7000000000000000000000000000000000000000000000000000000008152600401620000a0919062000339565b60405180910390fd5b620000ba816200017860201b60201c565b5060018081905550600073ffffffffffffffffffffffffffffffffffffffff168173ffffffffffffffffffffffffffffffffffffffff160362000134576040517f08c379a00000000000000000000000000000000000000000000000000000000081526004016200012b90620003b7565b60405180910390fd5b81608081815250508073ffffffffffffffffffffffffffffffffffffffff1660a08173ffffffffffffffffffffffffffffffffffffffff16815250505050620003d9565b60008060009054906101000a900473ffffffffffffffffffffffffffffffffffffffff169050816000806101000a81548173ffffffffffffffffffffffffffffffffffffffff021916908373ffffffffffffffffffffffffffffffffffffffff1602179055508173ffffffffffffffffffffffffffffffffffffffff168173ffffffffffffffffffffffffffffffffffffffff167f8be0079c531659141344cd1fd0a4f28419497f9722a3daafe3b4186f6b6457e060405160405180910390a35050565b600080fd5b6000819050919050565b620002568162000241565b81146200026257600080fd5b50565b60008151905062000276816200024b565b92915050565b600073ffffffffffffffffffffffffffffffffffffffff82169050919050565b6000620002a9826200027c565b9050919050565b620002bb816200029c565b8114620002c757600080fd5b50565b600081519050620002db81620002b0565b92915050565b60008060408385031215620002fb57620002fa6200023c565b5b60006200030b8582860162000265565b92505060206200031e85828601620002ca565b9150509250929050565b62000333816200029c565b82525050565b600060208201905062000350600083018462000328565b92915050565b600082825260208201905092915050565b7f496e76616c6964206465762077616c6c65740000000000000000000000000000600082015250565b60006200039f60128362000356565b9150620003ac8262000367565b602082019050919050565b60006020820190508181036000830152620003d28162000390565b9050919050565b60805160a0516127b76200041b60003960008181610255015281816114f10152611797015260008181610b3001528181610dc7015261122e01526127b76000f3fe6080604052600436106101a05760003560e01c80636ea056a9116100ec578063bf3683991161008a578063ed88c68e11610064578063ed88c68e146107b7578063f2fde38b146107c1578063f7d870c5146107ea578063fdea3657146108275761036f565b8063bf368399146106fc578063ca0cdea81461073a578063d993d8261461077a5761036f565b806380e1396d116100c657806380e1396d1461063e5780638da5cb5b1461067b5780638e5572c0146106a65780638ea5220f146106d15761036f565b80636ea056a9146105c1578063715018a6146105ea5780637f0ada3e146106015761036f565b806342dfac721161015957806359c9eb901161013357806359c9eb90146105175780635e6a645e14610540578063642ce3551461056b5780636d763a6e146105965761036f565b806342dfac72146104845780634f062c5a146104af5780634f085f42146104ec5761036f565b806301b65b711461037457806303822d3b1461039f578063086d2c87146103dc5780632ca9d584146104075780632ee4120e14610432578063379607f51461045b5761036f565b3661036f57600060646005346101b69190611b75565b6101c09190611be6565b9050600081346101d09190611c17565b90506000600360003373ffffffffffffffffffffffffffffffffffffffff1673ffffffffffffffffffffffffffffffffffffffff1681526020019081526020016000209050818160000160008282546102299190611c4b565b92505081905550428160010181905550600082111561025157610250338260000154610852565b5b60007f000000000000000000000000000000000000000000000000000000000000000073ffffffffffffffffffffffffffffffffffffffff168460405161029790611cb0565b60006040518083038185875af1925050503d80600081146102d4576040519150601f19603f3d011682016040523d82523d6000602084013e6102d9565b606091505b505090508061031d576040517f08c379a000000000000000000000000000000000000000000000000000000000815260040161031490611d22565b60405180910390fd5b3373ffffffffffffffffffffffffffffffffffffffff167f4928895ba6723e8e27b15f32e4c3054a1b6c7f8c03f133558d6fa42b3928d14c8486604051610365929190611d51565b60405180910390a2005b600080fd5b34801561038057600080fd5b50610389610afd565b6040516103969190611d7a565b60405180910390f35b3480156103ab57600080fd5b506103c660048036038101906103c19190611dfd565b610b09565b6040516103d39190611d7a565b60405180910390f35b3480156103e857600080fd5b506103f1610b21565b6040516103fe9190611d7a565b60405180910390f35b34801561041357600080fd5b5061041c610b2e565b6040516104299190611d7a565b60405180910390f35b34801561043e57600080fd5b5061045960048036038101906104549190611ec7565b610b52565b005b34801561046757600080fd5b50610482600480360381019061047d9190611f53565b610bf8565b005b34801561049057600080fd5b5061049961107c565b6040516104a69190611d7a565b60405180910390f35b3480156104bb57600080fd5b506104d660048036038101906104d19190611f53565b611089565b6040516104e39190611f9c565b60405180910390f35b3480156104f857600080fd5b506105016110df565b60405161050e9190611d7a565b60405180910390f35b34801561052357600080fd5b5061053e60048036038101906105399190611f53565b6110e4565b005b34801561054c57600080fd5b506105556110f6565b6040516105629190611d7a565b60405180910390f35b34801561057757600080fd5b506105806110fb565b60405161058d9190611d7a565b60405180910390f35b3480156105a257600080fd5b506105ab611107565b6040516105b891906120b3565b60405180910390f35b3480156105cd57600080fd5b506105e860048036038101906105e39190612113565b611224565b005b3480156105f657600080fd5b506105ff61134b565b005b34801561060d57600080fd5b5061062860048036038101906106239190611f53565b61135f565b6040516106359190612162565b60405180910390f35b34801561064a57600080fd5b5061066560048036038101906106609190611dfd565b61137f565b6040516106729190611d7a565b60405180910390f35b34801561068757600080fd5b506106906114c0565b60405161069d919061218c565b60405180910390f35b3480156106b257600080fd5b506106bb6114e9565b6040516106c89190611d7a565b60405180910390f35b3480156106dd57600080fd5b506106e66114ef565b6040516106f3919061218c565b60405180910390f35b34801561070857600080fd5b50610723600480360381019061071e9190611f53565b611513565b6040516107319291906121a7565b60405180910390f35b34801561074657600080fd5b50610761600480360381019061075c9190611dfd565b61155d565b60405161077194939291906121d0565b60405180910390f35b34801561078657600080fd5b506107a1600480360381019061079c9190611dfd565b6115a7565b6040516107ae9190611f9c565b60405180910390f35b6107bf611600565b005b3480156107cd57600080fd5b506107e860048036038101906107e39190611dfd565b6118be565b005b3480156107f657600080fd5b50610811600480360381019061080c9190611f53565b611944565b60405161081e9190612162565b60405180910390f35b34801561083357600080fd5b5061083c611964565b6040516108499190611d7a565b60405180910390f35b60cf548110801561088b57508060076001606461086f9190611c17565b606481106108805761087f612215565b5b600202016001015410155b610af95760007fffffffffffffffffffffffffffffffffffffffffffffffffffffffffffffffff905060005b60648110156108f857600781606481106108d4576108d3612215565b5b60020201600101548311156108eb578091506108f8565b80806001019150506108b7565b5060008112610af7576000600160646109119190611c17565b90505b818111156109df57600760018261092b9190611c17565b6064811061093c5761093b612215565b5b600202016007826064811061095457610953612215565b5b600202016000820160009054906101000a900473ffffffffffffffffffffffffffffffffffffffff168160000160006101000a81548173ffffffffffffffffffffffffffffffffffffffff021916908373ffffffffffffffffffffffffffffffffffffffff1602179055506001820154816001015590505080806109d790612244565b915050610914565b5060405180604001604052808473ffffffffffffffffffffffffffffffffffffffff1681526020018381525060078260648110610a1f57610a1e612215565b5b6002020160008201518160000160006101000a81548173ffffffffffffffffffffffffffffffffffffffff021916908373ffffffffffffffffffffffffffffffffffffffff16021790555060208201518160010155905050600760016064610a879190611c17565b60648110610a9857610a97612215565b5b600202016001015460cf819055508273ffffffffffffffffffffffffffffffffffffffff167f5c874adf9d1c93ab636130bb7e727993f1d6a3d33d1ffd925556815d0eec23088383604051610aee929190611d51565b60405180910390a25b505b5050565b6706f05b59d3b2000081565b60066020528060005260406000206000915090505481565b6802b5e3af16b188000081565b7f000000000000000000000000000000000000000000000000000000000000000081565b610b5a61196a565b60005b83839050811015610bb7578160056000868685818110610b8057610b7f612215565b5b90506020020135815260200190815260200160002060006101000a81548160ff021916908315150217905550806001019050610b5d565b507fd96fb5d90b3a668bd44562db58d63b28ecbb0ad725089b91009fd6d67dd57852838383604051610beb939291906122e8565b60405180910390a1505050565b610c006119f1565b3373ffffffffffffffffffffffffffffffffffffffff163273ffffffffffffffffffffffffffffffffffffffff1614610c6e576040517f08c379a0000000000000000000000000000000000000000000000000000000008152600401610c6590612366565b60405180910390fd5b6000600360003373ffffffffffffffffffffffffffffffffffffffff1673ffffffffffffffffffffffffffffffffffffffff16815260200190815260200160002090508060020160019054906101000a900460ff1615610d03576040517f08c379a0000000000000000000000000000000000000000000000000000000008152600401610cfa906123d2565b60405180910390fd5b6004600083815260200190815260200160002060009054906101000a900460ff1615610d64576040517f08c379a0000000000000000000000000000000000000000000000000000000008152600401610d5b9061243e565b60405180910390fd5b6005600083815260200190815260200160002060009054906101000a900460ff1615610dc5576040517f08c379a0000000000000000000000000000000000000000000000000000000008152600401610dbc906124aa565b60405180910390fd5b7f00000000000000000000000000000000000000000000000000000000000000006706f05b59d3b20000610df99190611c4b565b471015610e3b576040517f08c379a0000000000000000000000000000000000000000000000000000000008152600401610e3290612516565b60405180910390fd5b60006002541115610ed657600254600660003373ffffffffffffffffffffffffffffffffffffffff1673ffffffffffffffffffffffffffffffffffffffff1681526020019081526020016000205442610e949190611c17565b1015610ed5576040517f08c379a0000000000000000000000000000000000000000000000000000000008152600401610ecc90612582565b60405180910390fd5b5b60018160020160016101000a81548160ff02191690831515021790555060016004600084815260200190815260200160002060006101000a81548160ff02191690831515021790555042600660003373ffffffffffffffffffffffffffffffffffffffff1673ffffffffffffffffffffffffffffffffffffffff1681526020019081526020016000208190555060003373ffffffffffffffffffffffffffffffffffffffff166706f05b59d3b20000604051610f9190611cb0565b60006040518083038185875af1925050503d8060008114610fce576040519150601f19603f3d011682016040523d82523d6000602084013e610fd3565b606091505b5050905080611017576040517f08c379a000000000000000000000000000000000000000000000000000000000815260040161100e906125ee565b60405180910390fd5b3373ffffffffffffffffffffffffffffffffffffffff167f987d620f307ff6b94d58743cb7a7509f24071586a77759b77c2d4e29f75a2f9a846706f05b59d3b20000604051611067929190611d51565b60405180910390a25050611079611a37565b50565b68056bc75e2d6310000081565b600068056bc75e2d6310000082106110a457600390506110da565b6802b5e3af16b188000082106110bd57600290506110da565b678ac7230489e8000082106110d557600190506110da565b600090505b919050565b606481565b6110ec61196a565b8060028190555050565b600581565b678ac7230489e8000081565b60606000606467ffffffffffffffff8111156111265761112561260e565b5b60405190808252806020026020018201604052801561115f57816020015b61114c611b0c565b8152602001906001900390816111445790505b50905060005b606481101561121c576007816064811061118257611181612215565b5b600202016040518060400160405290816000820160009054906101000a900473ffffffffffffffffffffffffffffffffffffffff1673ffffffffffffffffffffffffffffffffffffffff1673ffffffffffffffffffffffffffffffffffffffff16815260200160018201548152505082828151811061120457611203612215565b5b60200260200101819052508080600101915050611165565b508091505090565b61122c61196a565b7f000000000000000000000000000000000000000000000000000000000000000081476112599190611c17565b101561129a576040517f08c379a000000000000000000000000000000000000000000000000000000000815260040161129190612689565b60405180910390fd5b60008273ffffffffffffffffffffffffffffffffffffffff16826040516112c090611cb0565b60006040518083038185875af1925050503d80600081146112fd576040519150601f19603f3d011682016040523d82523d6000602084013e611302565b606091505b5050905080611346576040517f08c379a000000000000000000000000000000000000000000000000000000000815260040161133d906126f5565b60405180910390fd5b505050565b61135361196a565b61135d6000611a40565b565b60046020528060005260406000206000915054906101000a900460ff1681565b600080600360008473ffffffffffffffffffffffffffffffffffffffff1673ffffffffffffffffffffffffffffffffffffffff168152602001908152602001600020600001549050600081036113f8577fffffffffffffffffffffffffffffffffffffffffffffffffffffffffffffffff9150506114bb565b60005b6064811015611495578373ffffffffffffffffffffffffffffffffffffffff166007826064811061142f5761142e612215565b5b6002020160000160009054906101000a900473ffffffffffffffffffffffffffffffffffffffff1673ffffffffffffffffffffffffffffffffffffffff16036114885760018161147f9190611c4b565b925050506114bb565b80806001019150506113fb565b507fffffffffffffffffffffffffffffffffffffffffffffffffffffffffffffffff9150505b919050565b60008060009054906101000a900473ffffffffffffffffffffffffffffffffffffffff16905090565b60cf5481565b7f000000000000000000000000000000000000000000000000000000000000000081565b6007816064811061152357600080fd5b600202016000915090508060000160009054906101000a900473ffffffffffffffffffffffffffffffffffffffff16908060010154905082565b60036020528060005260406000206000915090508060000154908060010154908060020160009054906101000a900460ff16908060020160019054906101000a900460ff16905084565b6000600360008373ffffffffffffffffffffffffffffffffffffffff1673ffffffffffffffffffffffffffffffffffffffff16815260200190815260200160002060020160009054906101000a900460ff169050919050565b6116086119f1565b6000341161164b576040517f08c379a000000000000000000000000000000000000000000000000000000000815260040161164290612761565b60405180910390fd5b6000606460053461165c9190611b75565b6116669190611be6565b9050600081346116769190611c17565b90506000600360003373ffffffffffffffffffffffffffffffffffffffff1673ffffffffffffffffffffffffffffffffffffffff1681526020019081526020016000209050818160000160008282546116cf9190611c4b565b9250508190555042816001018190555060008211156116f7576116f6338260000154610852565b5b60006117068260000154611089565b90508160020160009054906101000a900460ff1660ff168160ff16111561179357808260020160006101000a81548160ff021916908360ff1602179055503373ffffffffffffffffffffffffffffffffffffffff167f246b818ff1a781a9edc2a72cdccb95bb6bbbf3387e8f6934fd5a48b17ccb1c358260405161178a9190611f9c565b60405180910390a25b60007f000000000000000000000000000000000000000000000000000000000000000073ffffffffffffffffffffffffffffffffffffffff16856040516117d990611cb0565b60006040518083038185875af1925050503d8060008114611816576040519150601f19603f3d011682016040523d82523d6000602084013e61181b565b606091505b505090508061185f576040517f08c379a000000000000000000000000000000000000000000000000000000000815260040161185690611d22565b60405180910390fd5b3373ffffffffffffffffffffffffffffffffffffffff167f4928895ba6723e8e27b15f32e4c3054a1b6c7f8c03f133558d6fa42b3928d14c85876040516118a7929190611d51565b60405180910390a250505050506118bc611a37565b565b6118c661196a565b600073ffffffffffffffffffffffffffffffffffffffff168173ffffffffffffffffffffffffffffffffffffffff16036119385760006040517f1e4fbdf700000000000000000000000000000000000000000000000000000000815260040161192f919061218c565b60405180910390fd5b61194181611a40565b50565b60056020528060005260406000206000915054906101000a900460ff1681565b60025481565b611972611b04565b73ffffffffffffffffffffffffffffffffffffffff166119906114c0565b73ffffffffffffffffffffffffffffffffffffffff16146119ef576119b3611b04565b6040517f118cdaa70000000000000000000000000000000000000000000000000000000081526004016119e6919061218c565b60405180910390fd5b565b600260015403611a2d576040517f3ee5aeb500000000000000000000000000000000000000000000000000000000815260040160405180910390fd5b6002600181905550565b60018081905550565b60008060009054906101000a900473ffffffffffffffffffffffffffffffffffffffff169050816000806101000a81548173ffffffffffffffffffffffffffffffffffffffff021916908373ffffffffffffffffffffffffffffffffffffffff1602179055508173ffffffffffffffffffffffffffffffffffffffff168173ffffffffffffffffffffffffffffffffffffffff167f8be0079c531659141344cd1fd0a4f28419497f9722a3daafe3b4186f6b6457e060405160405180910390a35050565b600033905090565b6040518060400160405280600073ffffffffffffffffffffffffffffffffffffffff168152602001600081525090565b6000819050919050565b7f4e487b7100000000000000000000000000000000000000000000000000000000600052601160045260246000fd5b6000611b8082611b3c565b9150611b8b83611b3c565b9250828202611b9981611b3c565b91508282048414831517611bb057611baf611b46565b5b5092915050565b7f4e487b7100000000000000000000000000000000000000000000000000000000600052601260045260246000fd5b6000611bf182611b3c565b9150611bfc83611b3c565b925082611c0c57611c0b611bb7565b5b828204905092915050565b6000611c2282611b3c565b9150611c2d83611b3c565b9250828203905081811115611c4557611c44611b46565b5b92915050565b6000611c5682611b3c565b9150611c6183611b3c565b9250828201905080821115611c7957611c78611b46565b5b92915050565b600081905092915050565b50565b6000611c9a600083611c7f565b9150611ca582611c8a565b600082019050919050565b6000611cbb82611c8d565b9150819050919050565b600082825260208201905092915050565b7f44657620666565207472616e73666572206661696c6564000000000000000000600082015250565b6000611d0c601783611cc5565b9150611d1782611cd6565b602082019050919050565b60006020820190508181036000830152611d3b81611cff565b9050919050565b611d4b81611b3c565b82525050565b6000604082019050611d666000830185611d42565b611d736020830184611d42565b9392505050565b6000602082019050611d8f6000830184611d42565b92915050565b600080fd5b600080fd5b600073ffffffffffffffffffffffffffffffffffffffff82169050919050565b6000611dca82611d9f565b9050919050565b611dda81611dbf565b8114611de557600080fd5b50565b600081359050611df781611dd1565b92915050565b600060208284031215611e1357611e12611d95565b5b6000611e2184828501611de8565b91505092915050565b600080fd5b600080fd5b600080fd5b60008083601f840112611e4f57611e4e611e2a565b5b8235905067ffffffffffffffff811115611e6c57611e6b611e2f565b5b602083019150836020820283011115611e8857611e87611e34565b5b9250929050565b60008115159050919050565b611ea481611e8f565b8114611eaf57600080fd5b50565b600081359050611ec181611e9b565b92915050565b600080600060408486031215611ee057611edf611d95565b5b600084013567ffffffffffffffff811115611efe57611efd611d9a565b5b611f0a86828701611e39565b93509350506020611f1d86828701611eb2565b9150509250925092565b611f3081611b3c565b8114611f3b57600080fd5b50565b600081359050611f4d81611f27565b92915050565b600060208284031215611f6957611f68611d95565b5b6000611f7784828501611f3e565b91505092915050565b600060ff82169050919050565b611f9681611f80565b82525050565b6000602082019050611fb16000830184611f8d565b92915050565b600081519050919050565b600082825260208201905092915050565b6000819050602082019050919050565b611fec81611dbf565b82525050565b611ffb81611b3c565b82525050565b6040820160008201516120176000850182611fe3565b50602082015161202a6020850182611ff2565b50505050565b600061203c8383612001565b60408301905092915050565b6000602082019050919050565b600061206082611fb7565b61206a8185611fc2565b935061207583611fd3565b8060005b838110156120a657815161208d8882612030565b975061209883612048565b925050600181019050612079565b5085935050505092915050565b600060208201905081810360008301526120cd8184612055565b905092915050565b60006120e082611d9f565b9050919050565b6120f0816120d5565b81146120fb57600080fd5b50565b60008135905061210d816120e7565b92915050565b6000806040838503121561212a57612129611d95565b5b6000612138858286016120fe565b925050602061214985828601611f3e565b9150509250929050565b61215c81611e8f565b82525050565b60006020820190506121776000830184612153565b92915050565b61218681611dbf565b82525050565b60006020820190506121a1600083018461217d565b92915050565b60006040820190506121bc600083018561217d565b6121c96020830184611d42565b9392505050565b60006080820190506121e56000830187611d42565b6121f26020830186611d42565b6121ff6040830185611f8d565b61220c6060830184612153565b95945050505050565b7f4e487b7100000000000000000000000000000000000000000000000000000000600052603260045260246000fd5b600061224f82611b3c565b91506000820361226257612261611b46565b5b600182039050919050565b600082825260208201905092915050565b600080fd5b82818337505050565b6000612298838561226d565b93507f07ffffffffffffffffffffffffffffffffffffffffffffffffffffffffffffff8311156122cb576122ca61227e565b5b6020830292506122dc838584612283565b82840190509392505050565b6000604082019050818103600083015261230381858761228c565b90506123126020830184612153565b949350505050565b7f436f6e747261637473206e6f7420616c6c6f7765640000000000000000000000600082015250565b6000612350601583611cc5565b915061235b8261231a565b602082019050919050565b6000602082019050818103600083015261237f81612343565b9050919050565b7f416c726561647920636c61696d65642028616464726573732900000000000000600082015250565b60006123bc601983611cc5565b91506123c782612386565b602082019050919050565b600060208201905081810360008301526123eb816123af565b9050919050565b7f416c726561647920636c61696d65642028464944290000000000000000000000600082015250565b6000612428601583611cc5565b9150612433826123f2565b602082019050919050565b600060208201905081810360008301526124578161241b565b9050919050565b7f46494420626c61636b6c69737465640000000000000000000000000000000000600082015250565b6000612494600f83611cc5565b915061249f8261245e565b602082019050919050565b600060208201905081810360008301526124c381612487565b9050919050565b7f5661756c742062616c616e636520746f6f206c6f770000000000000000000000600082015250565b6000612500601583611cc5565b915061250b826124ca565b602082019050919050565b6000602082019050818103600083015261252f816124f3565b9050919050565b7f436f6f6c646f776e206e6f742070617373656400000000000000000000000000600082015250565b600061256c601383611cc5565b915061257782612536565b602082019050919050565b6000602082019050818103600083015261259b8161255f565b9050919050565b7f43454c4f207472616e73666572206661696c6564000000000000000000000000600082015250565b60006125d8601483611cc5565b91506125e3826125a2565b602082019050919050565b60006020820190508181036000830152612607816125cb565b9050919050565b7f4e487b7100000000000000000000000000000000000000000000000000000000600052604160045260246000fd5b7f43616e6e6f742073776565702062656c6f77206d696e2062616c616e63650000600082015250565b6000612673601e83611cc5565b915061267e8261263d565b602082019050919050565b600060208201905081810360008301526126a281612666565b9050919050565b7f5377656570206661696c65640000000000000000000000000000000000000000600082015250565b60006126df600c83611cc5565b91506126ea826126a9565b602082019050919050565b6000602082019050818103600083015261270e816126d2565b9050919050565b7f5a65726f206465706f7369740000000000000000000000000000000000000000600082015250565b600061274b600c83611cc5565b915061275682612715565b602082019050919050565b6000602082019050818103600083015261277a8161273e565b905091905056fea264697066735822122026aa5955151447d90e626c74386f2ffd5c74cfe54111ca392adea3f32928814964736f6c63430008180033",
  "linkReferences": {},
  "deployedLinkReferences": {}
}