{
  "_format": "hh-sol-artifact-1",
  "contractName": "BankOfCelo",
  "sourceName": "contracts/BankOfCelo.sol",
  "abi": [
    {
      "inputs": [
        {
          "internalType": "uint256",
          "name": "_minVaultBalance",
          "type": "uint256"
        }
      ],
      "stateMutability": "payable",
      "type": "constructor"
    },
    {
      "inputs": [
        {
          "internalType": "address",
          "name": "owner",
          "type": "address"
        }
      ],
      "name": "OwnableInvalidOwner",
      "type": "error"
    },
    {
      "inputs": [
        {
          "internalType": "address",
          "name": "account",
          "type": "address"
        }
      ],
      "name": "OwnableUnauthorizedAccount",
      "type": "error"
    },
    {
      "inputs": [],
      "name": "ReentrancyGuardReentrantCall",
      "type": "error"
    },
    {
      "anonymous": false,
      "inputs": [
        {
          "indexed": false,
          "internalType": "uint256[]",
          "name": "fids",
          "type": "uint256[]"
        },
        {
          "indexed": false,
          "internalType": "bool",
          "name": "isBlacklisted",
          "type": "bool"
        }
      ],
      "name": "BlacklistUpdated",
      "type": "event"
    },
    {
      "anonymous": false,
      "inputs": [
        {
          "indexed": true,
          "internalType": "address",
          "name": "recipient",
          "type": "address"
        },
        {
          "indexed": false,
          "internalType": "uint256",
          "name": "fid",
          "type": "uint256"
        },
        {
          "indexed": false,
          "internalType": "uint256",
          "name": "amount",
          "type": "uint256"
        }
      ],
      "name": "Claimed",
      "type": "event"
    },
    {
      "anonymous": false,
      "inputs": [
        {
          "indexed": true,
          "internalType": "address",
          "name": "donor",
          "type": "address"
        },
        {
          "indexed": false,
          "internalType": "uint256",
          "name": "amount",
          "type": "uint256"
        }
      ],
      "name": "Donated",
      "type": "event"
    },
    {
      "anonymous": false,
      "inputs": [
        {
          "indexed": true,
          "internalType": "address",
          "name": "previousOwner",
          "type": "address"
        },
        {
          "indexed": true,
          "internalType": "address",
          "name": "newOwner",
          "type": "address"
        }
      ],
      "name": "OwnershipTransferred",
      "type": "event"
    },
    {
      "inputs": [],
      "name": "MAX_CLAIM",
      "outputs": [
        {
          "internalType": "uint256",
          "name": "",
          "type": "uint256"
        }
      ],
      "stateMutability": "view",
      "type": "function"
    },
    {
      "inputs": [
        {
          "internalType": "uint256",
          "name": "fid",
          "type": "uint256"
        }
      ],
      "name": "claim",
      "outputs": [],
      "stateMutability": "nonpayable",
      "type": "function"
    },
    {
      "inputs": [],
      "name": "claimCooldown",
      "outputs": [
        {
          "internalType": "uint256",
          "name": "",
          "type": "uint256"
        }
      ],
      "stateMutability": "view",
      "type": "function"
    },
    {
      "inputs": [],
      "name": "donate",
      "outputs": [],
      "stateMutability": "payable",
      "type": "function"
    },
    {
      "inputs": [
        {
          "internalType": "address",
          "name": "",
          "type": "address"
        }
      ],
      "name": "donorTotals",
      "outputs": [
        {
          "internalType": "uint256",
          "name": "",
          "type": "uint256"
        }
      ],
      "stateMutability": "view",
      "type": "function"
    },
    {
      "inputs": [
        {
          "internalType": "uint256",
          "name": "",
          "type": "uint256"
        }
      ],
      "name": "fidBlacklisted",
      "outputs": [
        {
          "internalType": "bool",
          "name": "",
          "type": "bool"
        }
      ],
      "stateMutability": "view",
      "type": "function"
    },
    {
      "inputs": [
        {
          "internalType": "uint256",
          "name": "",
          "type": "uint256"
        }
      ],
      "name": "fidClaimed",
      "outputs": [
        {
          "internalType": "bool",
          "name": "",
          "type": "bool"
        }
      ],
      "stateMutability": "view",
      "type": "function"
    },
    {
      "inputs": [
        {
          "internalType": "address",
          "name": "",
          "type": "address"
        }
      ],
      "name": "hasClaimed",
      "outputs": [
        {
          "internalType": "bool",
          "name": "",
          "type": "bool"
        }
      ],
      "stateMutability": "view",
      "type": "function"
    },
    {
      "inputs": [
        {
          "internalType": "address",
          "name": "",
          "type": "address"
        }
      ],
      "name": "lastClaimAt",
      "outputs": [
        {
          "internalType": "uint256",
          "name": "",
          "type": "uint256"
        }
      ],
      "stateMutability": "view",
      "type": "function"
    },
    {
      "inputs": [],
      "name": "minVaultBalance",
      "outputs": [
        {
          "internalType": "uint256",
          "name": "",
          "type": "uint256"
        }
      ],
      "stateMutability": "view",
      "type": "function"
    },
    {
      "inputs": [],
      "name": "owner",
      "outputs": [
        {
          "internalType": "address",
          "name": "",
          "type": "address"
        }
      ],
      "stateMutability": "view",
      "type": "function"
    },
    {
      "inputs": [],
      "name": "renounceOwnership",
      "outputs": [],
      "stateMutability": "nonpayable",
      "type": "function"
    },
    {
      "inputs": [
        {
          "internalType": "uint256",
          "name": "seconds_",
          "type": "uint256"
        }
      ],
      "name": "setClaimCooldown",
      "outputs": [],
      "stateMutability": "nonpayable",
      "type": "function"
    },
    {
      "inputs": [
        {
          "internalType": "address payable",
          "name": "to",
          "type": "address"
        },
        {
          "internalType": "uint256",
          "name": "amount",
          "type": "uint256"
        }
      ],
      "name": "sweep",
      "outputs": [],
      "stateMutability": "nonpayable",
      "type": "function"
    },
    {
      "inputs": [
        {
          "internalType": "address",
          "name": "newOwner",
          "type": "address"
        }
      ],
      "name": "transferOwnership",
      "outputs": [],
      "stateMutability": "nonpayable",
      "type": "function"
    },
    {
      "inputs": [
        {
          "internalType": "uint256[]",
          "name": "fids",
          "type": "uint256[]"
        },
        {
          "internalType": "bool",
          "name": "isBlacklisted",
          "type": "bool"
        }
      ],
      "name": "updateBlacklist",
      "outputs": [],
      "stateMutability": "nonpayable",
      "type": "function"
    },
    {
      "stateMutability": "payable",
      "type": "receive"
    }
  ],
  "bytecode": "0x60a0604052600060025560405162001b0b38038062001b0b83398181016040528101906200002e9190620001d0565b33600073ffffffffffffffffffffffffffffffffffffffff168173ffffffffffffffffffffffffffffffffffffffff1603620000a45760006040517f1e4fbdf70000000000000000000000000000000000000000000000000000000081526004016200009b919062000247565b60405180910390fd5b620000b581620000cc60201b60201c565b506001808190555080608081815250505062000264565b60008060009054906101000a900473ffffffffffffffffffffffffffffffffffffffff169050816000806101000a81548173ffffffffffffffffffffffffffffffffffffffff021916908373ffffffffffffffffffffffffffffffffffffffff1602179055508173ffffffffffffffffffffffffffffffffffffffff168173ffffffffffffffffffffffffffffffffffffffff167f8be0079c531659141344cd1fd0a4f28419497f9722a3daafe3b4186f6b6457e060405160405180910390a35050565b600080fd5b6000819050919050565b620001aa8162000195565b8114620001b657600080fd5b50565b600081519050620001ca816200019f565b92915050565b600060208284031215620001e957620001e862000190565b5b6000620001f984828501620001b9565b91505092915050565b600073ffffffffffffffffffffffffffffffffffffffff82169050919050565b60006200022f8262000202565b9050919050565b620002418162000222565b82525050565b60006020820190506200025e600083018462000236565b92915050565b60805161187d6200028e60003960008181610498015281816107270152610a32015261187d6000f3fe6080604052600436106100f75760003560e01c806373b2e80e1161008a578063ed88c68e11610059578063ed88c68e146103d7578063f2fde38b146103e1578063f7d870c51461040a578063fdea365714610447576101a2565b806373b2e80e146102f55780637f0ada3e146103325780638da5cb5b1461036f578063c09d36251461039a576101a2565b8063379607f5116100c6578063379607f51461026357806359c9eb901461028c5780636ea056a9146102b5578063715018a6146102de576101a2565b806301b65b71146101a757806303822d3b146101d25780632ca9d5841461020f5780632ee4120e1461023a576101a2565b366101a25734600760003373ffffffffffffffffffffffffffffffffffffffff1673ffffffffffffffffffffffffffffffffffffffff168152602001908152602001600020600082825461014b9190610f64565b925050819055503373ffffffffffffffffffffffffffffffffffffffff167f2a01595cddf097c90216094025db714da3f4e5bd8877b56ba86a24ecead8e543346040516101989190610fa7565b60405180910390a2005b600080fd5b3480156101b357600080fd5b506101bc610472565b6040516101c99190610fa7565b60405180910390f35b3480156101de57600080fd5b506101f960048036038101906101f4919061102a565b61047e565b6040516102069190610fa7565b60405180910390f35b34801561021b57600080fd5b50610224610496565b6040516102319190610fa7565b60405180910390f35b34801561024657600080fd5b50610261600480360381019061025c91906110f4565b6104ba565b005b34801561026f57600080fd5b5061028a60048036038101906102859190611180565b610560565b005b34801561029857600080fd5b506102b360048036038101906102ae9190611180565b610a16565b005b3480156102c157600080fd5b506102dc60048036038101906102d791906111eb565b610a28565b005b3480156102ea57600080fd5b506102f3610b4f565b005b34801561030157600080fd5b5061031c6004803603810190610317919061102a565b610b63565b604051610329919061123a565b60405180910390f35b34801561033e57600080fd5b5061035960048036038101906103549190611180565b610b83565b604051610366919061123a565b60405180910390f35b34801561037b57600080fd5b50610384610ba3565b6040516103919190611264565b60405180910390f35b3480156103a657600080fd5b506103c160048036038101906103bc919061102a565b610bcc565b6040516103ce9190610fa7565b60405180910390f35b6103df610be4565b005b3480156103ed57600080fd5b506104086004803603810190610403919061102a565b610cdd565b005b34801561041657600080fd5b50610431600480360381019061042c9190611180565b610d63565b60405161043e919061123a565b60405180910390f35b34801561045357600080fd5b5061045c610d83565b6040516104699190610fa7565b60405180910390f35b6706f05b59d3b2000081565b60036020528060005260406000206000915090505481565b7f000000000000000000000000000000000000000000000000000000000000000081565b6104c2610d89565b60005b8383905081101561051f5781600660008686858181106104e8576104e761127f565b5b90506020020135815260200190815260200160002060006101000a81548160ff0219169083151502179055508060010190506104c5565b507fd96fb5d90b3a668bd44562db58d63b28ecbb0ad725089b91009fd6d67dd5785283838360405161055393929190611329565b60405180910390a1505050565b610568610e10565b3373ffffffffffffffffffffffffffffffffffffffff163273ffffffffffffffffffffffffffffffffffffffff16146105d6576040517f08c379a00000000000000000000000000000000000000000000000000000000081526004016105cd906113b8565b60405180910390fd5b600460003373ffffffffffffffffffffffffffffffffffffffff1673ffffffffffffffffffffffffffffffffffffffff16815260200190815260200160002060009054906101000a900460ff1615610663576040517f08c379a000000000000000000000000000000000000000000000000000000000815260040161065a90611424565b60405180910390fd5b6005600082815260200190815260200160002060009054906101000a900460ff16156106c4576040517f08c379a00000000000000000000000000000000000000000000000000000000081526004016106bb90611490565b60405180910390fd5b6006600082815260200190815260200160002060009054906101000a900460ff1615610725576040517f08c379a000000000000000000000000000000000000000000000000000000000815260040161071c906114fc565b60405180910390fd5b7f00000000000000000000000000000000000000000000000000000000000000006706f05b59d3b200006107599190610f64565b47101561079b576040517f08c379a000000000000000000000000000000000000000000000000000000000815260040161079290611568565b60405180910390fd5b6000600254111561083657600254600360003373ffffffffffffffffffffffffffffffffffffffff1673ffffffffffffffffffffffffffffffffffffffff16815260200190815260200160002054426107f49190611588565b1015610835576040517f08c379a000000000000000000000000000000000000000000000000000000000815260040161082c90611608565b60405180910390fd5b5b6001600460003373ffffffffffffffffffffffffffffffffffffffff1673ffffffffffffffffffffffffffffffffffffffff16815260200190815260200160002060006101000a81548160ff02191690831515021790555060016005600083815260200190815260200160002060006101000a81548160ff02191690831515021790555042600360003373ffffffffffffffffffffffffffffffffffffffff1673ffffffffffffffffffffffffffffffffffffffff1681526020019081526020016000208190555060003373ffffffffffffffffffffffffffffffffffffffff166706f05b59d3b2000060405161092c90611659565b60006040518083038185875af1925050503d8060008114610969576040519150601f19603f3d011682016040523d82523d6000602084013e61096e565b606091505b50509050806109b2576040517f08c379a00000000000000000000000000000000000000000000000000000000081526004016109a9906116ba565b60405180910390fd5b3373ffffffffffffffffffffffffffffffffffffffff167f987d620f307ff6b94d58743cb7a7509f24071586a77759b77c2d4e29f75a2f9a836706f05b59d3b20000604051610a029291906116da565b60405180910390a250610a13610e56565b50565b610a1e610d89565b8060028190555050565b610a30610d89565b7f00000000000000000000000000000000000000000000000000000000000000008147610a5d9190611588565b1015610a9e576040517f08c379a0000000000000000000000000000000000000000000000000000000008152600401610a959061174f565b60405180910390fd5b60008273ffffffffffffffffffffffffffffffffffffffff1682604051610ac490611659565b60006040518083038185875af1925050503d8060008114610b01576040519150601f19603f3d011682016040523d82523d6000602084013e610b06565b606091505b5050905080610b4a576040517f08c379a0000000000000000000000000000000000000000000000000000000008152600401610b41906117bb565b60405180910390fd5b505050565b610b57610d89565b610b616000610e5f565b565b60046020528060005260406000206000915054906101000a900460ff1681565b60056020528060005260406000206000915054906101000a900460ff1681565b60008060009054906101000a900473ffffffffffffffffffffffffffffffffffffffff16905090565b60076020528060005260406000206000915090505481565b610bec610e10565b60003411610c2f576040517f08c379a0000000000000000000000000000000000000000000000000000000008152600401610c2690611827565b60405180910390fd5b34600760003373ffffffffffffffffffffffffffffffffffffffff1673ffffffffffffffffffffffffffffffffffffffff1681526020019081526020016000206000828254610c7e9190610f64565b925050819055503373ffffffffffffffffffffffffffffffffffffffff167f2a01595cddf097c90216094025db714da3f4e5bd8877b56ba86a24ecead8e54334604051610ccb9190610fa7565b60405180910390a2610cdb610e56565b565b610ce5610d89565b600073ffffffffffffffffffffffffffffffffffffffff168173ffffffffffffffffffffffffffffffffffffffff1603610d575760006040517f1e4fbdf7000000000000000000000000000000000000000000000000000000008152600401610d4e9190611264565b60405180910390fd5b610d6081610e5f565b50565b60066020528060005260406000206000915054906101000a900460ff1681565b60025481565b610d91610f23565b73ffffffffffffffffffffffffffffffffffffffff16610daf610ba3565b73ffffffffffffffffffffffffffffffffffffffff1614610e0e57610dd2610f23565b6040517f118cdaa7000000000000000000000000000000000000000000000000000000008152600401610e059190611264565b60405180910390fd5b565b600260015403610e4c576040517f3ee5aeb500000000000000000000000000000000000000000000000000000000815260040160405180910390fd5b6002600181905550565b60018081905550565b60008060009054906101000a900473ffffffffffffffffffffffffffffffffffffffff169050816000806101000a81548173ffffffffffffffffffffffffffffffffffffffff021916908373ffffffffffffffffffffffffffffffffffffffff1602179055508173ffffffffffffffffffffffffffffffffffffffff168173ffffffffffffffffffffffffffffffffffffffff167f8be0079c531659141344cd1fd0a4f28419497f9722a3daafe3b4186f6b6457e060405160405180910390a35050565b600033905090565b6000819050919050565b7f4e487b7100000000000000000000000000000000000000000000000000000000600052601160045260246000fd5b6000610f6f82610f2b565b9150610f7a83610f2b565b9250828201905080821115610f9257610f91610f35565b5b92915050565b610fa181610f2b565b82525050565b6000602082019050610fbc6000830184610f98565b92915050565b600080fd5b600080fd5b600073ffffffffffffffffffffffffffffffffffffffff82169050919050565b6000610ff782610fcc565b9050919050565b61100781610fec565b811461101257600080fd5b50565b60008135905061102481610ffe565b92915050565b6000602082840312156110405761103f610fc2565b5b600061104e84828501611015565b91505092915050565b600080fd5b600080fd5b600080fd5b60008083601f84011261107c5761107b611057565b5b8235905067ffffffffffffffff8111156110995761109861105c565b5b6020830191508360208202830111156110b5576110b4611061565b5b9250929050565b60008115159050919050565b6110d1816110bc565b81146110dc57600080fd5b50565b6000813590506110ee816110c8565b92915050565b60008060006040848603121561110d5761110c610fc2565b5b600084013567ffffffffffffffff81111561112b5761112a610fc7565b5b61113786828701611066565b9350935050602061114a868287016110df565b9150509250925092565b61115d81610f2b565b811461116857600080fd5b50565b60008135905061117a81611154565b92915050565b60006020828403121561119657611195610fc2565b5b60006111a48482850161116b565b91505092915050565b60006111b882610fcc565b9050919050565b6111c8816111ad565b81146111d357600080fd5b50565b6000813590506111e5816111bf565b92915050565b6000806040838503121561120257611201610fc2565b5b6000611210858286016111d6565b92505060206112218582860161116b565b9150509250929050565b611234816110bc565b82525050565b600060208201905061124f600083018461122b565b92915050565b61125e81610fec565b82525050565b60006020820190506112796000830184611255565b92915050565b7f4e487b7100000000000000000000000000000000000000000000000000000000600052603260045260246000fd5b600082825260208201905092915050565b600080fd5b82818337505050565b60006112d983856112ae565b93507f07ffffffffffffffffffffffffffffffffffffffffffffffffffffffffffffff83111561130c5761130b6112bf565b5b60208302925061131d8385846112c4565b82840190509392505050565b600060408201905081810360008301526113448185876112cd565b9050611353602083018461122b565b949350505050565b600082825260208201905092915050565b7f436f6e747261637473206e6f7420616c6c6f7765640000000000000000000000600082015250565b60006113a260158361135b565b91506113ad8261136c565b602082019050919050565b600060208201905081810360008301526113d181611395565b9050919050565b7f416c726561647920636c61696d65642028616464726573732900000000000000600082015250565b600061140e60198361135b565b9150611419826113d8565b602082019050919050565b6000602082019050818103600083015261143d81611401565b9050919050565b7f416c726561647920636c61696d65642028464944290000000000000000000000600082015250565b600061147a60158361135b565b915061148582611444565b602082019050919050565b600060208201905081810360008301526114a98161146d565b9050919050565b7f46494420626c61636b6c69737465640000000000000000000000000000000000600082015250565b60006114e6600f8361135b565b91506114f1826114b0565b602082019050919050565b60006020820190508181036000830152611515816114d9565b9050919050565b7f5661756c742062616c616e636520746f6f206c6f770000000000000000000000600082015250565b600061155260158361135b565b915061155d8261151c565b602082019050919050565b6000602082019050818103600083015261158181611545565b9050919050565b600061159382610f2b565b915061159e83610f2b565b92508282039050818111156115b6576115b5610f35565b5b92915050565b7f436f6f6c646f776e206e6f742070617373656400000000000000000000000000600082015250565b60006115f260138361135b565b91506115fd826115bc565b602082019050919050565b60006020820190508181036000830152611621816115e5565b9050919050565b600081905092915050565b50565b6000611643600083611628565b915061164e82611633565b600082019050919050565b600061166482611636565b9150819050919050565b7f43454c4f207472616e73666572206661696c6564000000000000000000000000600082015250565b60006116a460148361135b565b91506116af8261166e565b602082019050919050565b600060208201905081810360008301526116d381611697565b9050919050565b60006040820190506116ef6000830185610f98565b6116fc6020830184610f98565b9392505050565b7f43616e6e6f742073776565702062656c6f77206d696e2062616c616e63650000600082015250565b6000611739601e8361135b565b915061174482611703565b602082019050919050565b600060208201905081810360008301526117688161172c565b9050919050565b7f5377656570206661696c65640000000000000000000000000000000000000000600082015250565b60006117a5600c8361135b565b91506117b08261176f565b602082019050919050565b600060208201905081810360008301526117d481611798565b9050919050565b7f5a65726f206465706f7369740000000000000000000000000000000000000000600082015250565b6000611811600c8361135b565b915061181c826117db565b602082019050919050565b6000602082019050818103600083015261184081611804565b905091905056fea26469706673582212207dce2b7bdb5d282509f81664f0592b84bcb5f6f36aa2dc9ad9a1dbbd6724f03364736f6c63430008180033",
  "linkReferences": {},
  "deployedLinkReferences": {}
}