{
  "_format": "hh-sol-artifact-1",
  "contractName": "CeloDailyCheckIn",
  "sourceName": "contracts/CeloDailyCheckIn.sol",
  "abi": [
    {
      "inputs": [
        {
          "internalType": "address",
          "name": "_trustedSigner",
          "type": "address"
        }
      ],
      "stateMutability": "nonpayable",
      "type": "constructor"
    },
    {
      "anonymous": false,
      "inputs": [
        {
          "indexed": true,
          "internalType": "address",
          "name": "user",
          "type": "address"
        },
        {
          "indexed": true,
          "internalType": "uint256",
          "name": "day",
          "type": "uint256"
        },
        {
          "indexed": false,
          "internalType": "uint256",
          "name": "round",
          "type": "uint256"
        }
      ],
      "name": "CheckedIn",
      "type": "event"
    },
    {
      "anonymous": false,
      "inputs": [
        {
          "indexed": true,
          "internalType": "address",
          "name": "depositor",
          "type": "address"
        },
        {
          "indexed": false,
          "internalType": "uint256",
          "name": "amount",
          "type": "uint256"
        }
      ],
      "name": "FundsDeposited",
      "type": "event"
    },
    {
      "anonymous": false,
      "inputs": [
        {
          "indexed": true,
          "internalType": "address",
          "name": "user",
          "type": "address"
        },
        {
          "indexed": false,
          "internalType": "uint256",
          "name": "round",
          "type": "uint256"
        }
      ],
      "name": "RewardClaimed",
      "type": "event"
    },
    {
      "anonymous": false,
      "inputs": [
        {
          "indexed": true,
          "internalType": "uint256",
          "name": "round",
          "type": "uint256"
        }
      ],
      "name": "RoundEnded",
      "type": "event"
    },
    {
      "anonymous": false,
      "inputs": [
        {
          "indexed": true,
          "internalType": "uint256",
          "name": "round",
          "type": "uint256"
        }
      ],
      "name": "RoundStarted",
      "type": "event"
    },
    {
      "inputs": [],
      "name": "admin",
      "outputs": [
        {
          "internalType": "address",
          "name": "",
          "type": "address"
        }
      ],
      "stateMutability": "view",
      "type": "function"
    },
    {
      "inputs": [
        {
          "internalType": "uint256",
          "name": "day",
          "type": "uint256"
        },
        {
          "internalType": "bytes",
          "name": "signature",
          "type": "bytes"
        }
      ],
      "name": "checkIn",
      "outputs": [],
      "stateMutability": "payable",
      "type": "function"
    },
    {
      "inputs": [],
      "name": "checkInFee",
      "outputs": [
        {
          "internalType": "uint256",
          "name": "",
          "type": "uint256"
        }
      ],
      "stateMutability": "view",
      "type": "function"
    },
    {
      "inputs": [
        {
          "internalType": "uint256",
          "name": "fid",
          "type": "uint256"
        },
        {
          "internalType": "bytes",
          "name": "signature",
          "type": "bytes"
        }
      ],
      "name": "claimReward",
      "outputs": [],
      "stateMutability": "nonpayable",
      "type": "function"
    },
    {
      "inputs": [],
      "name": "currentRound",
      "outputs": [
        {
          "internalType": "uint256",
          "name": "",
          "type": "uint256"
        }
      ],
      "stateMutability": "view",
      "type": "function"
    },
    {
      "inputs": [
        {
          "internalType": "uint256",
          "name": "",
          "type": "uint256"
        },
        {
          "internalType": "address",
          "name": "",
          "type": "address"
        },
        {
          "internalType": "uint256",
          "name": "",
          "type": "uint256"
        }
      ],
      "name": "dailyCheckIns",
      "outputs": [
        {
          "internalType": "bool",
          "name": "",
          "type": "bool"
        }
      ],
      "stateMutability": "view",
      "type": "function"
    },
    {
      "inputs": [],
      "name": "deposit",
      "outputs": [],
      "stateMutability": "payable",
      "type": "function"
    },
    {
      "inputs": [
        {
          "internalType": "uint256",
          "name": "",
          "type": "uint256"
        },
        {
          "internalType": "uint256",
          "name": "",
          "type": "uint256"
        }
      ],
      "name": "fidUsedInRound",
      "outputs": [
        {
          "internalType": "bool",
          "name": "",
          "type": "bool"
        }
      ],
      "stateMutability": "view",
      "type": "function"
    },
    {
      "inputs": [],
      "name": "getActiveRound",
      "outputs": [
        {
          "components": [
            {
              "internalType": "uint256",
              "name": "startTime",
              "type": "uint256"
            },
            {
              "internalType": "bool",
              "name": "isActive",
              "type": "bool"
            },
            {
              "internalType": "uint256",
              "name": "participantCount",
              "type": "uint256"
            },
            {
              "internalType": "uint256",
              "name": "totalCheckIns",
              "type": "uint256"
            }
          ],
          "internalType": "struct CeloDailyCheckIn.Round",
          "name": "",
          "type": "tuple"
        }
      ],
      "stateMutability": "view",
      "type": "function"
    },
    {
      "inputs": [],
      "name": "getAllRounds",
      "outputs": [
        {
          "components": [
            {
              "internalType": "uint256",
              "name": "startTime",
              "type": "uint256"
            },
            {
              "internalType": "bool",
              "name": "isActive",
              "type": "bool"
            },
            {
              "internalType": "uint256",
              "name": "participantCount",
              "type": "uint256"
            },
            {
              "internalType": "uint256",
              "name": "totalCheckIns",
              "type": "uint256"
            }
          ],
          "internalType": "struct CeloDailyCheckIn.Round[]",
          "name": "",
          "type": "tuple[]"
        }
      ],
      "stateMutability": "view",
      "type": "function"
    },
    {
      "inputs": [
        {
          "internalType": "address",
          "name": "user",
          "type": "address"
        }
      ],
      "name": "getUserStatus",
      "outputs": [
        {
          "internalType": "uint256",
          "name": "currentCheckIns",
          "type": "uint256"
        },
        {
          "internalType": "bool",
          "name": "eligibleForReward",
          "type": "bool"
        },
        {
          "internalType": "bool",
          "name": "hasClaimed",
          "type": "bool"
        }
      ],
      "stateMutability": "view",
      "type": "function"
    },
    {
      "inputs": [],
      "name": "rewardAmount",
      "outputs": [
        {
          "internalType": "uint256",
          "name": "",
          "type": "uint256"
        }
      ],
      "stateMutability": "view",
      "type": "function"
    },
    {
      "inputs": [
        {
          "internalType": "uint256",
          "name": "",
          "type": "uint256"
        }
      ],
      "name": "rounds",
      "outputs": [
        {
          "internalType": "uint256",
          "name": "startTime",
          "type": "uint256"
        },
        {
          "internalType": "bool",
          "name": "isActive",
          "type": "bool"
        },
        {
          "internalType": "uint256",
          "name": "participantCount",
          "type": "uint256"
        },
        {
          "internalType": "uint256",
          "name": "totalCheckIns",
          "type": "uint256"
        }
      ],
      "stateMutability": "view",
      "type": "function"
    },
    {
      "inputs": [
        {
          "internalType": "uint256",
          "name": "newFee",
          "type": "uint256"
        }
      ],
      "name": "setCheckInFee",
      "outputs": [],
      "stateMutability": "nonpayable",
      "type": "function"
    },
    {
      "inputs": [
        {
          "internalType": "address",
          "name": "newSigner",
          "type": "address"
        }
      ],
      "name": "setTrustedSigner",
      "outputs": [],
      "stateMutability": "nonpayable",
      "type": "function"
    },
    {
      "inputs": [],
      "name": "startNewRound",
      "outputs": [],
      "stateMutability": "nonpayable",
      "type": "function"
    },
    {
      "inputs": [],
      "name": "stopRound",
      "outputs": [],
      "stateMutability": "nonpayable",
      "type": "function"
    },
    {
      "inputs": [],
      "name": "trustedSigner",
      "outputs": [
        {
          "internalType": "address",
          "name": "",
          "type": "address"
        }
      ],
      "stateMutability": "view",
      "type": "function"
    },
    {
      "inputs": [
        {
          "internalType": "uint256",
          "name": "",
          "type": "uint256"
        },
        {
          "internalType": "address",
          "name": "",
          "type": "address"
        }
      ],
      "name": "userRoundData",
      "outputs": [
        {
          "internalType": "uint256",
          "name": "checkInCount",
          "type": "uint256"
        },
        {
          "internalType": "bool",
          "name": "hasClaimed",
          "type": "bool"
        }
      ],
      "stateMutability": "view",
      "type": "function"
    },
    {
      "inputs": [],
      "name": "withdrawFunds",
      "outputs": [],
      "stateMutability": "nonpayable",
      "type": "function"
    },
    {
      "stateMutability": "payable",
      "type": "receive"
    }
  ],
  "bytecode": "0x6080604052670de0b6b3a764000060025566038d7ea4c680006004553480156200002857600080fd5b506040516200276d3803806200276d83398181016040528101906200004e9190620001f2565b336000806101000a81548173ffffffffffffffffffffffffffffffffffffffff021916908373ffffffffffffffffffffffffffffffffffffffff16021790555080600360006101000a81548173ffffffffffffffffffffffffffffffffffffffff021916908373ffffffffffffffffffffffffffffffffffffffff1602179055506001808190555060405180608001604052804281526020016001151581526020016000815260200160008152506005600060015481526020019081526020016000206000820151816000015560208201518160010160006101000a81548160ff02191690831515021790555060408201518160020155606082015181600301559050506001547f33a701182892fd888ed152ca2ac23771a32e814469b7cd255965471e1af3a65960405160405180910390a25062000224565b600080fd5b600073ffffffffffffffffffffffffffffffffffffffff82169050919050565b6000620001ba826200018d565b9050919050565b620001cc81620001ad565b8114620001d857600080fd5b50565b600081519050620001ec81620001c1565b92915050565b6000602082840312156200020b576200020a62000188565b5b60006200021b84828501620001db565b91505092915050565b61253980620002346000396000f3fe6080604052600436106101235760003560e01c80639aff62aa116100a0578063e5066bbf11610064578063e5066bbf146103dc578063ea0d5dcd14610407578063f74d548014610446578063f7b2a7be14610471578063f851a4401461049c57610178565b80639aff62aa14610336578063b1674d6714610361578063bd85948c1461037d578063d0e30db014610394578063dca5a3d71461039e57610178565b806356a1c701116100e757806356a1c70114610250578063754685c5146102795780637b2301f2146102a25780638a19c8bc146102cb5780638c65c81f146102f657610178565b806306c5b7a01461017d5780630efc3003146101a857806313d92898146101e557806324600fc31461022257806355b895eb1461023957610178565b36610178573373ffffffffffffffffffffffffffffffffffffffff167f543ba50a5eec5e6178218e364b1d0f396157b3c8fa278522c2cb7fd99407d4743460405161016e9190611775565b60405180910390a2005b600080fd5b34801561018957600080fd5b506101926104c7565b60405161019f919061180f565b60405180910390f35b3480156101b457600080fd5b506101cf60048036038101906101ca919061186a565b61052d565b6040516101dc91906118b9565b60405180910390f35b3480156101f157600080fd5b5061020c60048036038101906102079190611932565b61055c565b60405161021991906118b9565b60405180910390f35b34801561022e57600080fd5b50610237610598565b005b34801561024557600080fd5b5061024e61068f565b005b34801561025c57600080fd5b5061027760048036038101906102729190611985565b61077f565b005b34801561028557600080fd5b506102a0600480360381019061029b9190611af8565b610851565b005b3480156102ae57600080fd5b506102c960048036038101906102c49190611b54565b610be8565b005b3480156102d757600080fd5b506102e0610c80565b6040516102ed9190611775565b60405180910390f35b34801561030257600080fd5b5061031d60048036038101906103189190611b54565b610c86565b60405161032d9493929190611b81565b60405180910390f35b34801561034257600080fd5b5061034b610cc3565b6040516103589190611775565b60405180910390f35b61037b60048036038101906103769190611af8565b610cc9565b005b34801561038957600080fd5b506103926110f3565b005b61039c611246565b005b3480156103aa57600080fd5b506103c560048036038101906103c09190611bc6565b6112d9565b6040516103d3929190611c06565b60405180910390f35b3480156103e857600080fd5b506103f1611317565b6040516103fe9190611d33565b60405180910390f35b34801561041357600080fd5b5061042e60048036038101906104299190611985565b61141f565b60405161043d93929190611d55565b60405180910390f35b34801561045257600080fd5b5061045b6114ca565b6040516104689190611d9b565b60405180910390f35b34801561047d57600080fd5b506104866114f0565b6040516104939190611775565b60405180910390f35b3480156104a857600080fd5b506104b16114f6565b6040516104be9190611d9b565b60405180910390f35b6104cf611732565b600560006001548152602001908152602001600020604051806080016040529081600082015481526020016001820160009054906101000a900460ff1615151515815260200160028201548152602001600382015481525050905090565b60086020528160005260406000206020528060005260406000206000915091509054906101000a900460ff1681565b6006602052826000526040600020602052816000526040600020602052806000526040600020600092509250509054906101000a900460ff1681565b60008054906101000a900473ffffffffffffffffffffffffffffffffffffffff1673ffffffffffffffffffffffffffffffffffffffff163373ffffffffffffffffffffffffffffffffffffffff1614610626576040517f08c379a000000000000000000000000000000000000000000000000000000000815260040161061d90611e13565b60405180910390fd5b60008054906101000a900473ffffffffffffffffffffffffffffffffffffffff1673ffffffffffffffffffffffffffffffffffffffff166108fc479081150290604051600060405180830381858888f1935050505015801561068c573d6000803e3d6000fd5b50565b60008054906101000a900473ffffffffffffffffffffffffffffffffffffffff1673ffffffffffffffffffffffffffffffffffffffff163373ffffffffffffffffffffffffffffffffffffffff161461071d576040517f08c379a000000000000000000000000000000000000000000000000000000000815260040161071490611e13565b60405180910390fd5b600060056000600154815260200190815260200160002060010160006101000a81548160ff0219169083151502179055506001547faa97d4a7b3afec5f55c25ca8593dde6929d4455fad650a16fa4334004293a61860405160405180910390a2565b60008054906101000a900473ffffffffffffffffffffffffffffffffffffffff1673ffffffffffffffffffffffffffffffffffffffff163373ffffffffffffffffffffffffffffffffffffffff161461080d576040517f08c379a000000000000000000000000000000000000000000000000000000000815260040161080490611e13565b60405180910390fd5b80600360006101000a81548173ffffffffffffffffffffffffffffffffffffffff021916908373ffffffffffffffffffffffffffffffffffffffff16021790555050565b60056000600154815260200190815260200160002060010160009054906101000a900460ff166108b6576040517f08c379a00000000000000000000000000000000000000000000000000000000081526004016108ad90611e7f565b60405180910390fd5b60076000600154815260200190815260200160002060003373ffffffffffffffffffffffffffffffffffffffff1673ffffffffffffffffffffffffffffffffffffffff16815260200190815260200160002060010160009054906101000a900460ff1615610959576040517f08c379a000000000000000000000000000000000000000000000000000000000815260040161095090611eeb565b60405180910390fd5b600860006001548152602001908152602001600020600083815260200190815260200160002060009054906101000a900460ff16156109cd576040517f08c379a00000000000000000000000000000000000000000000000000000000081526004016109c490611f57565b60405180910390fd5b6109d63361151a565b610a15576040517f08c379a0000000000000000000000000000000000000000000000000000000008152600401610a0c90611fc3565b60405180910390fd5b60003383600154604051602001610a2e9392919061204c565b6040516020818303038152906040528051906020012090506000610a51826115c7565b9050610a5d81846115f7565b610a9c576040517f08c379a0000000000000000000000000000000000000000000000000000000008152600401610a93906120d5565b60405180910390fd5b600160076000600154815260200190815260200160002060003373ffffffffffffffffffffffffffffffffffffffff1673ffffffffffffffffffffffffffffffffffffffff16815260200190815260200160002060010160006101000a81548160ff0219169083151502179055506001600860006001548152602001908152602001600020600086815260200190815260200160002060006101000a81548160ff0219169083151502179055503373ffffffffffffffffffffffffffffffffffffffff166108fc6002549081150290604051600060405180830381858888f19350505050158015610b91573d6000803e3d6000fd5b503373ffffffffffffffffffffffffffffffffffffffff167f106f923f993c2149d49b4255ff723acafa1f2d94393f561d3eda32ae348f7241600154604051610bda9190611775565b60405180910390a250505050565b60008054906101000a900473ffffffffffffffffffffffffffffffffffffffff1673ffffffffffffffffffffffffffffffffffffffff163373ffffffffffffffffffffffffffffffffffffffff1614610c76576040517f08c379a0000000000000000000000000000000000000000000000000000000008152600401610c6d90611e13565b60405180910390fd5b8060048190555050565b60015481565b60056020528060005260406000206000915090508060000154908060010160009054906101000a900460ff16908060020154908060030154905084565b60045481565b60056000600154815260200190815260200160002060010160009054906101000a900460ff16610d2e576040517f08c379a0000000000000000000000000000000000000000000000000000000008152600401610d2590611e7f565b60405180910390fd5b6004543414610d72576040517f08c379a0000000000000000000000000000000000000000000000000000000008152600401610d6990612141565b60405180910390fd5b60018210158015610d84575060078211155b610dc3576040517f08c379a0000000000000000000000000000000000000000000000000000000008152600401610dba906121ad565b60405180910390fd5b60066000600154815260200190815260200160002060003373ffffffffffffffffffffffffffffffffffffffff1673ffffffffffffffffffffffffffffffffffffffff168152602001908152602001600020600083815260200190815260200160002060009054906101000a900460ff1615610e74576040517f08c379a0000000000000000000000000000000000000000000000000000000008152600401610e6b90612219565b60405180910390fd5b60003383600154604051602001610e8d9392919061204c565b6040516020818303038152906040528051906020012090506000610eb0826115c7565b9050610ebc81846115f7565b610efb576040517f08c379a0000000000000000000000000000000000000000000000000000000008152600401610ef2906120d5565b60405180910390fd5b600060076000600154815260200190815260200160002060003373ffffffffffffffffffffffffffffffffffffffff1673ffffffffffffffffffffffffffffffffffffffff1681526020019081526020016000206000015403610f87576005600060015481526020019081526020016000206002016000815480929190610f8190612268565b91905055505b600160066000600154815260200190815260200160002060003373ffffffffffffffffffffffffffffffffffffffff1673ffffffffffffffffffffffffffffffffffffffff168152602001908152602001600020600086815260200190815260200160002060006101000a81548160ff02191690831515021790555060076000600154815260200190815260200160002060003373ffffffffffffffffffffffffffffffffffffffff1673ffffffffffffffffffffffffffffffffffffffff168152602001908152602001600020600001600081548092919061106990612268565b9190505550600560006001548152602001908152602001600020600301600081548092919061109790612268565b9190505550833373ffffffffffffffffffffffffffffffffffffffff167f621d62c6c0c4a0c35e883c6b27ad50ecc3093f08bfaf8aa5f58127d351feeb216001546040516110e59190611775565b60405180910390a350505050565b60008054906101000a900473ffffffffffffffffffffffffffffffffffffffff1673ffffffffffffffffffffffffffffffffffffffff163373ffffffffffffffffffffffffffffffffffffffff1614611181576040517f08c379a000000000000000000000000000000000000000000000000000000000815260040161117890611e13565b60405180910390fd5b6001600081548092919061119490612268565b919050555060405180608001604052804281526020016001151581526020016000815260200160008152506005600060015481526020019081526020016000206000820151816000015560208201518160010160006101000a81548160ff02191690831515021790555060408201518160020155606082015181600301559050506001547f33a701182892fd888ed152ca2ac23771a32e814469b7cd255965471e1af3a65960405160405180910390a2565b60003411611289576040517f08c379a0000000000000000000000000000000000000000000000000000000008152600401611280906122fc565b60405180910390fd5b3373ffffffffffffffffffffffffffffffffffffffff167f543ba50a5eec5e6178218e364b1d0f396157b3c8fa278522c2cb7fd99407d474346040516112cf9190611775565b60405180910390a2565b6007602052816000526040600020602052806000526040600020600091509150508060000154908060010160009054906101000a900460ff16905082565b6060600060015467ffffffffffffffff811115611337576113366119cd565b5b60405190808252806020026020018201604052801561137057816020015b61135d611732565b8152602001906001900390816113555790505b5090506000600190505b60015481116114175760056000828152602001908152602001600020604051806080016040529081600082015481526020016001820160009054906101000a900460ff1615151515815260200160028201548152602001600382015481525050826001836113e8919061231c565b815181106113f9576113f8612350565b5b6020026020010181905250808061140f90612268565b91505061137a565b508091505090565b60008060008060076000600154815260200190815260200160002060008673ffffffffffffffffffffffffffffffffffffffff1673ffffffffffffffffffffffffffffffffffffffff168152602001908152602001600020604051806040016040529081600082015481526020016001820160009054906101000a900460ff161515151581525050905080600001516007826000015110158260200151935093509350509193909250565b600360009054906101000a900473ffffffffffffffffffffffffffffffffffffffff1681565b60025481565b60008054906101000a900473ffffffffffffffffffffffffffffffffffffffff1681565b600080600190505b600781116115bc5760066000600154815260200190815260200160002060008473ffffffffffffffffffffffffffffffffffffffff1673ffffffffffffffffffffffffffffffffffffffff168152602001908152602001600020600082815260200190815260200160002060009054906101000a900460ff166115a95760009150506115c2565b80806115b490612268565b915050611522565b50600190505b919050565b6000816040516020016115da9190612401565b604051602081830303815290604052805190602001209050919050565b6000600360009054906101000a900473ffffffffffffffffffffffffffffffffffffffff1673ffffffffffffffffffffffffffffffffffffffff1661163c848461165b565b73ffffffffffffffffffffffffffffffffffffffff1614905092915050565b60008060008061166a856116ca565b925092509250600186848484604051600081526020016040526040516116939493929190612452565b6020604051602081039080840390855afa1580156116b5573d6000803e3d6000fd5b50505060206040510351935050505092915050565b60008060006041845114611713576040517f08c379a000000000000000000000000000000000000000000000000000000000815260040161170a906124e3565b60405180910390fd5b6020840151915060408401519050606084015160001a92509193909250565b60405180608001604052806000815260200160001515815260200160008152602001600081525090565b6000819050919050565b61176f8161175c565b82525050565b600060208201905061178a6000830184611766565b92915050565b6117998161175c565b82525050565b60008115159050919050565b6117b48161179f565b82525050565b6080820160008201516117d06000850182611790565b5060208201516117e360208501826117ab565b5060408201516117f66040850182611790565b5060608201516118096060850182611790565b50505050565b600060808201905061182460008301846117ba565b92915050565b6000604051905090565b600080fd5b600080fd5b6118478161175c565b811461185257600080fd5b50565b6000813590506118648161183e565b92915050565b6000806040838503121561188157611880611834565b5b600061188f85828601611855565b92505060206118a085828601611855565b9150509250929050565b6118b38161179f565b82525050565b60006020820190506118ce60008301846118aa565b92915050565b600073ffffffffffffffffffffffffffffffffffffffff82169050919050565b60006118ff826118d4565b9050919050565b61190f816118f4565b811461191a57600080fd5b50565b60008135905061192c81611906565b92915050565b60008060006060848603121561194b5761194a611834565b5b600061195986828701611855565b935050602061196a8682870161191d565b925050604061197b86828701611855565b9150509250925092565b60006020828403121561199b5761199a611834565b5b60006119a98482850161191d565b91505092915050565b600080fd5b600080fd5b6000601f19601f8301169050919050565b7f4e487b7100000000000000000000000000000000000000000000000000000000600052604160045260246000fd5b611a05826119bc565b810181811067ffffffffffffffff82111715611a2457611a236119cd565b5b80604052505050565b6000611a3761182a565b9050611a4382826119fc565b919050565b600067ffffffffffffffff821115611a6357611a626119cd565b5b611a6c826119bc565b9050602081019050919050565b82818337600083830152505050565b6000611a9b611a9684611a48565b611a2d565b905082815260208101848484011115611ab757611ab66119b7565b5b611ac2848285611a79565b509392505050565b600082601f830112611adf57611ade6119b2565b5b8135611aef848260208601611a88565b91505092915050565b60008060408385031215611b0f57611b0e611834565b5b6000611b1d85828601611855565b925050602083013567ffffffffffffffff811115611b3e57611b3d611839565b5b611b4a85828601611aca565b9150509250929050565b600060208284031215611b6a57611b69611834565b5b6000611b7884828501611855565b91505092915050565b6000608082019050611b966000830187611766565b611ba360208301866118aa565b611bb06040830185611766565b611bbd6060830184611766565b95945050505050565b60008060408385031215611bdd57611bdc611834565b5b6000611beb85828601611855565b9250506020611bfc8582860161191d565b9150509250929050565b6000604082019050611c1b6000830185611766565b611c2860208301846118aa565b9392505050565b600081519050919050565b600082825260208201905092915050565b6000819050602082019050919050565b608082016000820151611c716000850182611790565b506020820151611c8460208501826117ab565b506040820151611c976040850182611790565b506060820151611caa6060850182611790565b50505050565b6000611cbc8383611c5b565b60808301905092915050565b6000602082019050919050565b6000611ce082611c2f565b611cea8185611c3a565b9350611cf583611c4b565b8060005b83811015611d26578151611d0d8882611cb0565b9750611d1883611cc8565b925050600181019050611cf9565b5085935050505092915050565b60006020820190508181036000830152611d4d8184611cd5565b905092915050565b6000606082019050611d6a6000830186611766565b611d7760208301856118aa565b611d8460408301846118aa565b949350505050565b611d95816118f4565b82525050565b6000602082019050611db06000830184611d8c565b92915050565b600082825260208201905092915050565b7f4e6f742061646d696e0000000000000000000000000000000000000000000000600082015250565b6000611dfd600983611db6565b9150611e0882611dc7565b602082019050919050565b60006020820190508181036000830152611e2c81611df0565b9050919050565b7f526f756e6420696e616374697665000000000000000000000000000000000000600082015250565b6000611e69600e83611db6565b9150611e7482611e33565b602082019050919050565b60006020820190508181036000830152611e9881611e5c565b9050919050565b7f416c726561647920636c61696d65640000000000000000000000000000000000600082015250565b6000611ed5600f83611db6565b9150611ee082611e9f565b602082019050919050565b60006020820190508181036000830152611f0481611ec8565b9050919050565b7f4649442075736564000000000000000000000000000000000000000000000000600082015250565b6000611f41600883611db6565b9150611f4c82611f0b565b602082019050919050565b60006020820190508181036000830152611f7081611f34565b9050919050565b7f4d697373696e6720636865636b2d696e73000000000000000000000000000000600082015250565b6000611fad601183611db6565b9150611fb882611f77565b602082019050919050565b60006020820190508181036000830152611fdc81611fa0565b9050919050565b60008160601b9050919050565b6000611ffb82611fe3565b9050919050565b600061200d82611ff0565b9050919050565b612025612020826118f4565b612002565b82525050565b6000819050919050565b6120466120418261175c565b61202b565b82525050565b60006120588286612014565b6014820191506120688285612035565b6020820191506120788284612035565b602082019150819050949350505050565b7f496e76616c6964207369676e6174757265000000000000000000000000000000600082015250565b60006120bf601183611db6565b91506120ca82612089565b602082019050919050565b600060208201905081810360008301526120ee816120b2565b9050919050565b7f496e636f72726563742066656500000000000000000000000000000000000000600082015250565b600061212b600d83611db6565b9150612136826120f5565b602082019050919050565b6000602082019050818103600083015261215a8161211e565b9050919050565b7f496e76616c696420646179000000000000000000000000000000000000000000600082015250565b6000612197600b83611db6565b91506121a282612161565b602082019050919050565b600060208201905081810360008301526121c68161218a565b9050919050565b7f416c726561647920636865636b656420696e0000000000000000000000000000600082015250565b6000612203601283611db6565b915061220e826121cd565b602082019050919050565b60006020820190508181036000830152612232816121f6565b9050919050565b7f4e487b7100000000000000000000000000000000000000000000000000000000600052601160045260246000fd5b60006122738261175c565b91507fffffffffffffffffffffffffffffffffffffffffffffffffffffffffffffffff82036122a5576122a4612239565b5b600182019050919050565b7f4d7573742073656e6420736f6d652043454c4f00000000000000000000000000600082015250565b60006122e6601383611db6565b91506122f1826122b0565b602082019050919050565b60006020820190508181036000830152612315816122d9565b9050919050565b60006123278261175c565b91506123328361175c565b925082820390508181111561234a57612349612239565b5b92915050565b7f4e487b7100000000000000000000000000000000000000000000000000000000600052603260045260246000fd5b600081905092915050565b7f19457468657265756d205369676e6564204d6573736167653a0a333200000000600082015250565b60006123c0601c8361237f565b91506123cb8261238a565b601c82019050919050565b6000819050919050565b6000819050919050565b6123fb6123f6826123d6565b6123e0565b82525050565b600061240c826123b3565b915061241882846123ea565b60208201915081905092915050565b612430816123d6565b82525050565b600060ff82169050919050565b61244c81612436565b82525050565b60006080820190506124676000830187612427565b6124746020830186612443565b6124816040830185612427565b61248e6060830184612427565b95945050505050565b7f496e76616c6964207369676e6174757265206c656e6774680000000000000000600082015250565b60006124cd601883611db6565b91506124d882612497565b602082019050919050565b600060208201905081810360008301526124fc816124c0565b905091905056fea26469706673582212209ff229be627fae8960e8dbde0bb5a72f4d7c87fc8c1f40e1c8a16b4892d5e1f464736f6c63430008180033",
  "linkReferences": {},
  "deployedLinkReferences": {}
}