{
  "_format": "hh-sol-artifact-1",
  "contractName": "CeloJackpotV2",
  "sourceName": "contracts/CeloJackpotV2.sol",
  "abi": [
    {
      "inputs": [
        {
          "internalType": "address",
          "name": "_devWallet",
          "type": "address"
        }
      ],
      "stateMutability": "nonpayable",
      "type": "constructor"
    },
    {
      "anonymous": false,
      "inputs": [
        {
          "indexed": false,
          "internalType": "uint256",
          "name": "newRoundId",
          "type": "uint256"
        },
        {
          "indexed": false,
          "internalType": "uint256",
          "name": "carryOverPot",
          "type": "uint256"
        }
      ],
      "name": "RoundAdvanced",
      "type": "event"
    },
    {
      "anonymous": false,
      "inputs": [
        {
          "indexed": false,
          "internalType": "address",
          "name": "buyer",
          "type": "address"
        },
        {
          "indexed": false,
          "internalType": "uint256",
          "name": "roundId",
          "type": "uint256"
        },
        {
          "indexed": false,
          "internalType": "uint256",
          "name": "amount",
          "type": "uint256"
        }
      ],
      "name": "TicketPurchased",
      "type": "event"
    },
    {
      "anonymous": false,
      "inputs": [
        {
          "indexed": false,
          "internalType": "uint256",
          "name": "roundId",
          "type": "uint256"
        },
        {
          "indexed": false,
          "internalType": "address",
          "name": "winner",
          "type": "address"
        },
        {
          "indexed": false,
          "internalType": "uint256",
          "name": "amount",
          "type": "uint256"
        }
      ],
      "name": "WinnerSelected",
      "type": "event"
    },
    {
      "anonymous": false,
      "inputs": [
        {
          "indexed": false,
          "internalType": "uint256",
          "name": "roundId",
          "type": "uint256"
        },
        {
          "indexed": false,
          "internalType": "address",
          "name": "winner",
          "type": "address"
        },
        {
          "indexed": false,
          "internalType": "uint256",
          "name": "amount",
          "type": "uint256"
        }
      ],
      "name": "WinningsClaimed",
      "type": "event"
    },
    {
      "inputs": [],
      "name": "DEV_FEE_PERCENT",
      "outputs": [
        {
          "internalType": "uint256",
          "name": "",
          "type": "uint256"
        }
      ],
      "stateMutability": "view",
      "type": "function"
    },
    {
      "inputs": [],
      "name": "MIN_PARTICIPANTS",
      "outputs": [
        {
          "internalType": "uint256",
          "name": "",
          "type": "uint256"
        }
      ],
      "stateMutability": "view",
      "type": "function"
    },
    {
      "inputs": [],
      "name": "TICKET_PRICE",
      "outputs": [
        {
          "internalType": "uint256",
          "name": "",
          "type": "uint256"
        }
      ],
      "stateMutability": "view",
      "type": "function"
    },
    {
      "inputs": [],
      "name": "WINNER_PERCENTAGE",
      "outputs": [
        {
          "internalType": "uint256",
          "name": "",
          "type": "uint256"
        }
      ],
      "stateMutability": "view",
      "type": "function"
    },
    {
      "inputs": [
        {
          "internalType": "uint256",
          "name": "",
          "type": "uint256"
        }
      ],
      "name": "allParticipants",
      "outputs": [
        {
          "internalType": "address",
          "name": "",
          "type": "address"
        }
      ],
      "stateMutability": "view",
      "type": "function"
    },
    {
      "inputs": [],
      "name": "buyTickets",
      "outputs": [],
      "stateMutability": "payable",
      "type": "function"
    },
    {
      "inputs": [
        {
          "internalType": "uint256",
          "name": "roundId",
          "type": "uint256"
        }
      ],
      "name": "claimWinnings",
      "outputs": [],
      "stateMutability": "nonpayable",
      "type": "function"
    },
    {
      "inputs": [],
      "name": "currentRoundId",
      "outputs": [
        {
          "internalType": "uint256",
          "name": "",
          "type": "uint256"
        }
      ],
      "stateMutability": "view",
      "type": "function"
    },
    {
      "inputs": [],
      "name": "devWallet",
      "outputs": [
        {
          "internalType": "address",
          "name": "",
          "type": "address"
        }
      ],
      "stateMutability": "view",
      "type": "function"
    },
    {
      "inputs": [],
      "name": "drawInterval",
      "outputs": [
        {
          "internalType": "uint256",
          "name": "",
          "type": "uint256"
        }
      ],
      "stateMutability": "view",
      "type": "function"
    },
    {
      "inputs": [],
      "name": "emergencyWithdraw",
      "outputs": [],
      "stateMutability": "nonpayable",
      "type": "function"
    },
    {
      "inputs": [],
      "name": "getCurrentRound",
      "outputs": [
        {
          "components": [
            {
              "internalType": "uint256",
              "name": "roundId",
              "type": "uint256"
            },
            {
              "internalType": "uint256",
              "name": "startTime",
              "type": "uint256"
            },
            {
              "internalType": "uint256",
              "name": "endTime",
              "type": "uint256"
            },
            {
              "internalType": "uint256",
              "name": "pot",
              "type": "uint256"
            },
            {
              "internalType": "uint256",
              "name": "participantCount",
              "type": "uint256"
            },
            {
              "internalType": "address[]",
              "name": "participants",
              "type": "address[]"
            },
            {
              "internalType": "address",
              "name": "winner",
              "type": "address"
            },
            {
              "internalType": "uint256",
              "name": "winningAmount",
              "type": "uint256"
            },
            {
              "internalType": "bool",
              "name": "claimed",
              "type": "bool"
            },
            {
              "internalType": "bool",
              "name": "drawCompleted",
              "type": "bool"
            }
          ],
          "internalType": "struct CeloJackpotV2.Round",
          "name": "",
          "type": "tuple"
        }
      ],
      "stateMutability": "view",
      "type": "function"
    },
    {
      "inputs": [
        {
          "internalType": "address",
          "name": "user",
          "type": "address"
        }
      ],
      "name": "getDashboardData",
      "outputs": [
        {
          "internalType": "uint256",
          "name": "currentRound",
          "type": "uint256"
        },
        {
          "internalType": "uint256",
          "name": "timeUntilDraw",
          "type": "uint256"
        },
        {
          "internalType": "uint256",
          "name": "currentPot",
          "type": "uint256"
        },
        {
          "internalType": "uint256",
          "name": "userTicketsCurrentRound",
          "type": "uint256"
        },
        {
          "internalType": "bool",
          "name": "hasUnclaimed",
          "type": "bool"
        },
        {
          "internalType": "uint256",
          "name": "totalWinnings",
          "type": "uint256"
        },
        {
          "internalType": "uint256",
          "name": "totalParticipants",
          "type": "uint256"
        }
      ],
      "stateMutability": "view",
      "type": "function"
    },
    {
      "inputs": [
        {
          "internalType": "uint256",
          "name": "roundId",
          "type": "uint256"
        }
      ],
      "name": "getRoundParticipants",
      "outputs": [
        {
          "internalType": "address[]",
          "name": "",
          "type": "address[]"
        }
      ],
      "stateMutability": "view",
      "type": "function"
    },
    {
      "inputs": [],
      "name": "getTimeUntilDraw",
      "outputs": [
        {
          "internalType": "uint256",
          "name": "",
          "type": "uint256"
        }
      ],
      "stateMutability": "view",
      "type": "function"
    },
    {
      "inputs": [
        {
          "internalType": "address",
          "name": "user",
          "type": "address"
        }
      ],
      "name": "getTotalWinnings",
      "outputs": [
        {
          "internalType": "uint256",
          "name": "",
          "type": "uint256"
        }
      ],
      "stateMutability": "view",
      "type": "function"
    },
    {
      "inputs": [
        {
          "internalType": "address",
          "name": "user",
          "type": "address"
        }
      ],
      "name": "getUnclaimedRounds",
      "outputs": [
        {
          "internalType": "uint256[]",
          "name": "",
          "type": "uint256[]"
        }
      ],
      "stateMutability": "view",
      "type": "function"
    },
    {
      "inputs": [
        {
          "internalType": "address",
          "name": "user",
          "type": "address"
        }
      ],
      "name": "getUserRounds",
      "outputs": [
        {
          "internalType": "uint256[]",
          "name": "",
          "type": "uint256[]"
        }
      ],
      "stateMutability": "view",
      "type": "function"
    },
    {
      "inputs": [
        {
          "internalType": "address",
          "name": "user",
          "type": "address"
        }
      ],
      "name": "getUserWins",
      "outputs": [
        {
          "internalType": "uint256[]",
          "name": "",
          "type": "uint256[]"
        }
      ],
      "stateMutability": "view",
      "type": "function"
    },
    {
      "inputs": [
        {
          "internalType": "address",
          "name": "user",
          "type": "address"
        }
      ],
      "name": "hasUnclaimedWinnings",
      "outputs": [
        {
          "internalType": "bool",
          "name": "",
          "type": "bool"
        }
      ],
      "stateMutability": "view",
      "type": "function"
    },
    {
      "inputs": [
        {
          "internalType": "address",
          "name": "",
          "type": "address"
        }
      ],
      "name": "isParticipant",
      "outputs": [
        {
          "internalType": "bool",
          "name": "",
          "type": "bool"
        }
      ],
      "stateMutability": "view",
      "type": "function"
    },
    {
      "inputs": [],
      "name": "owner",
      "outputs": [
        {
          "internalType": "address",
          "name": "",
          "type": "address"
        }
      ],
      "stateMutability": "view",
      "type": "function"
    },
    {
      "inputs": [
        {
          "internalType": "uint256",
          "name": "",
          "type": "uint256"
        },
        {
          "internalType": "uint256",
          "name": "",
          "type": "uint256"
        }
      ],
      "name": "roundWinners",
      "outputs": [
        {
          "internalType": "address",
          "name": "",
          "type": "address"
        }
      ],
      "stateMutability": "view",
      "type": "function"
    },
    {
      "inputs": [
        {
          "internalType": "uint256",
          "name": "",
          "type": "uint256"
        }
      ],
      "name": "rounds",
      "outputs": [
        {
          "internalType": "uint256",
          "name": "roundId",
          "type": "uint256"
        },
        {
          "internalType": "uint256",
          "name": "startTime",
          "type": "uint256"
        },
        {
          "internalType": "uint256",
          "name": "endTime",
          "type": "uint256"
        },
        {
          "internalType": "uint256",
          "name": "pot",
          "type": "uint256"
        },
        {
          "internalType": "uint256",
          "name": "participantCount",
          "type": "uint256"
        },
        {
          "internalType": "address",
          "name": "winner",
          "type": "address"
        },
        {
          "internalType": "uint256",
          "name": "winningAmount",
          "type": "uint256"
        },
        {
          "internalType": "bool",
          "name": "claimed",
          "type": "bool"
        },
        {
          "internalType": "bool",
          "name": "drawCompleted",
          "type": "bool"
        }
      ],
      "stateMutability": "view",
      "type": "function"
    },
    {
      "inputs": [
        {
          "internalType": "uint256",
          "name": "newInterval",
          "type": "uint256"
        }
      ],
      "name": "setDrawInterval",
      "outputs": [],
      "stateMutability": "nonpayable",
      "type": "function"
    },
    {
      "inputs": [],
      "name": "totalJackpot",
      "outputs": [
        {
          "internalType": "uint256",
          "name": "",
          "type": "uint256"
        }
      ],
      "stateMutability": "view",
      "type": "function"
    },
    {
      "inputs": [
        {
          "internalType": "address",
          "name": "newOwner",
          "type": "address"
        }
      ],
      "name": "transferOwnership",
      "outputs": [],
      "stateMutability": "nonpayable",
      "type": "function"
    },
    {
      "inputs": [],
      "name": "triggerDraw",
      "outputs": [],
      "stateMutability": "nonpayable",
      "type": "function"
    },
    {
      "inputs": [
        {
          "internalType": "address",
          "name": "",
          "type": "address"
        },
        {
          "internalType": "uint256",
          "name": "",
          "type": "uint256"
        }
      ],
      "name": "userRounds",
      "outputs": [
        {
          "internalType": "uint256",
          "name": "",
          "type": "uint256"
        }
      ],
      "stateMutability": "view",
      "type": "function"
    },
    {
      "inputs": [
        {
          "internalType": "address",
          "name": "",
          "type": "address"
        },
        {
          "internalType": "uint256",
          "name": "",
          "type": "uint256"
        }
      ],
      "name": "userTickets",
      "outputs": [
        {
          "internalType": "uint256",
          "name": "",
          "type": "uint256"
        }
      ],
      "stateMutability": "view",
      "type": "function"
    },
    {
      "inputs": [
        {
          "internalType": "address",
          "name": "",
          "type": "address"
        },
        {
          "internalType": "uint256",
          "name": "",
          "type": "uint256"
        }
      ],
      "name": "userWins",
      "outputs": [
        {
          "internalType": "uint256",
          "name": "",
          "type": "uint256"
        }
      ],
      "stateMutability": "view",
      "type": "function"
    },
    {
      "stateMutability": "payable",
      "type": "receive"
    }
  ],
  "bytecode": "0x608060405262015180600a553480156200001857600080fd5b50604051620039e4380380620039e483398181016040528101906200003e9190620003fb565b336000806101000a81548173ffffffffffffffffffffffffffffffffffffffff021916908373ffffffffffffffffffffffffffffffffffffffff16021790555080600160006101000a81548173ffffffffffffffffffffffffffffffffffffffff021916908373ffffffffffffffffffffffffffffffffffffffff160217905550620000d16000620000d860201b60201c565b5062000520565b60096000815480929190620000ed9062000466565b919050555060405180610140016040528060095481526020014281526020016000815260200182815260200160008152602001600067ffffffffffffffff8111156200013e576200013d620004b3565b5b6040519080825280602002602001820160405280156200016d5781602001602082028036833780820191505090505b508152602001600073ffffffffffffffffffffffffffffffffffffffff1681526020016000815260200160001515815260200160001515815250600260006009548152602001908152602001600020600082015181600001556020820151816001015560408201518160020155606082015181600301556080820151816004015560a08201518160050190805190602001906200020c929190620002e3565b5060c08201518160060160006101000a81548173ffffffffffffffffffffffffffffffffffffffff021916908373ffffffffffffffffffffffffffffffffffffffff16021790555060e082015181600701556101008201518160080160006101000a81548160ff0219169083151502179055506101208201518160080160016101000a81548160ff0219169083151502179055509050507fed61a2d4b614cbd5677b44533d7c136e648e6d1d48f11bc307e8269df0f0ba9660095482604051620002d8929190620004f3565b60405180910390a150565b8280548282559060005260206000209081019282156200035f579160200282015b828111156200035e5782518260006101000a81548173ffffffffffffffffffffffffffffffffffffffff021916908373ffffffffffffffffffffffffffffffffffffffff1602179055509160200191906001019062000304565b5b5090506200036e919062000372565b5090565b5b808211156200038d57600081600090555060010162000373565b5090565b600080fd5b600073ffffffffffffffffffffffffffffffffffffffff82169050919050565b6000620003c38262000396565b9050919050565b620003d581620003b6565b8114620003e157600080fd5b50565b600081519050620003f581620003ca565b92915050565b60006020828403121562000414576200041362000391565b5b60006200042484828501620003e4565b91505092915050565b7f4e487b7100000000000000000000000000000000000000000000000000000000600052601160045260246000fd5b6000819050919050565b600062000473826200045c565b91507fffffffffffffffffffffffffffffffffffffffffffffffffffffffffffffffff8203620004a857620004a76200042d565b5b600182019050919050565b7f4e487b7100000000000000000000000000000000000000000000000000000000600052604160045260246000fd5b620004ed816200045c565b82525050565b60006040820190506200050a6000830185620004e2565b620005196020830184620004e2565b9392505050565b6134b480620005306000396000f3fe6080604052600436106101dc5760003560e01c80638ea5220f11610102578063cf260baf11610095578063e27a72ad11610064578063e27a72ad14610730578063e86ba67a1461075b578063f2fde38b14610786578063f5a9d5bb146107af576101e3565b8063cf260baf14610662578063db2e21bc1461069f578063dd1f7596146106b6578063e0909389146106f3576101e3565b8063ba2497a7116100d1578063ba2497a7146105b3578063bc06c4cc146105f0578063c81998261461061b578063cacc0efb14610625576101e3565b80638ea5220f146104f5578063929066f5146105205780639cbe5efd1461055d578063a32bf59714610588576101e3565b80633a5062941161017a578063677bd9ff11610149578063677bd9ff14610445578063825d2ab71461046e5780638c65c81f146104855780638da5cb5b146104ca576101e3565b80633a506294146103875780633a984bc5146103c45780634a1d0eed146103ef5780635e6a645e1461041a576101e3565b80631a099b4c116101b65780631a099b4c146102a55780631a95f15f146102e25780631bab1f7e1461030d57806337305df51461034a576101e3565b806303e3cd6a146101e857806305e33dd01461022557806318e2565914610262576101e3565b366101e357005b600080fd5b3480156101f457600080fd5b5061020f600480360381019061020a91906125cd565b6107d8565b60405161021c919061264e565b60405180910390f35b34801561023157600080fd5b5061024c60048036038101906102479190612669565b610826565b604051610259919061264e565b60405180910390f35b34801561026e57600080fd5b50610289600480360381019061028491906126c2565b610865565b60405161029c9796959493929190612719565b60405180910390f35b3480156102b157600080fd5b506102cc60048036038101906102c791906126c2565b610918565b6040516102d99190612788565b60405180910390f35b3480156102ee57600080fd5b506102f7610a1d565b60405161030491906127a3565b60405180910390f35b34801561031957600080fd5b50610334600480360381019061032f91906126c2565b610a29565b604051610341919061287c565b60405180910390f35b34801561035657600080fd5b50610371600480360381019061036c9190612669565b610c28565b60405161037e919061295c565b60405180910390f35b34801561039357600080fd5b506103ae60048036038101906103a991906126c2565b610ccc565b6040516103bb919061287c565b60405180910390f35b3480156103d057600080fd5b506103d9610d63565b6040516103e691906127a3565b60405180910390f35b3480156103fb57600080fd5b50610404610d68565b60405161041191906127a3565b60405180910390f35b34801561042657600080fd5b5061042f610d6e565b60405161043c91906127a3565b60405180910390f35b34801561045157600080fd5b5061046c60048036038101906104679190612669565b610d73565b005b34801561047a57600080fd5b506104836110ae565b005b34801561049157600080fd5b506104ac60048036038101906104a79190612669565b611502565b6040516104c19998979695949392919061297e565b60405180910390f35b3480156104d657600080fd5b506104df61158a565b6040516104ec919061264e565b60405180910390f35b34801561050157600080fd5b5061050a6115ae565b604051610517919061264e565b60405180910390f35b34801561052c57600080fd5b50610547600480360381019061054291906126c2565b6115d4565b6040516105549190612788565b60405180910390f35b34801561056957600080fd5b506105726115f4565b60405161057f91906127a3565b60405180910390f35b34801561059457600080fd5b5061059d6115fa565b6040516105aa9190612b63565b60405180910390f35b3480156105bf57600080fd5b506105da60048036038101906105d59190612b85565b61177e565b6040516105e791906127a3565b60405180910390f35b3480156105fc57600080fd5b506106056117af565b60405161061291906127a3565b60405180910390f35b6106236117b5565b005b34801561063157600080fd5b5061064c600480360381019061064791906126c2565b611bb0565b60405161065991906127a3565b60405180910390f35b34801561066e57600080fd5b5061068960048036038101906106849190612b85565b611ca6565b60405161069691906127a3565b60405180910390f35b3480156106ab57600080fd5b506106b4611ccb565b005b3480156106c257600080fd5b506106dd60048036038101906106d89190612b85565b611dc2565b6040516106ea91906127a3565b60405180910390f35b3480156106ff57600080fd5b5061071a600480360381019061071591906126c2565b611df3565b604051610727919061287c565b60405180910390f35b34801561073c57600080fd5b50610745611e8a565b60405161075291906127a3565b60405180910390f35b34801561076757600080fd5b5061077061204c565b60405161077d91906127a3565b60405180910390f35b34801561079257600080fd5b506107ad60048036038101906107a891906126c2565b612051565b005b3480156107bb57600080fd5b506107d660048036038101906107d19190612669565b612191565b005b600860205281600052604060002081815481106107f457600080fd5b906000526020600020016000915091509054906101000a900473ffffffffffffffffffffffffffffffffffffffff1681565b6006818154811061083657600080fd5b906000526020600020016000915054906101000a900473ffffffffffffffffffffffffffffffffffffffff1681565b6000806000806000806000600954965061087d611e8a565b9550600260006009548152602001908152602001600020600301549450600360008973ffffffffffffffffffffffffffffffffffffffff1673ffffffffffffffffffffffffffffffffffffffff168152602001908152602001600020600060095481526020019081526020016000205493506108f888610918565b925061090388611bb0565b91506006805490509050919395979092949650565b600080600560008473ffffffffffffffffffffffffffffffffffffffff1673ffffffffffffffffffffffffffffffffffffffff1681526020019081526020016000208054806020026020016040519081016040528092919081815260200182805480156109a457602002820191906000526020600020905b815481526020019060010190808311610990575b5050505050905060005b8151811015610a1157600260008383815181106109ce576109cd612bc5565b5b6020026020010151815260200190815260200160002060080160009054906101000a900460ff16610a0457600192505050610a18565b80806001019150506109ae565b5060009150505b919050565b670de0b6b3a764000081565b60606000600560008473ffffffffffffffffffffffffffffffffffffffff1673ffffffffffffffffffffffffffffffffffffffff168152602001908152602001600020805480602002602001604051908101604052809291908181526020018280548015610ab657602002820191906000526020600020905b815481526020019060010190808311610aa2575b505050505090506000805b8251811015610b285760026000848381518110610ae157610ae0612bc5565b5b6020026020010151815260200190815260200160002060080160009054906101000a900460ff16610b1b578180610b1790612c23565b9250505b8080600101915050610ac1565b5060008167ffffffffffffffff811115610b4557610b44612c6b565b5b604051908082528060200260200182016040528015610b735781602001602082028036833780820191505090505b5090506000805b8451811015610c1b5760026000868381518110610b9a57610b99612bc5565b5b6020026020010151815260200190815260200160002060080160009054906101000a900460ff16610c0e57848181518110610bd857610bd7612bc5565b5b6020026020010151838381518110610bf357610bf2612bc5565b5b6020026020010181815250508180610c0a90612c23565b9250505b8080600101915050610b7a565b5081945050505050919050565b606060026000838152602001908152602001600020600501805480602002602001604051908101604052809291908181526020018280548015610cc057602002820191906000526020600020905b8160009054906101000a900473ffffffffffffffffffffffffffffffffffffffff1673ffffffffffffffffffffffffffffffffffffffff1681526020019060010190808311610c76575b50505050509050919050565b6060600460008373ffffffffffffffffffffffffffffffffffffffff1673ffffffffffffffffffffffffffffffffffffffff168152602001908152602001600020805480602002602001604051908101604052809291908181526020018280548015610d5757602002820191906000526020600020905b815481526020019060010190808311610d43575b50505050509050919050565b600381565b600b5481565b600181565b60006002600083815260200190815260200160002090503373ffffffffffffffffffffffffffffffffffffffff168160060160009054906101000a900473ffffffffffffffffffffffffffffffffffffffff1673ffffffffffffffffffffffffffffffffffffffff1614610e1c576040517f08c379a0000000000000000000000000000000000000000000000000000000008152600401610e1390612cf7565b60405180910390fd5b8060080160009054906101000a900460ff1615610e6e576040517f08c379a0000000000000000000000000000000000000000000000000000000008152600401610e6590612d63565b60405180910390fd5b6000816007015411610eb5576040517f08c379a0000000000000000000000000000000000000000000000000000000008152600401610eac90612dcf565b60405180910390fd5b6000606460018360070154610eca9190612def565b610ed49190612e60565b90506000818360070154610ee89190612e91565b905060018360080160006101000a81548160ff02191690831515021790555080600b6000828254610f199190612ec5565b925050819055506000600160009054906101000a900473ffffffffffffffffffffffffffffffffffffffff1673ffffffffffffffffffffffffffffffffffffffff1683604051610f6890612f2a565b60006040518083038185875af1925050503d8060008114610fa5576040519150601f19603f3d011682016040523d82523d6000602084013e610faa565b606091505b5050905060003373ffffffffffffffffffffffffffffffffffffffff168560070154604051610fd890612f2a565b60006040518083038185875af1925050503d8060008114611015576040519150601f19603f3d011682016040523d82523d6000602084013e61101a565b606091505b505090508180156110285750805b611067576040517f08c379a000000000000000000000000000000000000000000000000000000000815260040161105e90612f8b565b60405180910390fd5b7f5380cf6fe903b40c6d5a9e0dfbca2f3a423f0a21520b4d5947ed5169bdba946d8633876007015460405161109e93929190612fab565b60405180910390a1505050505050565b60006002600060095481526020019081526020016000209050600a5481600101546110d99190612e91565b42101561111b576040517f08c379a00000000000000000000000000000000000000000000000000000000081526004016111129061302e565b60405180910390fd5b8060080160019054906101000a900460ff161561116d576040517f08c379a00000000000000000000000000000000000000000000000000000000081526004016111649061309a565b60405180910390fd5b6003816004015410156111b5576040517f08c379a00000000000000000000000000000000000000000000000000000000081526004016111ac90613106565b60405180910390fd5b60018160080160016101000a81548160ff0219169083151502179055504281600201819055506000670de0b6b3a764000082600301546111f59190612e60565b90506000816001436112079190612ec5565b4042856005018054905086600301548660405160200161122b959493929190613172565b6040516020818303038152906040528051906020012060001c61124e91906131d1565b905060008060005b856004015481101561132657600086600501828154811061127a57611279612bc5565b5b9060005260206000200160009054906101000a900473ffffffffffffffffffffffffffffffffffffffff169050600360008273ffffffffffffffffffffffffffffffffffffffff1673ffffffffffffffffffffffffffffffffffffffff1681526020019081526020016000206000600954815260200190815260200160002054846113059190612e91565b9350848411156113185780925050611326565b508080600101915050611256565b50600060646009876003015461133c9190612def565b6113469190612e60565b9050600060646001836113599190612def565b6113639190612e60565b90506000818389600301546113789190612ec5565b6113829190612ec5565b9050838860060160006101000a81548173ffffffffffffffffffffffffffffffffffffffff021916908373ffffffffffffffffffffffffffffffffffffffff160217905550828860070181905550600560008573ffffffffffffffffffffffffffffffffffffffff1673ffffffffffffffffffffffffffffffffffffffff1681526020019081526020016000206009549080600181540180825580915050600190039060005260206000200160009091909190915055600860006009548152602001908152602001600020849080600181540180825580915050600190039060005260206000200160009091909190916101000a81548173ffffffffffffffffffffffffffffffffffffffff021916908373ffffffffffffffffffffffffffffffffffffffff1602179055507ffee5b04775e1cd2311ed22cd00f5d2403aff38ff6f71d6d393f51854ed6bc986600954858a600701546040516114e793929190612fab565b60405180910390a16114f88161227d565b5050505050505050565b60026020528060005260406000206000915090508060000154908060010154908060020154908060030154908060040154908060060160009054906101000a900473ffffffffffffffffffffffffffffffffffffffff16908060070154908060080160009054906101000a900460ff16908060080160019054906101000a900460ff16905089565b60008054906101000a900473ffffffffffffffffffffffffffffffffffffffff1681565b600160009054906101000a900473ffffffffffffffffffffffffffffffffffffffff1681565b60076020528060005260406000206000915054906101000a900460ff1681565b60095481565b61160261247e565b600260006009548152602001908152602001600020604051806101400160405290816000820154815260200160018201548152602001600282015481526020016003820154815260200160048201548152602001600582018054806020026020016040519081016040528092919081815260200182805480156116da57602002820191906000526020600020905b8160009054906101000a900473ffffffffffffffffffffffffffffffffffffffff1673ffffffffffffffffffffffffffffffffffffffff1681526020019060010190808311611690575b505050505081526020016006820160009054906101000a900473ffffffffffffffffffffffffffffffffffffffff1673ffffffffffffffffffffffffffffffffffffffff1673ffffffffffffffffffffffffffffffffffffffff168152602001600782015481526020016008820160009054906101000a900460ff161515151581526020016008820160019054906101000a900460ff161515151581525050905090565b6005602052816000526040600020818154811061179a57600080fd5b90600052602060002001600091509150505481565b600a5481565b670de0b6b3a7640000341015611800576040517f08c379a00000000000000000000000000000000000000000000000000000000081526004016117f79061324e565b60405180910390fd5b6000670de0b6b3a7640000346118169190612e60565b9050600060026000600954815260200190815260200160002090508060080160019054906101000a900460ff1615611883576040517f08c379a000000000000000000000000000000000000000000000000000000000815260040161187a906132ba565b60405180910390fd5b6000600360003373ffffffffffffffffffffffffffffffffffffffff1673ffffffffffffffffffffffffffffffffffffffff168152602001908152602001600020600060095481526020019081526020016000205403611ad25780600501339080600181540180825580915050600190039060005260206000200160009091909190916101000a81548173ffffffffffffffffffffffffffffffffffffffff021916908373ffffffffffffffffffffffffffffffffffffffff16021790555080600401600081548092919061195790612c23565b9190505550600460003373ffffffffffffffffffffffffffffffffffffffff1673ffffffffffffffffffffffffffffffffffffffff1681526020019081526020016000206009549080600181540180825580915050600190039060005260206000200160009091909190915055600760003373ffffffffffffffffffffffffffffffffffffffff1673ffffffffffffffffffffffffffffffffffffffff16815260200190815260200160002060009054906101000a900460ff16611ad1576001600760003373ffffffffffffffffffffffffffffffffffffffff1673ffffffffffffffffffffffffffffffffffffffff16815260200190815260200160002060006101000a81548160ff0219169083151502179055506006339080600181540180825580915050600190039060005260206000200160009091909190916101000a81548173ffffffffffffffffffffffffffffffffffffffff021916908373ffffffffffffffffffffffffffffffffffffffff1602179055505b5b81600360003373ffffffffffffffffffffffffffffffffffffffff1673ffffffffffffffffffffffffffffffffffffffff168152602001908152602001600020600060095481526020019081526020016000206000828254611b349190612e91565b9250508190555034816003016000828254611b4f9190612e91565b9250508190555034600b6000828254611b689190612e91565b925050819055507f2a91574e12ad96234e84923e146b0946ecfb871cd8d5534dc1fdcbe87a7c01b33360095484604051611ba4939291906132da565b60405180910390a15050565b600080600560008473ffffffffffffffffffffffffffffffffffffffff1673ffffffffffffffffffffffffffffffffffffffff168152602001908152602001600020805480602002602001604051908101604052809291908181526020018280548015611c3c57602002820191906000526020600020905b815481526020019060010190808311611c28575b505050505090506000805b8251811015611c9b5760026000848381518110611c6757611c66612bc5565b5b602002602001015181526020019081526020016000206007015482611c8c9190612e91565b91508080600101915050611c47565b508092505050919050565b6003602052816000526040600020602052806000526040600020600091509150505481565b60008054906101000a900473ffffffffffffffffffffffffffffffffffffffff1673ffffffffffffffffffffffffffffffffffffffff163373ffffffffffffffffffffffffffffffffffffffff1614611d59576040517f08c379a0000000000000000000000000000000000000000000000000000000008152600401611d509061335d565b60405180910390fd5b60008054906101000a900473ffffffffffffffffffffffffffffffffffffffff1673ffffffffffffffffffffffffffffffffffffffff166108fc479081150290604051600060405180830381858888f19350505050158015611dbf573d6000803e3d6000fd5b50565b60046020528160005260406000208181548110611dde57600080fd5b90600052602060002001600091509150505481565b6060600560008373ffffffffffffffffffffffffffffffffffffffff1673ffffffffffffffffffffffffffffffffffffffff168152602001908152602001600020805480602002602001604051908101604052809291908181526020018280548015611e7e57602002820191906000526020600020905b815481526020019060010190808311611e6a575b50505050509050919050565b60008060026000600954815260200190815260200160002060405180610140016040529081600082015481526020016001820154815260200160028201548152602001600382015481526020016004820154815260200160058201805480602002602001604051908101604052809291908181526020018280548015611f6557602002820191906000526020600020905b8160009054906101000a900473ffffffffffffffffffffffffffffffffffffffff1673ffffffffffffffffffffffffffffffffffffffff1681526020019060010190808311611f1b575b505050505081526020016006820160009054906101000a900473ffffffffffffffffffffffffffffffffffffffff1673ffffffffffffffffffffffffffffffffffffffff1673ffffffffffffffffffffffffffffffffffffffff168152602001600782015481526020016008820160009054906101000a900460ff161515151581526020016008820160019054906101000a900460ff1615151515815250509050600a5481602001516120189190612e91565b4210612028576000915050612049565b42600a54826020015161203b9190612e91565b6120459190612ec5565b9150505b90565b600981565b60008054906101000a900473ffffffffffffffffffffffffffffffffffffffff1673ffffffffffffffffffffffffffffffffffffffff163373ffffffffffffffffffffffffffffffffffffffff16146120df576040517f08c379a00000000000000000000000000000000000000000000000000000000081526004016120d69061335d565b60405180910390fd5b600073ffffffffffffffffffffffffffffffffffffffff168173ffffffffffffffffffffffffffffffffffffffff160361214e576040517f08c379a0000000000000000000000000000000000000000000000000000000008152600401612145906133c9565b60405180910390fd5b806000806101000a81548173ffffffffffffffffffffffffffffffffffffffff021916908373ffffffffffffffffffffffffffffffffffffffff16021790555050565b60008054906101000a900473ffffffffffffffffffffffffffffffffffffffff1673ffffffffffffffffffffffffffffffffffffffff163373ffffffffffffffffffffffffffffffffffffffff161461221f576040517f08c379a00000000000000000000000000000000000000000000000000000000081526004016122169061335d565b60405180910390fd5b610e108110158015612234575062093a808111155b612273576040517f08c379a000000000000000000000000000000000000000000000000000000000815260040161226a90613435565b60405180910390fd5b80600a8190555050565b6009600081548092919061229090612c23565b919050555060405180610140016040528060095481526020014281526020016000815260200182815260200160008152602001600067ffffffffffffffff8111156122de576122dd612c6b565b5b60405190808252806020026020018201604052801561230c5781602001602082028036833780820191505090505b508152602001600073ffffffffffffffffffffffffffffffffffffffff1681526020016000815260200160001515815260200160001515815250600260006009548152602001908152602001600020600082015181600001556020820151816001015560408201518160020155606082015181600301556080820151816004015560a08201518160050190805190602001906123a99291906124eb565b5060c08201518160060160006101000a81548173ffffffffffffffffffffffffffffffffffffffff021916908373ffffffffffffffffffffffffffffffffffffffff16021790555060e082015181600701556101008201518160080160006101000a81548160ff0219169083151502179055506101208201518160080160016101000a81548160ff0219169083151502179055509050507fed61a2d4b614cbd5677b44533d7c136e648e6d1d48f11bc307e8269df0f0ba9660095482604051612473929190613455565b60405180910390a150565b604051806101400160405280600081526020016000815260200160008152602001600081526020016000815260200160608152602001600073ffffffffffffffffffffffffffffffffffffffff168152602001600081526020016000151581526020016000151581525090565b828054828255906000526020600020908101928215612564579160200282015b828111156125635782518260006101000a81548173ffffffffffffffffffffffffffffffffffffffff021916908373ffffffffffffffffffffffffffffffffffffffff1602179055509160200191906001019061250b565b5b5090506125719190612575565b5090565b5b8082111561258e576000816000905550600101612576565b5090565b600080fd5b6000819050919050565b6125aa81612597565b81146125b557600080fd5b50565b6000813590506125c7816125a1565b92915050565b600080604083850312156125e4576125e3612592565b5b60006125f2858286016125b8565b9250506020612603858286016125b8565b9150509250929050565b600073ffffffffffffffffffffffffffffffffffffffff82169050919050565b60006126388261260d565b9050919050565b6126488161262d565b82525050565b6000602082019050612663600083018461263f565b92915050565b60006020828403121561267f5761267e612592565b5b600061268d848285016125b8565b91505092915050565b61269f8161262d565b81146126aa57600080fd5b50565b6000813590506126bc81612696565b92915050565b6000602082840312156126d8576126d7612592565b5b60006126e6848285016126ad565b91505092915050565b6126f881612597565b82525050565b60008115159050919050565b612713816126fe565b82525050565b600060e08201905061272e600083018a6126ef565b61273b60208301896126ef565b61274860408301886126ef565b61275560608301876126ef565b612762608083018661270a565b61276f60a08301856126ef565b61277c60c08301846126ef565b98975050505050505050565b600060208201905061279d600083018461270a565b92915050565b60006020820190506127b860008301846126ef565b92915050565b600081519050919050565b600082825260208201905092915050565b6000819050602082019050919050565b6127f381612597565b82525050565b600061280583836127ea565b60208301905092915050565b6000602082019050919050565b6000612829826127be565b61283381856127c9565b935061283e836127da565b8060005b8381101561286f57815161285688826127f9565b975061286183612811565b925050600181019050612842565b5085935050505092915050565b60006020820190508181036000830152612896818461281e565b905092915050565b600081519050919050565b600082825260208201905092915050565b6000819050602082019050919050565b6128d38161262d565b82525050565b60006128e583836128ca565b60208301905092915050565b6000602082019050919050565b60006129098261289e565b61291381856128a9565b935061291e836128ba565b8060005b8381101561294f57815161293688826128d9565b9750612941836128f1565b925050600181019050612922565b5085935050505092915050565b6000602082019050818103600083015261297681846128fe565b905092915050565b600061012082019050612994600083018c6126ef565b6129a1602083018b6126ef565b6129ae604083018a6126ef565b6129bb60608301896126ef565b6129c860808301886126ef565b6129d560a083018761263f565b6129e260c08301866126ef565b6129ef60e083018561270a565b6129fd61010083018461270a565b9a9950505050505050505050565b600082825260208201905092915050565b6000612a278261289e565b612a318185612a0b565b9350612a3c836128ba565b8060005b83811015612a6d578151612a5488826128d9565b9750612a5f836128f1565b925050600181019050612a40565b5085935050505092915050565b612a83816126fe565b82525050565b600061014083016000830151612aa260008601826127ea565b506020830151612ab560208601826127ea565b506040830151612ac860408601826127ea565b506060830151612adb60608601826127ea565b506080830151612aee60808601826127ea565b5060a083015184820360a0860152612b068282612a1c565b91505060c0830151612b1b60c08601826128ca565b5060e0830151612b2e60e08601826127ea565b50610100830151612b43610100860182612a7a565b50610120830151612b58610120860182612a7a565b508091505092915050565b60006020820190508181036000830152612b7d8184612a89565b905092915050565b60008060408385031215612b9c57612b9b612592565b5b6000612baa858286016126ad565b9250506020612bbb858286016125b8565b9150509250929050565b7f4e487b7100000000000000000000000000000000000000000000000000000000600052603260045260246000fd5b7f4e487b7100000000000000000000000000000000000000000000000000000000600052601160045260246000fd5b6000612c2e82612597565b91507fffffffffffffffffffffffffffffffffffffffffffffffffffffffffffffffff8203612c6057612c5f612bf4565b5b600182019050919050565b7f4e487b7100000000000000000000000000000000000000000000000000000000600052604160045260246000fd5b600082825260208201905092915050565b7f4e6f742077696e6e657200000000000000000000000000000000000000000000600082015250565b6000612ce1600a83612c9a565b9150612cec82612cab565b602082019050919050565b60006020820190508181036000830152612d1081612cd4565b9050919050565b7f416c726561647920636c61696d65640000000000000000000000000000000000600082015250565b6000612d4d600f83612c9a565b9150612d5882612d17565b602082019050919050565b60006020820190508181036000830152612d7c81612d40565b9050919050565b7f4e6f2077696e6e696e6773000000000000000000000000000000000000000000600082015250565b6000612db9600b83612c9a565b9150612dc482612d83565b602082019050919050565b60006020820190508181036000830152612de881612dac565b9050919050565b6000612dfa82612597565b9150612e0583612597565b9250828202612e1381612597565b91508282048414831517612e2a57612e29612bf4565b5b5092915050565b7f4e487b7100000000000000000000000000000000000000000000000000000000600052601260045260246000fd5b6000612e6b82612597565b9150612e7683612597565b925082612e8657612e85612e31565b5b828204905092915050565b6000612e9c82612597565b9150612ea783612597565b9250828201905080821115612ebf57612ebe612bf4565b5b92915050565b6000612ed082612597565b9150612edb83612597565b9250828203905081811115612ef357612ef2612bf4565b5b92915050565b600081905092915050565b50565b6000612f14600083612ef9565b9150612f1f82612f04565b600082019050919050565b6000612f3582612f07565b9150819050919050565b7f5472616e73666572206661696c65640000000000000000000000000000000000600082015250565b6000612f75600f83612c9a565b9150612f8082612f3f565b602082019050919050565b60006020820190508181036000830152612fa481612f68565b9050919050565b6000606082019050612fc060008301866126ef565b612fcd602083018561263f565b612fda60408301846126ef565b949350505050565b7f546f6f20736f6f6e000000000000000000000000000000000000000000000000600082015250565b6000613018600883612c9a565b915061302382612fe2565b602082019050919050565b600060208201905081810360008301526130478161300b565b9050919050565b7f416c726561647920647261776e00000000000000000000000000000000000000600082015250565b6000613084600d83612c9a565b915061308f8261304e565b602082019050919050565b600060208201905081810360008301526130b381613077565b9050919050565b7f4e6f7420656e6f756768207061727469636970616e7473000000000000000000600082015250565b60006130f0601783612c9a565b91506130fb826130ba565b602082019050919050565b6000602082019050818103600083015261311f816130e3565b9050919050565b6000819050919050565b6000819050919050565b61314b61314682613126565b613130565b82525050565b6000819050919050565b61316c61316782612597565b613151565b82525050565b600061317e828861313a565b60208201915061318e828761315b565b60208201915061319e828661315b565b6020820191506131ae828561315b565b6020820191506131be828461315b565b6020820191508190509695505050505050565b60006131dc82612597565b91506131e783612597565b9250826131f7576131f6612e31565b5b828206905092915050565b7f496e73756666696369656e742043454c4f000000000000000000000000000000600082015250565b6000613238601183612c9a565b915061324382613202565b602082019050919050565b600060208201905081810360008301526132678161322b565b9050919050565b7f526f756e6420636f6d706c657465640000000000000000000000000000000000600082015250565b60006132a4600f83612c9a565b91506132af8261326e565b602082019050919050565b600060208201905081810360008301526132d381613297565b9050919050565b60006060820190506132ef600083018661263f565b6132fc60208301856126ef565b61330960408301846126ef565b949350505050565b7f4e6f74206f776e65720000000000000000000000000000000000000000000000600082015250565b6000613347600983612c9a565b915061335282613311565b602082019050919050565b600060208201905081810360008301526133768161333a565b9050919050565b7f496e76616c696420616464726573730000000000000000000000000000000000600082015250565b60006133b3600f83612c9a565b91506133be8261337d565b602082019050919050565b600060208201905081810360008301526133e2816133a6565b9050919050565b7f496e76616c696420696e74657276616c00000000000000000000000000000000600082015250565b600061341f601083612c9a565b915061342a826133e9565b602082019050919050565b6000602082019050818103600083015261344e81613412565b9050919050565b600060408201905061346a60008301856126ef565b61347760208301846126ef565b939250505056fea2646970667358221220ea8151ee168e56c9084a898f9bfd6956d583520c1e6bd6e5a119d401bc79884264736f6c63430008180033",
  "linkReferences": {},
  "deployedLinkReferences": {}
}